:020000040800F2
:1000000060B6002449040008D1E1000877B900086F
:10001000CDE10008A50F00086928010800000000D4
:10002000000000000000000000000000890300083C
:100030005117000800000000E5030008F50C010856
:1000400067040008670400086704000867040008E4
:1000500067040008670400086704000867040008D4
:10006000670400086704000867040008151000080A
:10007000251000083510000845100008551000082C
:100080006510000875100008670400086704000880
:100090006704000867040008670400086704000894
:1000A0006704000867040008670400086704000884
:1000B000670400082D0F0108670400088DB90008C7
:1000C0007DB9000867040008670400086704000899
:1000D000670400085D2301086D2301087D230108E2
:1000E00067040008670400080000000067040008B7
:1000F000670400083D0F0108670400088510000828
:10010000670400086704000867040008C1010108CB
:10011000C5150108D5150108670400086704000823
:1001200095100008A5100008B5100008C5100008BB
:10013000D510000867040008670400086704000879
:1001400000000000000000000000000000000000AF
:10015000E5100008F5100008051100088D230108BE
:1001600067040008670400086704000867040008C3
:100170006704000867040008670400080000000026
:100180006704000867040008E5150108F515010873
:100190006704000867040008670400086704000893
:1001A0006704000867040008670400086704000883
:1001B0006704000867040008670400086704000873
:1001C0006704000867040008670400086704000863
:1001D0006704000867040008670400086704000853
:1001E0006704000867040008670400086704000843
:1001F0006704000867040008670400086704000833
:100200006704000867040008670400086704000822
:10021000670400080D0F01081D0F0108670400089E
:100220006704000867040008670400080000000075
:100230006704000867040008000000006704000865
:1002400067040008670400086704000867040008E2
:1002500067040008670400086704000867040008D2
:1002600067040008670400086704000867040008C2
:100270006704000867040008670400080000000025
:100280006704000867040008670400080000000015
:10029000000000006704000800F002F800F064F8B5
:1002A0000AA090E8000C82448344AAF10107DA45D1
:1002B00001D100F059F8AFF2090EBAE80F0013F0BF
:1002C000010F18BFFB1A43F001031847B463010084
:1002D000D46301000A444FF0000C10F8013B13F006
:1002E000070408BF10F8014B1D1108BF10F8015B8F
:1002F000641E05D010F8016B641E01F8016BF9D182
:1003000013F0080F1EBF10F8014BAD1C0C1B09D1D8
:100310006D1E58BF01F801CBFAD505E014F8016B4A
:1003200001F8016B6D1EF9D59142D6D370470000DC
:100330000023002400250026103A28BF78C1FBD8EE
:10034000520728BF30C148BF0B607047642900F0D6
:100350002381752900F02081002070471FB515F01A
:100360004BFB1FBD10B510BD00F07CFB1146FFF725
:10037000F5FF12F006FE00F09AFB03B4FFF7F2FF60
:1003800003BC12F040FD00002C4B19680868B0E86F
:10039000F04F80F30988BFF36F8F4FF0000080F3B8
:1003A000118870470000000008480068006880F36A
:1003B00008884FF0000080F3148862B661B6BFF37E
:1003C0004F8FBFF36F8F00DF00BF00BF08ED00E06D
:1003D000DFF80C00016841F470010160704700BF54
:1003E00088ED00E0EFF30980BFF36F8F134B1A68BD
:1003F0001EF0100F08BF20ED108A20E9F04F1060AA
:1004000009B44FF0500080F31188BFF34F8FBFF352
:100410006F8F14F069F94FF0000080F3118809BC68
:1004200019680868B0E8F04F1EF0100F08BFB0EC74
:10043000108A80F30988BFF36F8F7047380000245B
:10044000EFF30580704700000A4880470A4880475C
:100450000A480047FEE7FEE7FEE7FEE7FEE7FEE7A5
:10046000FEE7FEE7FEE7FEE705480649064A074BBA
:10047000704700003D210008E50D010899020008C1
:100480006086002460B600246096002460960024F4
:10049000704753EA020C00F069802DE9F04B4FF0F1
:1004A0000006002B1FBFB3FA83F503FA05F424FA04
:1004B00005F65E4012BF1643B2FA82F502FA05F461
:1004C000C5F120051EBF22FA05FC44EA0C042035C4
:1004D00056EA044C4FEA144418BF641C4FF000085D
:1004E0004FF00009904271EB030C39D3002919BF7A
:1004F000B1FA81F701FA07F6B0FA80F700FA07F6C9
:10050000C7F120071EBF20FA07FC46EA0C06203779
:10051000B6FBF4FCA7EB0507103F07F01F0BCBF170
:1005200020060CFA0BFB2CFA06F644BFB346002655
:10053000202FA4BF5E464FF0000B5BEA060C08BFFD
:100540004FF0010B19EB0B09ABFB027C48EB0608E3
:10055000C01B06FB02CC0BFB03CC71EB0C01C1E70B
:100560000B46024641464846BDE8F08B13B54FF0B6
:1005700000004FF00001AFF30080BDE81C40704761
:100580000FB4044910B503AA029800F04DFA10BC4C
:100590005DF814FBD00000242DE9F041064600244C
:1005A00010687529314616A510D0AFF300800028D9
:1005B00002DA404213A507E031688A0701D512A587
:1005C00002E0490704D511A5012401E0AFF3008042
:1005D00000210A2206F1240709E0B0FBF2FCB0FB7F
:1005E000F2F302FB1C00303078541846491C0028F6
:1005F000F3D123462A463046BDE8F04100F0A3B9C6
:10060000000000002D0000002B0000002000000072
:100610002DE9F05F894604464FF0000ADFF874B117
:10062000FB44C0F820A02046E1688847002874D029
:10063000252806D0D4E901219047206A401C206279
:10064000F1E700265F462046E168884720280546F6
:1006500007DB312D05D2781910F8200C08B10643BC
:10066000F1E7B00701D526F00406C4F81CA0002766
:10067000C4F818A02A2D09D0284612F0BDFB38B3C3
:1006800004EB8708303DC8F8185019E059F8041BEE
:10069000204604EB87029161E1688847012F0546F7
:1006A00018D1E069002820DA26F020061DE0D8F8ED
:1006B000180000EB800005EB40003038C8F8180047
:1006C0002046E1688847054612F096FB0028EED1E7
:1006D000012F0AD02E2D08D12046E16888477F1CC3
:1006E0000546022F46F02006C4DBA069002803DA85
:1006F000404246F00106A061F00701D026F0100646
:100700006C2D0BD0682D09D04C2D39D06A2D35D0E9
:10071000742D35D07A2D33D016E038E0E1682F46BD
:1007200020468847B842054609D16C2F26D04FF4A1
:100730008060E168064320468847054604E06C2F48
:100740001AD04FF4807006430DB3A5F1410019286B
:1007500002D8203546F400664A46294620462660DF
:100760004E46FFF7F3FD80B101280BD0F61D26F0B1
:10077000070000F1080956E74020E4E78020D8E7A9
:100780000020D6E706F104094DE7284652E7206A23
:10079000BDE8F09FAE5F0100032A40F2308010F008
:1007A000030C00F0158011F8013BBCF1020F62440C
:1007B00098BF11F801CB00F8013B38BF11F8013B9D
:1007C000A2F1040298BF00F801CB38BF00F8013B4A
:1007D00011F0030300F02580083AC0F0088051F8BA
:1007E000043B083A51F804CBA0E80810F5E7121DC5
:1007F0005CBF51F8043B40F8043BAFF30080D207E4
:1008000024BF11F8013B11F801CB48BF11F8012BAF
:1008100024BF00F8013B00F801CB48BF00F8012BD2
:10082000704710B5203AC0F00B80B1E81850203A5C
:10083000A0E81850B1E81850A0E81850BFF4F5AF80
:100840005FEA027C24BFB1E81850A0E8185044BF0A
:1008500018C918C0BDE810405FEA827C24BF51F877
:10086000043B40F8043B08BF7047D20728BF31F86B
:10087000023B48BF11F8012B28BF20F8023B48BFBC
:1008800000F8012B704702F0FF0343EA032242EA1B
:10089000024200F002B84FF000020429C0F01280BA
:1008A00010F0030C00F01B80CCF1040CBCF1020F23
:1008B00018BF00F8012BA8BF20F8022BA1EB0C01F8
:1008C00000F00DB85FEAC17C24BF00F8012B00F8EE
:1008D000012B48BF00F8012B70474FF0000200B514
:1008E000134694469646203922BFA0E80C50A0E853
:1008F0000C50B1F12001BFF4F7AF090728BFA0E801
:100900000C5048BF0CC05DF804EB890028BF40F8CC
:10091000042B08BF704748BF20F8022B11F0804F0E
:1009200018BF00F8012B7047704770477047704739
:1009300010B500F08BF8006810BD10B5044600F04B
:1009400085F8046010BD2DE9F0470D4699469246A2
:10095000044600F124080168880604D5E06921F006
:100960001001216000E00120A84201DD471B00E0EA
:100970000027A1697A1902EB0900081AA061207802
:10098000C00602D42046AFF30080002608E0D4E978
:1009900001211AF806009047206A401C761C20624C
:1009A0004E45F4DB2078C0060AD52046AFF3008020
:1009B00006E0D4E9012130209047206A401C2062E3
:1009C000381EA7F10107F4DC07E0D4E9012118F88B
:1009D00005009047206A401C2062281EA5F10105F1
:1009E000F3DC2046AFF300802078000602D5022019
:1009F000BDE8F0870120FBE701694A1C0261087825
:100A0000704700B58FB0CDE901310021059105494E
:100A10007944CDE9031011466846FFF7F9FD0FB0A0
:100A200000BD0000E5FFFFFF074B70B50D467B449E
:100A3000FFF7E7FF0446284600F00CF810B14FF02E
:100A4000FF3070BD204670BD1B2501000048704777
:100A500000860024007B00F080007047004870474B
:100A6000008600247546FFF7F9FFAE46050069468B
:100A7000534620F00700854618B020B5FFF7F4FC78
:100A8000BDE820404FF000064FF000074FF000088F
:100A90004FF0000B21F00701AC46ACE8C009ACE810
:100AA000C009ACE8C009ACE8C0098D46704710B574
:100AB0000446AFF300802046BDE81040FFF75DBC60
:100AC00070B504464F492068884203D04E492068DB
:100AD000884208D14D48006800F4403008B1012038
:100AE00009E0002007E04A48006800F4403008B1FF
:100AF000012000E00020B8B107F0EAFE054660687A
:100B0000B0F5803F06D0B0F5003F04D0B0F5403FCF
:100B100008D105E000BF6068000CB5FBF0F502E00D
:100B2000AD0800E000BF2BE04FF40020002106F0EC
:100B3000FDF905466068C0F31101F9B980140C286D
:100B40001CD2DFE800F01B060708090A0B11131579
:100B5000171900BF00BF00BF00BF00BF6068800C56
:100B60004000B5FBF0F50AE02D0908E06D0906E04C
:100B7000AD0904E0ED0902E02D0A00E000BF00BF6E
:100B800005F0C2F841F20301884210D8214885429D
:100B900006D92068806840F48070216888602FE062
:100BA0002068806820F480702168886028E06D08E3
:100BB0001948854206D82068806820F44070216872
:100BC00088601DE01548854208D82068806820F4B8
:100BD000407040F480702168886011E010488542C0
:100BE00008D82068806820F4407040F400702168C4
:100BF000886005E02068806840F440702168886063
:100C000070BD000000200240002102400823024085
:100C100008630258002D3101105E5F0020BCBE0049
:100C200040787D012DE9F05F044688464FF00009C9
:100C3000474620680CF0A0FB824620680CF083FB3E
:100C40008346BAF1000F02D1BBF1000F72D02068C9
:100C5000C06800F0007000B3607D01281DD1207DC8
:100C600001281AD101270FE0334881450AD3606D6E
:100C700040F010006065A06D40F00100A06501200B
:100C8000BDE8F09F09F1010920680068C0F38010F9
:100C90000028E9D0402021680860022F10D0206889
:100CA0000CF06AFB60B120680CF052FB40B9206880
:100CB0008168224A114041F01001816000BF00BFED
:100CC000012F10D020680CF03EFB60B120680CF0C2
:100CD0003FFB40B920688168184A114041F020016B
:100CE000816000BF00BF022F03D0032F03D10C256A
:100CF00003E0082501E0042500BF00BF05F00AF865
:100D0000064612E005F006F8801B05280DD920687C
:100D10008068284048B1606D40F010006065A06DAB
:100D200040F00100A0650120AAE720688068284003
:100D30000028E7D10020A3E700DC0C00C0FFFF7F04
:100D400070B50546AC6B606D00F0500098BB606DEF
:100D500040F4007060652068006800F00800A8B1E9
:100D600020680CF013FB10B32068C06800F400503A
:100D7000E8B9606D20F480706065606D00F48050AB
:100D8000A8B9606D40F00100606510E02068C0689F
:100D900000F0030058B9606D20F480706065606DEC
:100DA00000F4805018B9606D40F001006065204685
:100DB00002F032FD0CE0FFE7606D00F0100018B1AA
:100DC000204602F02BFD03E0E06CC16C284688470A
:100DD00070BD70B50546AC6B606D40F0400060655D
:100DE000A06D40F00400A065204602F017FD70BD24
:100DF00070B50446A56B284602F00FFD70BD0000DB
:100E000070B5044620680CF0A3FA064620680CF082
:100E1000A4FA98B396BB2068806800F00D00012802
:100E20000AD1206881681A4A1140891C816000BF7C
:100E300003202168086009E0606D40F010006065E3
:100E4000A06D40F00100A065012070BD04F062FFBC
:100E5000054614E004F05EFF401B02280FD920680D
:100E6000806800F0010050B1606D40F010006065D6
:100E7000A06D40F00100A0650120E6E705E02068D4
:100E8000806800F001000028E4D10020DDE70000C8
:100E9000C0FFFF7F70B5044620680CF05EFA0028A2
:100EA00051D1206880682949084048B1606D40F000
:100EB00010006065A06D40F00100A065012070BDCC
:100EC00020680CF033FA04F025FF0546204A21681B
:100ED000914203D01F4A2168914201D11E4900E08E
:100EE0001E4908460CF02AFA06461A49206888422C
:100EF00001D1174800E020682168884200D00EBB6D
:100F00001AE020680CF029FA10B920680CF00EFAEB
:100F100004F000FF401B02280ED92068006800F092
:100F2000010048B9606D40F010006065A06D40F0B0
:100F30000100A0650120C2E72068006800F0010000
:100F40000028DED000BF0020B9E700003F0000808D
:100F500000200240002102400023024000630258AA
:100F600001469FED0C0BB0EE401B00200BE031F86A
:100F7000102000EE102AB8EE400B30EE010BB0EE60
:100F8000401B421CD0B23228F1DB9FED042B81EED6
:100F9000020B70470000000000000000000000008D
:100FA0000000494000BFFEE7024609B90020704733
:100FB0000D4890F8000608B10020F8E70B480B68D0
:100FC00003614B6843610B8903838B7A8376064800
:100FD00080F84025012380F841350120024B83F839
:100FE000000600BFE3E70000C0700024C0760024C4
:100FF00001B97047064A0B88A2F801368B7882F84F
:10100000033610700122024B5A7000BFF1E7000056
:10101000C070002410B5024803F052FB10BD000060
:10102000040F002410B5024803F04AFB10BD000075
:101030007C0F002410B5024803F042FB10BD0000F5
:10104000E410002410B5024803F03AFB10BD000084
:101050006C10002410B5024803F032FB10BD0000F4
:10106000D411002410B5024803F02AFB10BD000083
:101070008408002410B5024803F022FB10BD0000D4
:10108000FC08002410B5024803F01AFB10BD000054
:101090007409002410B5024803F012FB10BD0000D3
:1010A000EC09002410B5024803F00AFB10BD000053
:1010B0008803002410B5024803F002FB10BD0000B5
:1010C0001003002410B5024803F0FAFA10BD000026
:1010D000A406002410B5024803F0F2FA10BD000087
:1010E0001C07002410B5024803F0EAFA10BD000006
:1010F0005C11002410B5024803F0E2FA10BD0000B4
:101100009407002410B5024803F0DAFA10BD00007D
:101110000C0800240146374A0868904249D0354AF5
:1011200018320868904244D0324A303208689042FF
:101130003FD0304A4832086890423AD02D4A603257
:101140000868904235D02B4A78320868904230D0F7
:10115000284A9032086890422BD0264AA832086864
:10116000904226D0244A0868904222D0224A18325F
:10117000086890421DD0204A30320868904218D04A
:101180001D4A48320868904213D01B4A60320868F2
:1011900090420ED0184A78320868904209D0164A18
:1011A00090320868904204D0134AA83208689042EE
:1011B00001D1012000E00020B0B10A78103A1823D4
:1011C000B2FBF3F000F007020C4B9A5CCA650328EF
:1011D00005D90A686FF30902121D8A6503E00A68DF
:1011E0006FF309028A6503E0086820F0FF00886554
:1011F000886D70471000024010040240DC5A01085C
:1012000010B502682B4C0368A34222D0294C143439
:101210000368A3421DD0274C28340368A34218D08A
:10122000244C3C340368A34213D0224C503403684E
:10123000A3420ED01F4C64340368A34209D01D4C56
:1012400078340368A34204D01A4C8C340368A34258
:1012500001D1012300E000238BB10378083B142463
:10126000B3FBF4F1144B03EB81030366124B8033A1
:10127000436601F01F040123A340836618E003784E
:10128000103B1824B3FBF4F10C4B9A4204D80B4BDF
:10129000A83B9A4200D30831094B03EB8103036654
:1012A000074B8033436601F01F040123A34083668C
:1012B00010BD00000854025800580258B8040240FB
:1012C000000802400179A9B3082940D8204B0268E0
:1012D0009A4222D01E4B143302689A421DD01C4BF6
:1012E000283302689A4218D0194B3C3302689A425C
:1012F00013D0174B503302689A420ED0144B64330C
:1013000002689A4209D0124B783302689A4204D09C
:101310000F4B8C3302689A4201D1012200E0002277
:101320004AB14A1E0B4B03EB8202C266094A4032A5
:10133000026708E00BE04A1E074B03EB8202C2661D
:10134000054A403202674A1E0123934043677047B3
:101350000854025800590258000902400146002072
:101360008A69D2B98A6A32B1012A0DD0022A03D021
:10137000032A10D10EE000BFCA6A02F08072B2F1F7
:10138000807F00D1012007E0CA6AB2F1C07F00D19E
:10139000012001E000E000BF36E08A69B2F5005F9D
:1013A0001BD18A6A32B1012A07D0022A03D0032A4C
:1013B00011D10AE000BF01200EE0CA6A02F080727B
:1013C000B2F1807F00D1012006E0CA6AB2F1C07F8D
:1013D00000D1012000E000BF16E08A6A32B1012A84
:1013E00005D0022A04D0032A0CD103E000BF00BFBD
:1013F000012008E0CA6A02F08072B2F1807F00D159
:10140000012000E000BF00BF70470000F0B5856D0F
:10141000846D984F0668BE4270D0964F18370668A4
:10142000BE426BD0934F30370668BE4266D0914FB4
:1014300048370668BE4261D08E4F60370668BE42AC
:101440005CD08C4F78370668BE4257D0894F9037B2
:101450000668BE4252D0874FA8370668BE424DD0BC
:10146000854F0668BE4249D0834F18370668BE4292
:1014700044D0814F30370668BE423FD07E4F483758
:101480000668BE423AD07C4F60370668BE4235D00F
:10149000794F78370668BE4230D0774F903706686C
:1014A000BE422BD0744FA8370668BE4226D0734F79
:1014B0000668BE4222D0714F14370668BE421DD066
:1014C0006E4F28370668BE4218D06C4F3C3706680E
:1014D000BE4213D0694F50370668BE420ED0674FE8
:1014E00064370668BE4209D0644F78370668BE424A
:1014F00004D0624F8C370668BE4201D1012600E05D
:1015000000263EB1D0E919767E60C66E16B1D0E9EC
:101510001C767E60574F0668BE4249D0554F18373B
:101520000668BE4244D0534F30370668BE423FD0B3
:10153000504F48370668BE423AD04E4F6037066873
:10154000BE4235D04B4F78370668BE4230D0494F47
:1015500090370668BE422BD0464FA8370668BE4279
:1015600026D0454F0668BE4222D0434F1837066842
:10157000BE421DD0404F30370668BE4218D03E4FA5
:1015800048370668BE4213D03B4F60370668BE42FC
:101590000ED0394F78370668BE4209D0364F9037A3
:1015A0000668BE4204D0344FA8370668BE4201D157
:1015B000012600E00026DEB190F85C6006F01F070F
:1015C0003F26BE40AE600668366826F4802607686F
:1015D0003E60066873608668402E04D10668B2607B
:1015E0000668F16044E00668B1600668F2603FE0BA
:1015F000224F0668BE4222D0204F14370668BE42F2
:101600001DD01E4F28370668BE4218D01B4F3C37EE
:101610000668BE4213D0194F50370668BE420ED03E
:10162000164F64370668BE4209D0144F78370668F3
:10163000BE4204D0114F8C370668BE4201D101264C
:1016400000E00026A6B190F85C6006F01F070126B6
:10165000BE406660066873608668402E04D10668E6
:10166000B2600668F16003E00668B1600668F26087
:10167000F0BD00001000024010040240085402585F
:1016800010B54FF480722749274800F039FE2748EB
:1016900000F0D4FBFF20264981F84E0000212448A9
:1016A000A0F85010A0F85210FF20214981F88001C5
:1016B00014211F48A0F882110121A0F88411FF20F5
:1016C0001B4981F8320100211948A0F83411A0F813
:1016D0003611FF20164981F8380100211448A0F87E
:1016E0003A11A0F83C11FF20114981F88601002130
:1016F0000F48A0F88811A0F88A11FF200C4981F842
:10170000400500210A48A0F84215A0F84415FF2022
:10171000074981F84C0500210548A0F84E15A0F8AE
:10172000501510BD0C7800246C0100241927000806
:10173000C070002402468A4202DD501A00B270478F
:101740004842824202DA501800B2F8E70020F6E779
:101750007047000010B5144802F02BFB134802F04C
:1017600028FB114802F000FB104802F0FDFA40F29D
:10177000FF7200210C4801F061FC0A2004F09CF982
:1017800040F2FF720021094801F058FC0A2004F0E1
:1017900093F932220649054802F04CFA32220549F3
:1017A000014802F047FA10BD48020024AC020024B0
:1017B000F86F00245C7000241FB500200090019099
:1017C00002900390002407E0012004F075F96846B8
:1017D00000F006F8601C84B2B4F57A7FF4DB1FBD1C
:1017E00010B5044604B910BD00220821184804F0C1
:1017F00085FAB4F9000017490EF002F92423154ABE
:101800000821154808F008FFB4F9020013490EF04A
:10181000F7F82423114A00210F4808F0FDFEB4F91F
:1018200004000F490EF0ECF824230D4A04210A4865
:1018300008F0F2FEB4F906000A490EF0E1F824239C
:10184000084A0C21044808F0E7FE00BFCBE700007F
:101850000008025840790024C0050024D0790024F3
:10186000607A0024F07A002410B50EF03BFC0020D2
:10187000064908700649088001200649087004F0EE
:1018800049FA054908600EF0E1FE10BDD6010024BA
:10189000D8010024E0010024DC01002410B52DED66
:1018A000028BB0EE408A0EF0DDFD04F033FA0649FB
:1018B0000968401AB0F5967F02D9012003490870E3
:1018C000BDEC028B10BD0000DC010024E00100240F
:1018D00008B50020009000F02DF80B48006888B192
:1018E0006A4600210848006812F0E0FC00BF00983A
:1018F00038B14FF0805005490860BFF34F8FBFF3F8
:101900006F8F00BF08BD0000C800002404ED00E098
:1019100010B505480549086096230122044903488B
:10192000006800F0C6FC10BD08650024DC0000243F
:101930007064002410B5052239493A4808F0FCFFCC
:10194000394800683949884258D0374800683749D3
:101950001831884252D034480068344930318842C6
:101960004CD03148006831494831884246D02E4831
:1019700000682E496031884240D02B4800682B49CE
:10198000783188423AD02848006828499031884206
:1019900034D0254800682549A83188422ED02248F5
:1019A00000682349884229D01F480068204918311F
:1019B000884223D01C4800681D49303188421DD020
:1019C000194800681A494831884217D016480068FB
:1019D00017496031884211D01348006814497831A2
:1019E00088420BD01048006811499031884205D0D8
:1019F0000D4800680E49A831884208D10A4800689D
:101A0000006820F0080008490968086007E00648F7
:101A10000068006820F0040003490968086010BDF0
:101A2000D4000024480D0024E410002410000240DB
:101A3000100402400149086070470000C8000024FB
:101A400008B1014600E00249024A116070470000F7
:101A5000B51E0008BC00002438B5044600200090E4
:101A60001148006838B1052C05DC22460F490E48A4
:101A7000006800F0C2FBFFF75DFF0D48006888B109
:101A80006A4600210A48006812F010FC00BF009866
:101A900038B14FF0805007490860BFF34F8FBFF354
:101AA0006F8F00BF38BD0000DC000024D40000248C
:101AB000C800002404ED00E070B504460D4604B1F2
:101AC0000DB9002070BD4FF6FF732A462146044829
:101AD00009F089FE08B90120F4E70020F2E70000D0
:101AE000DC0D002408B50020009000F02FF80B4812
:101AF000006888B16A4600210848006812F0D6FBE9
:101B000000BF009838B14FF0805005490860BFF31E
:101B10004F8FBFF36F8F00BF08BD0000CC000024C3
:101B200004ED00E010B50648064908604FF48063F4
:101B3000012205490348006800F0BBFB10BD00000E
:101B400060690024E00000246065002410B5402294
:101B500039493A4808F0F0FE394800683949884266
:101B600058D03748006837491831884252D0344835
:101B700000683449303188424CD0314800683149DE
:101B80004831884246D02E4800682E49603188424C
:101B900040D02B4800682B49783188423AD02848F9
:101BA000006828499031884234D02548006825498A
:101BB000A83188422ED0224800682349884229D083
:101BC0001F48006820491831884223D01C4800680B
:101BD0001D49303188421DD0194800681A494831E2
:101BE000884217D01648006817496031884211D0E2
:101BF000134800681449783188420BD010480068B7
:101C000011499031884205D00D4800680E49A8312D
:101C1000884208D10A480068006820F00800084996
:101C20000968086007E006480068006820F00400C2
:101C300003490968086010BD20650024DC0D0024FC
:101C40005C110024100002401004024001490860A9
:101C500070470000CC00002408B1014600E00249B2
:101C6000024A116070470000B51E0008C000002441
:101C700038B50446002000901148006838B1402C67
:101C800005DC22460F490E48006800F0B6FAFFF75F
:101C90005DFF0D48006888B16A4600210A48006867
:101CA00012F004FB00BF009838B14FF08050074994
:101CB0000860BFF34F8FBFF36F8F00BF38BD0000C8
:101CC000E000002420650024CC00002404ED00E0A6
:101CD00070B504460D4604B10DB9002070BD2A460A
:101CE0002146084809F0EAFD50B90748006828B1C4
:101CF0004FF0FF310448006813F052F90120EDE77E
:101D00000020EBE7640A00240000002410B500F076
:101D100015F810BD10B50648064908604FF4167353
:101D2000012205490348006800F0C3FA10BD000015
:101D3000E06B0024E40000248769002410B50F2222
:101D400039493A4808F0F8FD39480068394988426D
:101D500058D03748006837491831884252D0344843
:101D600000683449303188424CD0314800683149EC
:101D70004831884246D02E4800682E49603188425A
:101D800040D02B4800682B49783188423AD0284807
:101D9000006828499031884234D025480068254998
:101DA000A83188422ED0224800682349884229D091
:101DB0001F48006820491831884223D01C48006819
:101DC0001D49303188421DD0194800681A494831F0
:101DD000884217D01648006817496031884211D0F0
:101DE000134800681449783188420BD010480068C5
:101DF00011499031884205D00D4800680E49A8313C
:101E0000884208D10A480068006820F008000849A4
:101E10000968086007E006480068006820F00400D0
:101E200003490968086010BD78690024640A002429
:101E30007C0F0024100002401004024008B101464B
:101E400000E00249024A116070470000B51E000818
:101E5000C400002410B504460648006838B10F2CB1
:101E600005DC224604490348006800F0C6F9FFF784
:101E700065FF10BDE40000247869002408B5002047
:101E800000900A48006880B169460848006812F06E
:101E900049FF00BF009838B14FF0805004490860F6
:101EA000BFF34F8FBFF36F8F00BF08BD000000244A
:101EB00004ED00E07047000010B52DED028B0848DE
:101EC000FFF74EF8B0EE408B9FED061B88EE010B3E
:101ED0009FED061B20EE010BBDEC028B10BD000038
:101EE0005C70002400000000E0FFEF4000000000F4
:101EF000008CA94010B52DED028BFFF7DDFF9FEDA3
:101F00000F1B20EE010BB0EE408BB5EEC08BF1EE57
:101F100010FA03D20020BDEC028B10BD9FED090B1F
:101F2000B4EEC08BF1EE10FA02DD4FF6FF70F2E76F
:101F3000BCEEC80B10EE100A80B2ECE77B14AE4783
:101F4000E1FAF63F00000000E0FFEF4010B52DED94
:101F5000028B00F035F89FED121B20EE011B9FED68
:101F6000122B9FED130B01EE020BB0EE408BB5EE82
:101F7000C08BF1EE10FA03D20020BDEC028B10BD35
:101F80009FED0D0BB4EEC08BF1EE10FA02DD4FF6B3
:101F9000FF70F2E7BCEEC80B10EE100A80B2ECE75F
:101FA0000000000000005940FCA9F1D24D62503FF2
:101FB0009A9999999999B93F00000000E0FFEF4084
:101FC00010B52DED028B0C48FEF7CAFFB0EE408B2A
:101FD0009FED0A0B88EE001B9FED0A0B21EE000B14
:101FE000B2EE061B20EE011BB7EE002B81EE020BBA
:101FF000BDEC028B10BD0000F86F00240000000053
:10200000E0FFEF400000000000C8A94010B500222A
:102010000421074803F072FE00220221044803F065
:102020006DFE00220821024803F068FE10BD00008A
:10203000000C02587FB504460020009001900290E9
:102040000390002C6FD03A480088052190FBF1F0F6
:1020500005B24FF4FA62002128460BF046FAADF8BB
:10206000000033484088052190FBF1F005B24FF4A1
:10207000FA62002128460BF038FAADF802002C482D
:102080008088052190FBF1F005B24FF4FA6200213F
:1020900028460BF02AFAADF804002548C08805212F
:1020A00090FBF1F005B24FF4FA62002128460BF0E4
:1020B0001CFAADF806001E480089052190FBF1F0DE
:1020C00005B24FF4FA62002128460BF00EFAADF883
:1020D000080017484089052190FBF1F005B24FF444
:1020E000FA62002128460BF000FAADF80A00104809
:1020F0008089052190FBF1F005B24FF4FA620021CE
:1021000028460BF0F2F9ADF80C000948C08905210A
:1021100090FBF1F005B24FF4FA62002128460BF073
:10212000E4F9ADF80E006846FFF75AFB7FBD0000EA
:10213000E676002472B600BFFEE70000074800689C
:1021400040F002000549086000BF044808380068F4
:1021500000F400500028F8D0704700000C480258E6
:1021600010B5DFED0C2AB3EE092AF3EE091A9FED44
:10217000091ADFED090A9FED080A084810F076FBFE
:102180000120074908700020064908700649487078
:1021900010BD00000000C8420000000014830024AD
:1021A000C2010024C1010024A801002410B52DEDB6
:1021B000028BB0EE408AB0EE480A00F047F900F01A
:1021C000E3F8BDEC028B10BD0EB510208DF80000B9
:1021D000002005E000220DF101010A54411CC8B2A3
:1021E0000A28F7DB00208DF8010001218DF802108C
:1021F0006946FF20FEF7D8FE0EBD2DE9F0410446EA
:102200000D4616464FF000082F460AE03946204694
:1022100000F00FF820B12069074408F1010800E040
:1022200003E0301EA6F10106F0D100BF4046BDE834
:10223000F08170B504460E46204600F04AF808B119
:10224000002070BD6569A168236901FB03501A462F
:102250003146FEF7A1FAA068401CA060A068216882
:10226000884201D30020A060E068401CE0600120AB
:10227000E7E770B504460D46204600F023F808B1A4
:10228000002070BD66696068236900FB03611A461F
:102290002846FEF781FA6068401C6060606821682B
:1022A000884201D300206060E068401EE0600120A9
:1022B000E7E710B541610261036000244460846077
:1022C000C46010BD0146C86808B9012070470020ED
:1022D000FCE70146C8680A68904201D101207047B6
:1022E0000020FCE70146B1F5966F01DA0120704746
:1022F00040F2A460814201DA0220F8E70320F6E709
:10230000016000238380C280704770B50B468188CE
:102310001144C488A1420BDC002107E05D5C868883
:10232000741C84800468A5554C1CA1B29142F5DB55
:1023300070BD8288C3889A4204DA83885A1C8280DE
:102340000268D154704730B505460C46E1B22846C4
:10235000FFF7EFFF21122846FFF7EBFF30BD70B506
:1023600006460D46002408E0E00025FA00F0C1B260
:102370003046FFF7DEFF601CC4B2042CF4DB70BDF6
:102380000168491C0160704710B5254B5B791BB98A
:102390000123244C237002E00023224C2370214BA4
:1023A0001878012803D1204B59781A6A0CE01F4B8A
:1023B00019781F4BB3F90430002B03DD1C4BB3F924
:1023C000043000E000231A461A4B1B7883420BD1DD
:1023D000012803D1184B1B788B4204D020B9174B2E
:1023E0001B788B4200D110BD124B1870012802D10E
:1023F000114B197001E0114B19700023104C237020
:102400004FF48773638023465A6001240D4B83F891
:1024100039410D4B1B685B1C0B4C236000BFE2E78E
:10242000D0010024C0010024D88300249601002498
:1024300082010024C4010024C5010024C601002437
:10244000EC820024C0700024BC0100242DE9F04778
:102450002DED028BB0EE408A0024002700250026D7
:102460005048007818B9BDEC028BBDE8F0874E48A3
:10247000407808B9012000E000204C4908704C4821
:1024800000784C490978884201D0012000E0002002
:102490008046B8F1000F0ED04548007845490870D5
:1024A0004348C07838B14248807A20B140488079AA
:1024B000FA2800D901244048407808B1012000E002
:1024C00000208146B9F1000F14D000203A4948702D
:1024D0003A48B0F90050B0F90260284610F06AFAA4
:1024E000B0F5967F06DA304610F064FAB0F5967FC4
:1024F00000DA01272E48B0F90E0000EE100AB8EEFF
:10250000C00AF0EE401A2A48B0F90C0000EE100A9A
:10251000B8EEC00AB0EE401AB0EE482A224639465C
:1025200000EE106AF8EEC00A00EE105AB8EEC00ACB
:10253000234810F0E5F91D48007801280AD104B9B4
:1025400091E71B4880891F4908811948C1891D48A6
:10255000418114E00FB904B985E71948D0ED000AAC
:10256000B0EE600A10F02EFA164908811448D0ED3A
:10257000020AB0EE600A10F025FA124948814FF4C1
:1025800000411048818101210F4880F833110F4824
:102590000068401C0D4908600D48FFF7F1FE00BFC0
:1025A00061E70000C2010024D0010024C101002421
:1025B000D8830024C3010024A8010024880100243A
:1025C00014830024EC820024C0700024B80100248D
:1025D000F8840024F8B50020009003F09BFB064629
:1025E000002491E004EB84024A4B03EB82029188C1
:1025F00004EB840253F8220003F078FB04EB84011F
:10260000444A02EB8101897909B1012100E00021EE
:10261000884201D1012000E00020054604EB84003F
:102620003C4901EB8000007BA8420AD004EB840007
:1026300001EB8000057304EB840001EB80008660F1
:102640000DE004EB8400334901EB80008068301A10
:10265000142804D304EB840001EB8000457304EBE1
:1026600084002C4901EB8000407B90B104EB840096
:1026700001EB8000807B60B904EB840001EB8000FB
:10268000006930B104EB8401224A02EB8101086940
:10269000804704EB84001F4901EB8000407B04EB82
:1026A00084011C4A02EB8101887334B1012C0DD0E6
:1026B000022C14D0032C24D11AE004EB8400154919
:1026C00001EB8000407B8DF800001AE004EB8400F1
:1026D000104901EB8000407B8DF8010011E004EB14
:1026E00084000C4901EB8000407B8DF8020008E07B
:1026F00004EB8400074901EB8000407B8DF8030068
:1027000000BF00BF601CC4B2042CFFF46BAF009884
:10271000F8BD0000E800002410B5044642480078E7
:1027200060B9AA2C0AD101203F49087000203F4916
:1027300008703F4908703F48047073E03A480078D9
:10274000012809D1FF2C01D0612C05D10220364986
:1027500008703848447065E033480078022805D195
:10276000032031490870334884705BE02E480078BC
:10277000032809D1FA2C07DA04202B4908702D48C8
:10278000C4702A4804704DE027480078042819D105
:1027900026480078002815DD24480078401E23498B
:1027A00008702348007822490978491C204A117092
:1027B000001D20490C541D48007858BB05201A49BB
:1027C00008702FE01848007805280DD1062016491A
:1027D00008701748007816490978491C144A117086
:1027E000001D14490C541DE00F480078062812D132
:1027F00000200D4908700E480078001D0D490C544A
:102800000B480078401D0C490870084601780948BB
:1028100000F02EF806E00020034908700349087014
:102820000349087010BD00007B01002479010024D9
:102830007A0100240C7700247801002410B50020D0
:102840000AF0FEFD0D200AF0FBFD33200AF0F8FD32
:1028500034200AF0F5FD40200AF0F2FD41200AF094
:10286000EFFDE0200AF0ECFDE2200AF0E9FD10BDEA
:102870002DE9F04104460D4600260027E178A81F07
:10288000814201D0BDE8F081002006E0215C3144A6
:10289000CEB2B919CFB2411CC8B2A91E8142F5DC33
:1028A000601910F8020CB04204D1601910F8010C44
:1028B000B84200D0E6E72078AA2805D16078FF2842
:1028C00003D06078612800D0DCE7A078202831D1DF
:1028D000201D10F050FB7D490880A01D10F04BFB1F
:1028E0007A49488004F1080010F045FB7749888058
:1028F00004F10A0010F03FFB7449C88004F10C0099
:1029000010F039FB7149088104F10E0010F033FB1F
:102910006E49488104F1100010F02DFB6B4988814D
:1029200004F1120010F027FB6849C88101206849B2
:102930000870C9E0A0780F2809D12079654908708E
:1029400060794870A0798870E079C870BCE0A078A0
:1029500006280CD120796049087060794870A07908
:102960008870E1795C48C170217A0171ACE0A0788F
:1029700007280AD1002005E0211D095C574A11549F
:10298000411CC8B20628F7DB9EE0A07805280AD1D2
:10299000002005E0211D095C514A1154411CC8B2B8
:1029A0000928F7DB90E0A078012824D1201D10F041
:1029B000DBFA4C490880A01D10F0D6FA494948803E
:1029C00004F1080010F0D0FA4649888004F10A00AA
:1029D00010F0CAFA4349C88004F10C0010F0C4FAA0
:1029E0004049088104F10E0010F0BEFA3D494881CB
:1029F000207C087368E0A078042818D1201D10F00E
:102A0000B3FA39490880A01D10F0AEFA3649488063
:102A100004F1080010F0A8FA3349888004F10A0094
:102A200010F0A2FA3049C880207B08724CE0A078F0
:102A3000E02813D12079012802D0102802D100E02B
:102A400001E000E000BF00BF207928490870084677
:102A500046708770AF20FEF7CBFA35E0A078B0B9AA
:102A6000234890F80406217988422DD1204890F817
:102A700005066179884227D11D4890F80606A1799C
:102A8000884221D100201A4981F800061CE0A07874
:102A9000E1280DD1201D10F06EFA80461548A0F8EF
:102AA0000080002013494860FF2010F0C1FB0BE0BC
:102AB000A078E22808D120790C49087008464670B1
:102AC0008770FF20FEF794FA00BFDBE6E67600246D
:102AD0003C010024B80000247C010024580100249B
:102AE000F6760024FF760024DC7600245E010024C4
:102AF000C070002464010024F0B587B004460D4680
:102B000000260027E178A81F814201D007B0F0BD60
:102B1000002006E0215C3144CEB2B919CFB2411C8D
:102B2000C8B2A91E8142F5DC601910F8020CB0424F
:102B300004D1601910F8010CB84200D0E6E7207803
:102B4000AA2805D16078FF2803D06078612800D0DA
:102B5000DCE7A078012842D1E078062800D0D5E74C
:102B6000002005E0011D615C05AA1154411CC8B29A
:102B70000628F7D3A448807918B9DDE905010DF0DE
:102B8000E5F901A8DDE905120DF0F0F9DDE9010133
:102B9000CDE903019D480078012807D19C48C07801
:102BA00020B19B48008C00B2ADF810009948039901
:102BB0000160BDF810108180BDF90C0096490860D5
:102BC000BDF90E004860BDF9100088609348007898
:102BD000401C9249087001209149087011E1A078C9
:102BE000022814D1E078062800D08FE7002005E005
:102BF000011D615C8B4A1154411CC8B20628F7D3F1
:102C00000120874948708848FFF7BAFBF9E0A078AF
:102C100003281AD1002005E0011D615C834A11548C
:102C2000411CC8B20828F7D3804801680591406864
:102C30000146069005980FF0D5FD7B486030FFF700
:102C40009FFB012076498870DBE0A0780428C5D07E
:102C5000A078052815D1E078082800D056E7002094
:102C600005E0011D615C724A1154411CC8B208287C
:102C7000F7D301206A49C8706B481830FFF780FB12
:102C8000BFE0A078062852D1E078082800D03DE7C0
:102C9000002005E0011D615C664A1154411CC8B268
:102CA0000828F7D301205E4988716248B0F9000016
:102CB00000EE100AB8EEC00ADFED5F0A80EE201ABF
:102CC0005E4880ED001A5B48B0F9020000EE100A81
:102CD000B8EEC00ADFED580A80EE201A574880EDA2
:102CE000011A5448B0F9040000EE100AB8EEC00A08
:102CF000DFED510A80EE201A504880ED021A4D484F
:102D0000B0F9060000EE100AB8EEC00ADFED4A0A7C
:102D100080EE201A494880ED031A49480078401C8B
:102D20004749087040483030FFF72AFB69E0A07837
:102D3000D0B9E078032800D0E8E6424890F80406CD
:102D4000217988425DD13F4890F805066179884233
:102D500057D13C4890F80606A179884251D100200D
:102D6000384981F800064CE0A078E0281BD1207992
:102D7000012806D0022805D0102804D0112804D13B
:102D800002E003E002E001E000E000BF00BF2079C4
:102D90008DF818008DF819608DF81A7006A9FF20BB
:102DA0000AF040F92DE0A078E12815D1E07802285A
:102DB00000D0ABE600BF2079617940EA01202149CB
:102DC000A1F8080600211F48C0F80C1600F5C161E3
:102DD000FF200AF099F914E0A078E22811D1E078F8
:102DE000012800DA92E62079164981F801060846A2
:102DF00080F8026680F8037600F20161FF200AF095
:102E000011F900BF82E60000F2010024C001002495
:102E1000D8830024820100249C8100249601002490
:102E2000A80100248801002468840024980100245B
:102E30008E010024A001002400401C46A88100242B
:102E400097010024807B00242DE9FC4104460E46B6
:102E5000002500270EB9BDE8FC81322223496846CF
:102E6000FFF74EFAAA216846FFF763FA3178684601
:102E7000FFF75FFA21466846FFF75BFA00216846D4
:102E8000FFF757FA694620460AF052F9BDF80400E8
:102E9000001F1649C870002007E01449095C294446
:102EA000CDB27919CFB2411C88B2BDF8041081426D
:102EB000F3DC29466846FFF73CFA39466846FFF7D7
:102EC00038FA0B4890F8000640B1E02C06D10848CB
:102ED00080F8044680F8055680F80676BDF80400B0
:102EE000C1B2024800F006F800BFB4E7B88200247F
:102EF000807B002470B504460D4629462046FEF727
:102F0000DBFD70BD2DE9FC4104460F46002500267F
:102F1000A84632223D496846FFF7F2F9AA216846E1
:102F2000FFF707FA39786846FFF703FA2146684643
:102F3000FFF7FFF900216846FFF7FBF969462046D5
:102F40000DF0E4FCBDF80400001F1FFA80F82F49C3
:102F500081F80380002007E02C49095C2944CDB2A8
:102F60007119CEB2411C88B2BDF804108142F3DC65
:102F700029466846FFF7DDF931466846FFF7D9F97B
:102F8000234890F8000640B1E02C06D1204880F894
:102F9000044680F8055680F80666BDF80400C1B204
:102FA0001A4800F043F8B8B1332C05D1194800682D
:102FB000401C1849086026E0342C05D116480068EA
:102FC000401C154908601EE0402C1CD113480068C5
:102FD000401C1249086016E0332C05D110480068E7
:102FE000401C0F4908600EE0342C05D10D480068E4
:102FF000401C0C49086006E0402C04D10A480068D7
:10300000401C09490860BDE8FC8100000C790024DF
:10301000C070002440010024480100245001002415
:10302000440100244C0100245401002470B50446DE
:103030000D4629462046FEF74BFE70BDF8B5044606
:103040000D4616460020009000BF94F8500001285D
:1030500001D10220F8BD012084F8500000BF2046B5
:10306000FDF7CEFE0746A7BB606D20F4885040F008
:1030700002006065206805F4803141F0004106F0EF
:10308000804211438268194B1A401143816000BF8E
:1030900013E00098401C00901549009888420CD31A
:1030A000606D20F0020040F01000606500BF00205D
:1030B00084F8500000BF0120CCE720688168C90F68
:1030C0000029E6D1606D20F0020040F0010060654B
:1030D00004E0FFE7606D40F01000606500BF002075
:1030E00084F8500000BF3846B4E70000C0FFFE3F40
:1030F00000F8C3252DE9F04399B004460E464FF081
:103100000008306800B100BF00BF94F850000128EB
:1031100003D1022019B0BDE8F083012084F85000EB
:1031200000BF00201590169046492068884202D1C1
:103130004548009001E000200090009850B9606D73
:1031400040F02000606500BF002084F8500000BF00
:103150000120DFE700980AF014F9074620680AF01A
:1031600010F9002861D1002F5FD1364920688842CC
:1031700003D035492068884201D1344800E0344802
:103180000546306858B3A86820F440407168084389
:10319000A8602C492068884203D02B4920688842C7
:1031A00001D12A4800E02A482849884209D1254807
:1031B0000AF0D8F8814624480AF0D4F849EA000019
:1031C00002E024480AF0CEF870BBB16830680843CA
:1031D000A96840F61F7291430843A8602BE0A868D5
:1031E00020F44040A86017492068884203D016495F
:1031F0002068884201D1154800E0154813498842EB
:1032000009D110480AF0AEF881460F480AF0AAF832
:1032100049EA000002E00F480AF0A4F820B9A868C3
:1032200040F61F718843A86005E0606D40F0200003
:1032300060654FF0010800BF002084F8500000BF17
:10324000404667E700200240002102400023024080
:1032500000630258006002582DE9F84F04460D46FD
:103260004FF0000A0020009094F83800012800D1A7
:1032700000E000BFF8492068884200D100BFF7494C
:10328000E868884200D00EE0F5492068884200D105
:1032900000BFF4492068884200D100BFEE49206891
:1032A000884200D100BF00BF94F85000012802D12D
:1032B0000220BDE8F88F012084F8500000BF20688C
:1032C0000AF05AF8002870D1286800F00040A8B928
:1032D0002068C1692868C0F3130018B92868C0F3D2
:1032E000846004E0286890FAA0F0B0FA80F000F062
:1032F0001F020120904001432068C1612168D5E987
:10330000002001F1300CC0F3012B0CEB8B03D3F840
:1033100000C000F01F0E4FF01F0B0BFA0EFB2CEA43
:103320000B0C00F01F0BC2F3846E0EFA0BFE4CEA7E
:103330000E0CC3F800C000BF20680AF01DF88146DB
:1033400020680AF000F88046B9F1000F78D1B8F192
:10335000000FFBD12268AB68286802F1140CC0F39F
:10336000406B0CEB8B01D1F800C0C0F3045E4FF052
:10337000070B0BFA0EFB2CEA0B0CC0F3045B03FAF1
:103380000BFB4CEA0B0CC1F800C000BFB64800684C
:1033900000F07040B0F1805F08D168692168C968A9
:1033A000C1F382014900884015E014E22068C0683A
:1033B00000F0100038B968692168C968C1F382015A
:1033C0004900884007E068692168C96801F0100178
:1033D0008908490088400746286904283FD02068AA
:1033E0002A68296900F1600C0CEB8103D3F800C056
:1033F0000CF0004C02F0F84B4BEA070B4CEA0B0CBC
:10340000C3F800C000BF20686A7E2969012A01D183
:10341000D20700E00022134600F1600C0CEB8102A1
:10342000D2F800C02CF0004C4CEA030CC2F800C0EB
:1034300000BF20682B7E2969012B02D1DB0201E04D
:1034400045E000231A46036923F4F04301F01F0C02
:1034500002FA0CFC43EA0C03036100BF37E020686A
:10346000006E00F0F8402978B0EB816F05D120683C
:10347000006E20F00040216808662068406E00F071
:10348000F8402978B0EB816F05D12068406E20F0BC
:103490000040216848662068806E00F0F840297876
:1034A000B0EB816F05D12068806E20F0004021686C
:1034B00088662068C06E00F0F8402978B0EB816F14
:1034C00005D12068C06E20F000402168C8662068E1
:1034D00009F043FF002871D12068EA682968D0F814
:1034E000C030C1F3130C23EA0C0302F0180BDFF811
:1034F0007CC12CFA0BFC0CEA010C43EA0C03C0F86B
:10350000C03000BF5549E868884270D1544B2068EC
:1035100098423DD1564B2A689A4201D1012276E069
:10352000544B2A689A4201D1534A70E0534B2A689F
:103530009A4201D1524A6AE0524B2A689A4201D11A
:10354000514A64E0514B2A689A4201D1504A5EE0E8
:10355000504B2A689A4201D14F4A58E04E4B2A6894
:103560009A4201D14D4A52E04C4B2A689A4201D10D
:103570004B4A4CE04B4B2A689A4201D14A4A46E0FA
:103580004A4B2A689A4201D1494A40E000223EE073
:10359000344B22689A4239D1354B2A689A4201D17C
:1035A000012234E0334B2A689A4201D1324A2EE09C
:1035B000324B2A689A4202D1314A28E0B3E0314BBB
:1035C0002A689A4201D1304A21E0304B2A689A4257
:1035D00001D12F4A1BE02F4B2A689A4201D12E4A73
:1035E00015E02D4B2A689A4202D12C4A0FE023E0C5
:1035F0002A4B2A689A4201D1294A08E02B4B2A68B3
:103600009A4201D12A4A02E0002200E0002211463B
:10361000C369C1F3130212B9C1F3846203E091FAE2
:10362000A1F2B2FA82F202F01F0C012202FA0CF2AD
:103630001343C36100BF00BF286800F000400028AA
:1036400071D0074A2168914203D0064A216891420D
:1036500032D1184931E00000006002580000FF47F5
:1036600000200240002102400010005CFFFF0F001C
:103670000200300404006008400020190800900C8B
:103680008000501D1000C010000180212000F014A7
:103690000002B0250004002A0008302E001060321D
:1036A0000020903600002143000052470000844B68
:1036B0000000B84F002302404D490846816801F0E0
:1036C000E07600BF4B492068884203D04A49206811
:1036D000884201D1494800E045484849884209D11B
:1036E000444809F03AFE8346434809F036FE4BEA67
:1036F000000002E0424809F030FEE8BB414928687A
:10370000884227D106F4000020BB3D49206888424A
:1037100067D1384B22689A4203D0374B22689A42CD
:1037200002D1364A01E032E0314A104646F4000147
:1037300009F03EFE344800683449B0FBF1F0401C0B
:103740004000009002E00098401E00900098002881
:10375000F9D146E02E492868884219D106F08070D8
:10376000B0B92749206888423BD1224B22689A424F
:1037700005D0214B226800E026E09A4201D11F4A81
:1037800000E01B4A104646F0807109F011FE28E067
:1037900020492868884224D106F4800008BB1849D3
:1037A000206888421DD1134B22689A4203D0124BE5
:1037B00022689A4201D1114A00E00D4A104646F4AF
:1037C000800109F0F5FD0CE0606D40F020006065BF
:1037D0004FF0010A05E0606D40F0200060654FF099
:1037E000010A00BF002084F8500000BF504660E589
:1037F00000630258002002400021024000230240E2
:1038000000600258000084CB30000024400D03000B
:10381000000052C70000B8CF7047704770470000E3
:103820002DE9F84F04464FF000090020009014B92C
:103830000120BDE8F88FE06818B1207F012800D191
:1038400000BF606D30B9204600F030F90020A0655F
:1038500084F8500020688168C1F3407131B120685C
:103860008168874A1140816000BF00BF206809F06D
:103870007EFDA8B920688168824A114041F08051DC
:10388000816000BF804800688049B0FBF1F0401CB7
:10389000009002E00098401E009000980028F9D1A6
:1038A000206809F064FD48B9606D40F01000606563
:1038B000A06D40F00100A0654FF00109206809F0FB
:1038C0005BFD0646606D00F0100000287ED1002EE2
:1038D000FCD1606D20F4807040F0020060652068CB
:1038E00009F03BFD78BB6A492068884203D06949EA
:1038F0002068884201D1684800E0684866498842EB
:1039000009D1634809F029FD8246624809F025FD86
:103910004AEA000002E0624809F01FFD98B95C4BDA
:1039200022689A4203D05B4B22689A4201D15A4ADC
:1039300000E05A4A10466168826822F47C120A4309
:10394000826000BF00BF02F0DFF941F2030188424C
:103950000ED9A06810280BD1607D216B41EA403060
:10396000A168084340F00C01207F41EA004508E0CF
:10397000607D216B41EA4030A1680843217F40EA25
:103980000145207F012803D1208C401E45EA404597
:10399000606A28B1A08C00F47870A16A08430543DE
:1039A0002068C0683F49084028432168C8602068F3
:1039B00009F0E2FC8046206809F0C5FC0746B8F132
:1039C000000F3BD1D7BB207DE16A00E050E041EA27
:1039D00080352068C06844F2030188432843216889
:1039E000C86094F83800012817D1606A08B1A06A4D
:1039F00000B900BFA08F401E012141EA0041206CA8
:103A00000843616C0843A16C084321680969264A90
:103A1000114008432168086105E02068006920F032
:103A20000100216808612068006920F07040616B26
:103A30000843216808612046FDF742F8E068012844
:103A400009D12068006B20F00F00A169491E0843CE
:103A50002168086305E02068006B20F00F002168F2
:103A60000863606D20F0020040F00100606505E031
:103A7000606D40F0100060654FF001094846D8E6DF
:103A8000C0FFFF5FC0FFFF7F30000024400D030038
:103A9000002002400021024000230240006302583F
:103AA0000060025803C0F0FF1EF800FC10B586B09D
:103AB0000446142101A8FCF710FF554920688842EC
:103AC0004FD154480068401C5249086008460068BD
:103AD00001280DD100BF5048006840F020004E4939
:103AE00008600846006800F02000009000BF00BF9A
:103AF00000BF49480830006840F0020046490831DC
:103B000008600846006800F00200009000BF00BF97
:103B100001200190032002900020039001A93F485A
:103B200001F0DEFF3E483F4908600920486000215F
:103B30003C488160C1604FF480610161490041618E
:103B4000890081614911C16100210162416201F076
:103B500033FB08B1FEF7EEFA00BF3248E06484633D
:103B600054E031492068884250D12A480068401CFE
:103B7000284908600846006801280DD100BF264882
:103B8000006840F02000244908600846006800F002
:103B90002000009000BF00BF00BF1F480830006831
:103BA00040F004001C49083108600846006800F035
:103BB0000400009000BF00BF20200190032002906D
:103BC0000020039001A9194801F08AFF1448183811
:103BD000174908600A204860002115488160C160CB
:103BE0004FF480610161490041618900816149119F
:103BF000C16100210162416201F0DEFA08B1FEF705
:103C000099FA00BF0A48E064846300BF06B010BDA3
:103C1000002002401C000024D8440258000402582E
:103C20004004024010030024002102400008025812
:103C3000880300242DE9F04104460F469046434A8C
:103C40002168914203D0424A2168914201D1414901
:103C500000E04149084609F071FB0646206809F07A
:103C60008BFB00286ED100BF94F85000012802D1D0
:103C70000220BDE8F081012084F8500000BF1EB191
:103C8000052E01D0092E57D12046FDF703F9054630
:103C9000002D4CD1606D40F60161884340F4807086
:103CA00060652B492068884201D1284800E02068DF
:103CB0002168884200D01EB9606D20F480106065D4
:103CC000606D00F4805020B1A06D20F00600A0656A
:103CD00001E00020A0652148E16CC8632048E16C48
:103CE00008642048E16CC8641C202168086000BF9B
:103CF000002084F8500000BF2068406840F01000A9
:103D000021684860E16A2068C26822F003020A4321
:103D1000C26000BF226802F1400143463A46E06CAF
:103D200001F0DAFC0546206809F03AFB0BE000BF21
:103D3000002084F8500006E0012500BF002084F830
:103D4000500000E00225284693E7000000200240D2
:103D5000002102400023024000630258410D000888
:103D6000F10D0008D30D000870B5044600BF94F8AB
:103D70005000012801D1022070BD012084F85000BC
:103D800000BF03212046FCF74DFF054655B92046EC
:103D9000FDF736F805462DB9606D20F4885040F0E7
:103DA0000100606500BF002084F8500000BF284675
:103DB000E2E770B5044600BF94F85000012801D135
:103DC000022070BD012084F8500000BF032120466E
:103DD000FCF728FF05464DBB2068C06820F00300B3
:103DE0002168C860E06C90F83500022808D1E06CCA
:103DF00000F024F805461DB1606D40F0400060659C
:103E00002068406820F010002168486025B92046ED
:103E1000FCF7F6FF054602E02046FCF7F1FF2DB95E
:103E2000606D20F4885040F00100606500BF002004
:103E300084F8500000BF2846C3E700002DE9F04198
:103E4000044601F067FF804614B90120BDE8F08107
:103E500094F83500022808D08020606500BF00205B
:103E600084F8340000BF0120F0E7FE492068884252
:103E700049D0FC4918312068884244D0F949303192
:103E8000206888423FD0F7494831206888423AD0BC
:103E9000F44960312068884235D0F2497831206891
:103EA000884230D0EF499031206888422BD0ED49CC
:103EB000A8312068884226D0EB492068884222D069
:103EC000E9491831206888421DD0E749303120681F
:103ED000884218D0E44948312068884213D0E2492A
:103EE0006031206888420ED0DF49783120688842EE
:103EF00009D0DD4990312068884204D0DA49A831E0
:103F00002068884206D12068006820F001002168FE
:103F1000086005E02068006820F001002168086062
:103F2000D0492068884249D0CE491831206888425B
:103F300044D0CC493031206888423FD0C94948310B
:103F4000206888423AD0C74960312068884235D01D
:103F5000C44978312068884230D0C2499031206805
:103F600088422BD0BF49A8312068884226D0BE495C
:103F70002068884222D0BC491831206888421DD070
:103F8000B94930312068884218D0B7494831206893
:103F9000884213D0B4496031206888420ED0B249BB
:103FA00078312068884209D0AF4990312068884232
:103FB00004D0AD49A8312068884201D1012000E039
:103FC000002068B12068006820F01E0021680860A9
:103FD0002068406920F0800021684861256806E07B
:103FE0002068006820F00E002168086025689D495F
:103FF0002068884270D09B491831206888426BD075
:10400000984930312068884266D096494831206806
:10401000884261D093496031206888425CD09149E0
:1040200078312068884257D08E4990312068884284
:1040300052D08C49A831206888424DD08A492068E6
:10404000884249D0884918312068884244D086493E
:104050003031206888423FD0834948312068884207
:104060003AD0814960312068884235D07E49783124
:104070002068884230D07C499031206888422BD01B
:104080007949A8312068884226D07849206888423A
:1040900022D076491431206888421DD073492831D6
:1040A0002068884218D071493C312068884213D07A
:1040B0006E495031206888420ED06C4964312068C6
:1040C000884209D0694978312068884204D067491C
:1040D0008C312068884201D1012000E0002028B105
:1040E000206E006820F48070216E086011E001F0FD
:1040F00011FEA0EB080005280BD9202060650320E5
:1041000084F8350000BF002084F8340000BF01208F
:104110009CE6286800F001000028E8D15149206899
:10412000884249D04F4918312068884244D04D49CF
:104130003031206888423FD04A494831206888425F
:104140003AD0484960312068884235D045497831B5
:104150002068884230D043499031206888422BD073
:104160004049A8312068884226D03F4920688842CB
:1041700022D03D491831206888421DD03A4930315B
:104180002068884218D0384948312068884213D0C6
:1041900035496031206888420ED033497831206833
:1041A000884209D0304990312068884204D02E4995
:1041B000A8312068884201D1012000E0002040B1F0
:1041C000A66D94F85C0000F01F013F208840B060AD
:1041D00007E0A76D94F85C0000F01F010120884003
:1041E000786020492068884276D01E4918312068BE
:1041F000884271D01B493031206888426CD01949FF
:1042000048312068884267D016496031206888426A
:1042100062D014497831206888425DD011499031CC
:104220002068884258D00F49A8312068884253D06E
:104230000D49206888424FD00B49183120688842C8
:104240004AD0094930312068884245D00649483172
:104250002068884240D004496031206888423BD0C1
:10426000014905E0100002401004024008540258C1
:104270007831206888422FD02549206888422BD089
:10428000234918312068884226D022492068884274
:1042900022D020491431206888421DD01D49283180
:1042A0002068884218D01B493C312068884213D0CE
:1042B00018495031206888420ED016496431206870
:1042C000884209D0134978312068884204D01149C6
:1042D0008C312068884201D1012000E0002068B1C3
:1042E000D4E919104860E06E40B1E06E006820F437
:1042F0008070E16E0860D4E91C104860012084F8E9
:10430000350000BF002084F8340000BF00BF9DE5E9
:10431000A00402400854025870B504460CB90120AC
:1043200070BD94F83500022803D08020606501201C
:10433000F6E7DC492068884249D0DA49183120681C
:10434000884244D0D7493031206888423FD0D5498F
:104350004831206888423AD0D2496031206888428A
:1043600035D0D04978312068884230D0CD4990315D
:10437000206888422BD0CB49A8312068884226D0BB
:10438000C9492068884222D0C7491831206888422C
:104390001DD0C54930312068884218D0C249483103
:1043A0002068884213D0C0496031206888420ED00E
:1043B000BD4978312068884209D0BB4990312068D6
:1043C000884204D0B849A8312068884201D1012030
:1043D00000E00020F0B3042084F83500B1492068E3
:1043E00088424BD0AF4918312068884246D0AD4949
:1043F00030312068884241D0AA494831206888423B
:104400003CD0A84960312068884237D0A54978312E
:104410002068884232D0A3499031206888422DD04C
:10442000A049A8312068884228D09F492068884246
:1044300024D09D491831206888421FD09A493031D4
:10444000206888421AD0984948312068884215D09F
:10445000954900E020E06031206888420ED0924902
:1044600078312068884209D08F499031206888428D
:1044700004D08D49A8312068884206D120680068A0
:1044800020F001002168086009E12068006820F040
:1044900001002168086002E182492068884249D011
:1044A000804918312068884244D07E4930312068E4
:1044B00088423FD07B494831206888423AD07949C8
:1044C00060312068884235D076497831206888424A
:1044D00030D074499031206888422BD07149A8317E
:1044E0002068884226D070492068884222D06E49D0
:1044F0001831206888421DD06B49303120688842CD
:1045000018D0694948312068884213D06649603123
:10451000206888420ED0644978312068884209D0EA
:10452000614990312068884204D05F49A8312068F1
:10453000884206D12068006820F0010021680860E8
:1045400005E02068006820F001002168086020680C
:10455000006820F00E0021680860524920688842F7
:1045600070D050491831206888426BD04D493031A5
:104570002068884266D04B4948312068884261D023
:1045800048496031206888425CD0464978312068CB
:10459000884257D0434990312068884252D04149DF
:1045A000A831206888424DD03F492068884249D0D0
:1045B0003D4918312068884244D03B493031206859
:1045C00088423FD038494831206888423AD036493D
:1045D00060312068884235D033497831206888427C
:1045E00030D031499031206888422BD02E49A831F3
:1045F0002068884226D02D492068884222D02B4945
:104600001431206888421DD028492831206888420A
:1046100018D026493C312068884213D023495031B4
:10462000206888420ED0214964312068884209D030
:104630001E4978312068884204D01C498C3120689A
:10464000884201D1012000E00020D8B1206E00682E
:1046500020F48070216E0860A56D94F85C0000F075
:104660001F01012088406860D4E919104860E06E9D
:1046700040B1E06E006820F48070E16E0860D4E91B
:104680001C104860012084F8350000BF002084F829
:10469000340000BF206D10B12046216D88470020F6
:1046A0003EE6000010000240100402400854025888
:1046B0000146486D7047014691F83500704700008B
:1046C0002DE9F84F044600200090FE4800684FF4A2
:1046D0001651B0FBF1FAA66DD4F858803768D8F8B7
:1046E0000090F9492068884249D0F749183120687C
:1046F000884244D0F4493031206888423FD0F249A2
:104700004831206888423AD0EF49603120688842B9
:1047100035D0ED4978312068884230D0EA4990316F
:10472000206888422BD0E849A8312068884226D0EA
:10473000E6492068884222D0E4491831206888423E
:104740001DD0E24930312068884218D0DF49483115
:104750002068884213D0DD496031206888420ED03D
:10476000DA4978312068884209D0D84990312068E8
:10477000884204D0D549A8312068884201D101205F
:1047800000E0002000287DD094F85C0000F01F01BC
:10479000082088403840002868D0CB4920688842EB
:1047A00049D0C94918312068884244D0C6493031BF
:1047B000206888423FD0C4494831206888423AD0B6
:1047C000C14960312068884235D0BF4978312068BE
:1047D000884230D0BC499031206888422BD0BA49F9
:1047E000A8312068884226D0B8492068884222D063
:1047F000B6491831206888421DD0B449303120684C
:10480000884218D0B14948312068884213D0AF4956
:104810006031206888420ED0AC49783120688842E7
:1048200009D0AA4990312068884204D0A749A8310C
:104830002068884204D12068006800F0040003E08A
:104840002068006800F0080080B12068006820F04F
:1048500004002168086094F85C0000F01F01082043
:104860008840B060606D40F00100606594F85C00C5
:1048700000F01F01012088403840E8B392492068C9
:10488000884200E0B7E24BD08F4918312068884257
:1048900046D08D4930312068884241D08A4948311C
:1048A000206888423CD0884960312068884237D0EF
:1048B000854978312068884232D083499031206818
:1048C00088422DD08049A8312068884228D07F496D
:1048D0002068884224D07D491831206888421FD042
:1048E0007A493031206888421AD0784948312068A6
:1048F000884215D0754900E026E060312068884282
:104900000ED0724978312068884209D06F499031C1
:104910002068884204D06D49A8312068884204D1BB
:104920002068406900F0800002E0206800680020F4
:1049300050B194F85C0000F01F0101208840B06085
:10494000606D40F00200606594F85C0000F01F01AB
:10495000042088403840E8B35B49206888424BD047
:10496000594918312068884246D05749303120686B
:10497000884241D054494831206888423CD052494D
:1049800060312068884237D04F49783120688842AA
:1049900032D04D499031206888422DD04A49A83103
:1049A0002068884228D049492068884224D0474955
:1049B0001831206888421FD044493031206888422D
:1049C0001AD0424948312068884215D03F496031A9
:1049D000206800E024E088420ED03C49783120680D
:1049E000884209D0394990312068884204D037493B
:1049F000A8312068884204D12068006800F00200D5
:104A000002E020680068002050B194F85C0000F0DB
:104A10001F0104208840B060606D40F004006065B4
:104A200094F85C0000F01F01102088403840E8B383
:104A300025492068884251D023491831206888428E
:104A40004CD0214930312068884247D01E49483136
:104A50002068884242D01C496031206888423DD09D
:104A6000194978312068884238D017499031206838
:104A7000884233D01449A831206888422ED0134987
:104A8000206888422AD0114918312068884225D0F0
:104A90000E4930312068884220D00C4948312068C6
:104AA00088421BD009496031206800E04DE088420F
:104AB00014D006497831206888420FD003499031DC
:104AC000206805E03000002410000240100402407D
:104AD000884203D0FE492068884204D120680068DB
:104AE00000F0080003E02068006800F0040060B3F4
:104AF00094F85C0000F01F0110208840B06020682E
:104B0000006800F4802080B12068006800F4002074
:104B100028B9206CC8B12046216C884715E0A06CEC
:104B200098B12046A16C88470FE02068006800F427
:104B3000807028B92068006820F0080021680860AB
:104B4000206C10B12046216C884794F85C0000F07E
:104B50001F0120208840384000287DD0DD49206892
:104B6000884249D0DB4918312068884244D0D9496D
:104B70003031206888423FD0D64948312068884289
:104B80003AD0D44960312068884235D0D149783153
:104B90002068884230D0CF499031206888422BD09D
:104BA000CC49A8312068884226D0C949A839206854
:104BB000884221D0C6499039206888421CD0C44917
:104BC00078392068884217D0C14960392068884206
:104BD00012D0BF494839206888420DD0BC493039CD
:104BE0002068884208D0BA4918392068884203D022
:104BF000B7492068884204D12068006800F010009E
:104C000003E02068006800F0020028B394F85C001C
:104C100000F01F0120208840B06094F8350004287F
:104C20002DD12068006820F01600216808602068F7
:104C3000406920F0800021684861206C08B9A06CB0
:104C400028B12068006820F008002168086094F806
:104C50005C0000F01F0100E03FE03F208840B060B2
:104C6000012084F8350000BF002084F8340000BF24
:104C7000206D10B12046216D8847BDE8F88F20686F
:104C8000006800F4802080B12068006800F40020F3
:104C900028B1606C08B32046616C88471DE0E06B6A
:104CA000D8B12046E16B884717E02068006800F41F
:104CB000807068B92068006820F0100021680860E2
:104CC000012084F8350000BF002084F8340000BFC4
:104CD000E06B10B12046E16B8847606D00287AD008
:104CE000606D00F00100E8B3042084F835007949D4
:104CF000206888424BD0774918312068884246D0D6
:104D0000744930312068884241D072494831206866
:104D100088423CD06F4960312068884237D06D4965
:104D200078312068884232D06A49903120688842C0
:104D30002DD06849A8312068884228D06449A83914
:104D40002068884223D062499039206888421ED06A
:104D50005F4978392068884219D05D4960392068F8
:104D6000884200E040E012D0594948392068884222
:104D70000DD0574930392068884208D05449183935
:104D80002068884203D052492068884206D12068B2
:104D9000006820F001002168086005E020680068D4
:104DA00020F001002168086000BF0098401C0090BE
:104DB000504500D905E02068006800F00100002897
:104DC000F3D100BF2068006800F0010020B103208B
:104DD00084F8350003E00DE0012084F8350000BFC1
:104DE000002084F8340000BFE06C002802D0204688
:104DF000E16C8847D9E138492068884222D0364999
:104E00001431206888421DD03349283120688842F7
:104E100018D031493C312068884213D02E49503196
:104E2000206888420ED02C4964312068884209D01D
:104E3000294978312068884204D027498C3120687C
:104E4000884201D1012000E000200028D2D0206853
:104E5000056894F85C0000F01F010420884000EA17
:104E60000900D8B305F00400C0B394F85C0000F06A
:104E70001F0104208840C8F8040005F4004080B1F8
:104E800005F4803030B1A06C0028B3D02046A16C6E
:104E900088478AE1206C0028ACD02046216C8847E6
:104EA00083E105F02000E8BB0A492068884253D01E
:104EB00008491831206888424ED0064930312068B0
:104EC000884249D0034948312068884244D006E0EE
:104ED000B804024010000240085402584FE0B449A0
:104EE00060312068884237D0B149783120688842E3
:104EF00032D0AF499031206888422DD0AC49A831DA
:104F00002068884228D0AB492068884224D0A9492B
:104F10001831206888421FD0A64930312068884265
:104F20001AD000E025E0A34948312068884213D018
:104F3000A0496031206888420ED09E4978312068AF
:104F4000884209D09B4990312068884204D0994911
:104F5000A8312068884206D12068006820F0080047
:104F60002168086005E02068006820F004002168DE
:104F70000860206C10B32046216C884715E194F836
:104F80005C0000F01F010220884000EA0900E8B33D
:104F900005F00200D0B394F85C0000F01F0102207D
:104FA0008840C8F8040005F4004070B105F4803072
:104FB00028B9606C10B12046616C8847F5E0E06B61
:104FC000F0B32046E16B8847EFE005F02000C0BB5E
:104FD0007749206888424ED0754918312068884248
:104FE00049D0734930312068884244D070494831F3
:104FF000206888423FD06E496031206888423AD0AC
:105000006B4978312068884235D000E04EE068492D
:105010009031206888422ED06549A83120688842A6
:1050200029D064492068884225D062491831206817
:10503000884220D05F493031206888421BD001E08F
:105040006EE02DE05B4948312068884213D0594911
:105050006031206888420ED05649783120688842F5
:1050600009D0544990312068884204D05149A83170
:105070002068884206D12068006820F0140021686A
:10508000086005E02068006820F00A0021680860D8
:10509000012084F8350000BF002084F8340000BFF0
:1050A000E06BE8B32046E16B88477EE094F85C0053
:1050B00000F01F010820884000EA090080B305F0D5
:1050C000080068B33A49206888424BD03849183103
:1050D0002068884246D0364930312068884241D025
:1050E00033494831206888423CD0314960312068DA
:1050F000884237D02E4978312068884232D02C49F6
:105100009031206888422DD02949A83120688842F2
:1051100028D028492068884224D02649183100E048
:1051200043E0206888421DD02249303120688842FF
:1051300018D0204948312068884213D01D49603179
:10514000206888420ED01B4978312068884209D0F7
:10515000184990312068884204D01649A831206847
:10516000884206D12068006820F01C002168086091
:1051700005E02068006820F00E002168086094F8BF
:105180005C0000F01F0101208840C8F804000120E5
:10519000606584F8350000BF002084F8340000BF4B
:1051A000E06C10B12046E16C884700BF65E5000067
:1051B00010000240100402402DE9F041044600F0C6
:1051C000A9FD804614B90120BDE8F081FE492068A0
:1051D000884249D0FC4918312068884244D0FA49B5
:1051E0003031206888423FD0F749483120688842F2
:1051F0003AD0F54960312068884235D0F24978319B
:105200002068884230D0F0499031206888422BD005
:10521000ED49A8312068884226D0EC4920688842B0
:1052200022D0EA491831206888421DD0E749303140
:105230002068884218D0E54948312068884213D058
:10524000E2496031206888420ED0E0497831206818
:10525000884209D0DD4990312068884204D0DB497A
:10526000A8312068884201D1012000E000200028F8
:1052700073D0606A00B100BF022084F8350000BF1F
:10528000002084F8340000BFCF492068884249D00C
:10529000CD4918312068884244D0CB49303120684C
:1052A00088423FD0C8494831206888423AD0C64930
:1052B00060312068884235D0C349783120688842FF
:1052C00030D0C1499031206888422BD0BE49A831E6
:1052D0002068884226D0BD492068884222D0BB4938
:1052E0001831206888421DD0B84930312068884282
:1052F00018D0B64948312068884213D0B34960318C
:10530000206888420ED0B14978312068884209D09F
:10531000AE4990312068884204D0AC49A831206859
:10532000884206D12068006820F0010021680860EA
:1053300005E02068006820F00100216808600DE0A9
:1053400000F0E8FCA0EB0800052807D920206065E4
:10535000032084F83500012036E76AE02068006801
:1053600000F001000028EBD120680568984805404E
:10537000D4E9020108432169084361690843A1692E
:105380000843E1690843216A08430543606A042829
:1053900003D1D4E90B01084305438E4800686FF33D
:1053A0000F00B0F1005F1DD36068292802D3606848
:1053B0002E2811D960683F2802D3606842280BD993
:1053C0006068472802D36068482805D960684F287C
:1053D00004D36068522801D8012000E0002008B101
:1053E00045F48015206805602068456925F00705AB
:1053F000606A0543606A04280DD1A06A0543E06A2B
:1054000048B12046FBF7AAFF28B140206065012083
:1054100084F83500D8E6206845612046FBF77AFE1F
:10542000064694F85C0000F01F013F208840B06001
:105430009EE069492068884222D06749143120687B
:1054400088421DD0644928312068884218D06249BA
:105450003C312068884213D05F495031206888422F
:105460000ED05D4964312068884209D05A497831AC
:105470002068884204D058498C312068884201D184
:10548000012000E00020E0B353492068884222D088
:1054900051491431206888421DD04F492831206875
:1054A000884218D04C493C312068884213D04A4980
:1054B0005031206888420ED04749643120688842C4
:1054C00009D0454978312068884204D042498C315E
:1054D0002068884201D1012000E0002000B100BF17
:1054E000022084F8350000BF002084F8340000BF9B
:1054F0002068056839480540A068402802D110217D
:1055000006E02EE0A068802801D1C10100E0002162
:10551000E06841EAD001206941EAD001606941EACE
:10552000D001A06941EAD001E06941EAD001206AD6
:1055300041EA101005432068056027492068401A99
:105540001421B0FBF1F08000E0652046FBF7E2FD9E
:10555000074694F85C0000F01F0101208840786045
:1055600006E040206065032084F8350001202BE62A
:105570001549206888427FD0134918312068884235
:105580007AD0114930312068884275D00E494831AF
:105590002068884270D00C496031206888426BD006
:1055A000094978312068884266D0074990312068DF
:1055B000884261D00449A831206888425CD0034900
:1055C0002068884258D00BE01000024010040240CE
:1055D0003F8010FE0010005C085402580F00FEFFD0
:1055E0003B4918312068884246D03949303120681B
:1055F000884241D036494831206888423CD03449FD
:1056000060312068884237D031497831206888423B
:1056100032D02F499031206888422DD02C49A831B2
:105620002068884228D02B492068884224D0294904
:105630001431206888421FD02649283120688842CA
:105640001AD024493C312068884215D02149503174
:105650002068884210D01F496431206888420BD0EE
:105660001C4978312068884206D01A498C3120685C
:10567000884200E000E001D1012000E0002000B3FA
:105680002046FBF7BDFDA068802801D100206060A6
:105690002079216E0860D4E919104860606860B113
:1056A0006068082809D82046FBF70CFE0020E16E50
:1056B0000860D4E91C10486003E00020E066206721
:1056C000606700206065012084F8350000207BE5DC
:1056D00010040240085402582DE9F04104460D46DA
:1056E00016461F464FF0000814B90120BDE8F081AE
:1056F00000BF94F83400012801D10220F6E7012010
:1057000084F8340000BF94F8350001287ED10220CF
:1057100084F8350000206065E4492068884249D05B
:10572000E24918312068884244D0E049303120688D
:1057300088423FD0DD494831206888423AD0DB4971
:1057400060312068884235D0D84978312068884255
:1057500030D0D6499031206888422BD0D349A83127
:105760002068884226D0D2492068884222D0D04979
:105770001831206888421DD0CD49303120688842D8
:1057800018D0CB4948312068884213D0C8496031CD
:10579000206888420ED0C64978312068884209D0F6
:1057A000C34990312068884204D0C149A83120689B
:1057B000884206D12068006820F001002168086056
:1057C00005E02068006820F00100216808603B4681
:1057D000324629462046FBF719FEB4492068884224
:1057E0004BD0B24918312068884246D0AF49303199
:1057F0002068884241D0AD494831206888423CD079
:10580000AA4960312068884237D000E042E1A749C8
:1058100078312068884230D0A4499031206888428D
:105820002BD0A249A8312068884226D0A049206800
:10583000884222D09E491831206888421DD09C4958
:1058400030312068884218D0994948312068884210
:1058500013D097496031206888420ED0944978313E
:105860002068884209D0924990312068884204D04B
:105870008F49A8312068884201D1012000E0002032
:1058800080B12068006820F01E0040F016002168FA
:105890000860206CB0B12068006840F00800216802
:1058A00008600FE02068006820F00E0040F00A0059
:1058B00021680860206C28B12068006840F004006E
:1058C0002168086079492068884270D0774918318A
:1058D000206888426BD0754930312068884266D094
:1058E000724948312068884261D07049603120682F
:1058F00088425CD06D4978312068884257D06B4926
:1059000090312068884252D06849A8312068884286
:105910004DD067492068884249D0654918312068D0
:10592000884244D062493031206888423FD0604983
:105930004831206888423AD05D4960312068884209
:1059400035D05B4978312068884230D05849903151
:10595000206888422BD05649A8312068884226D03A
:1059600054492068884222D0524914312068884224
:105970001DD0504928312068884218D04D493C310B
:105980002068884213D04B495031206888420ED09D
:10599000484964312068884209D0464978312068F6
:1059A000884204D043498C312068884201D10120CB
:1059B00000E0002090B1206E006800F4803028B133
:1059C000206E006840F48070216E0860E06E28B19F
:1059D000E06E006840F48070E16E08603349206832
:1059E000884249D0314918312068884244D02F4933
:1059F0003031206888423FD02C49483120688842A5
:105A00003AD02A4960312068884235D02749783118
:105A10002068884230D025499031206888422BD0B8
:105A20002249A8312068884226D02149206888422E
:105A300022D01F491831206888421DD01C493031BE
:105A40002068884218D01A4948312068884213D00B
:105A500017496031206888420ED015497831206896
:105A6000884209D0124990312068884204D01049F8
:105A7000A8312068884206D12068006840F0010003
:105A80002168086010E02068006840F0010021688B
:105A9000086009E04FF40060606500BF002084F8F2
:105AA000340000BF4FF0010840461FE610000240DE
:105AB000100402400854025870B5044600F02AF958
:105AC00006462546681C10B104480078054400BF0E
:105AD00000F020F9801BA842FAD370BD2C000024EE
