:020000040800F2
:1000000078C200243904000899EA000897C2000861
:1000100095EA0008990C000845320108000000002C
:10002000000000000000000000000000790300084C
:100030004514000800000000D5030008A9160108B7
:100040005704000857040008570400085704000824
:100050005704000857040008570400085704000814
:10006000570400085704000857040008090D000849
:10007000190D0008290D0008390D0008490D000868
:10008000590D0008690D00085704000857040008BE
:1000900057040008570400085704000857040008D4
:1000A00057040008570400085704000857040008C4
:1000B00057040008E118010857040008ADC2000801
:1000C0009DC20008570400085704000857040008A0
:1000D00057040008392D0108492D0108592D010840
:1000E00057040008570400080000000057040008E7
:1000F00057040008F118010857040008790D00089A
:10010000570400085704000857040008B10A010802
:10011000791F0108891F01085704000857040008C7
:10012000890D0008990D0008A90D0008B90D0008F7
:10013000C90D0008570400085704000857040008B8
:1001400000000000000000000000000000000000AF
:10015000D90D0008E90D0008F90D0008692D010806
:100160005704000857040008570400085704000803
:100170005704000857040008570400080000000056
:100180005704000857040008991F0108A91F010817
:1001900057040008570400085704000857040008D3
:1001A00057040008570400085704000857040008C3
:1001B00057040008570400085704000857040008B3
:1001C00057040008570400085704000857040008A3
:1001D0005704000857040008570400085704000893
:1001E0005704000857040008570400085704000883
:1001F0005704000857040008570400085704000873
:100200005704000857040008570400085704000862
:1002100057040008C1180108D11801085704000844
:1002200057040008570400085704000800000000A5
:100230005704000857040008000000005704000895
:100240005704000857040008570400085704000822
:100250005704000857040008570400085704000812
:100260005704000857040008570400085704000802
:100270005704000857040008570400080000000055
:100280005704000857040008570400080000000045
:10029000000000005704000800F002F800F05CF8CD
:1002A0000AA090E8000C82448344AAF10107DA45D1
:1002B00001D100F051F8AFF2090EBAE80F0013F0C7
:1002C000010F18BFFB1A43F001031847587D0100C6
:1002D000787D01000A444FF0000C10F8013B13F048
:1002E000070408BF10F8014B1D1108BF10F8015B8F
:1002F000641E05D010F8016B641E01F8016BF9D182
:1003000013F0080F1EBF10F8014BAD1C0C1B09D1D8
:100310006D1E58BF01F801CBFAD505E014F8016B4A
:1003200001F8016B6D1EF9D59142D6D370470000DC
:100330000023002400250026103A28BF78C1FBD8EE
:10034000520728BF30C148BF0B6070471FB517F078
:1003500005F81FBD10B510BD00F0EAF91146FFF712
:10036000F5FF14F0C0FA00F008FA03B4FFF7F2FF4B
:1003700003BC14F008FA00002C4B19680868B0E8B8
:10038000F04F80F30988BFF36F8F4FF0000080F3C8
:10039000118870470000000008480068006880F37A
:1003A00008884FF0000080F3148862B661B6BFF38E
:1003B0004F8FBFF36F8F00DF00BF00BF08ED00E07D
:1003C000DFF80C00016841F470010160704700BF64
:1003D00088ED00E0EFF30980BFF36F8F134B1A68CD
:1003E0001EF0100F08BF20ED108A20E9F04F1060BA
:1003F00009B44FF0500080F31188BFF34F8FBFF363
:100400006F8F15F023FE4FF0000080F3118809BCB8
:1004100019680868B0E8F04F1EF0100F08BFB0EC84
:10042000108A80F30988BFF36F8F7047340000246F
:10043000EFF30580704700000A4880470A4880476C
:100440000A480047FEE7FEE7FEE7FEE7FEE7FEE7B5
:10045000FEE7FEE7FEE7FEE705480649064A074BCA
:100460007047000005290008991701089902000843
:100470007892002478C2002478A2002478A2002474
:10048000704753EA020C00F069802DE9F04B4FF001
:100490000006002B1FBFB3FA83F503FA05F424FA14
:1004A00005F65E4012BF1643B2FA82F502FA05F471
:1004B000C5F120051EBF22FA05FC44EA0C042035D4
:1004C00056EA044C4FEA144418BF641C4FF000086D
:1004D0004FF00009904271EB030C39D3002919BF8A
:1004E000B1FA81F701FA07F6B0FA80F700FA07F6D9
:1004F000C7F120071EBF20FA07FC46EA0C0620378A
:10050000B6FBF4FCA7EB0507103F07F01F0BCBF180
:1005100020060CFA0BFB2CFA06F644BFB346002665
:10052000202FA4BF5E464FF0000B5BEA060C08BF0D
:100530004FF0010B19EB0B09ABFB027C48EB0608F3
:10054000C01B06FB02CC0BFB03CC71EB0C01C1E71B
:100550000B46024641464846BDE8F08B13B54FF0C6
:1005600000004FF00001AFF30080BDE81C40704771
:10057000032A40F2308010F0030C00F0158011F8CF
:10058000013BBCF1020F624498BF11F801CB00F8A7
:10059000013B38BF11F8013BA2F1040298BF00F8FB
:1005A00001CB38BF00F8013B11F0030300F02580B8
:1005B000083AC0F0088051F8043B083A51F804CBDF
:1005C000A0E80810F5E7121D5CBF51F8043B40F8A5
:1005D000043BAFF30080D20724BF11F8013B11F8B0
:1005E00001CB48BF11F8012B24BF00F8013B00F8F4
:1005F00001CB48BF00F8012B704710B5203AC0F07E
:100600000B80B1E81850203AA0E81850B1E8185013
:10061000A0E81850BFF4F5AF5FEA027C24BFB1E850
:100620001850A0E8185044BF18C918C0BDE81040C1
:100630005FEA827C24BF51F8043B40F8043B08BFCA
:100640007047D20728BF31F8023B48BF11F8012B91
:1006500028BF20F8023B48BF00F8012B704702F08A
:10066000FF0343EA032242EA024200F002B84FF0DD
:1006700000020429C0F0128010F0030C00F01B806F
:10068000CCF1040CBCF1020F18BF00F8012BA8BF7D
:1006900020F8022BA1EB0C0100F00DB85FEAC17C41
:1006A00024BF00F8012B00F8012B48BF00F8012BF4
:1006B00070474FF0000200B5134694469646203925
:1006C00022BFA0E80C50A0E80C50B1F12001BFF40B
:1006D000F7AF090728BFA0E80C5048BF0CC05DF871
:1006E00004EB890028BF40F8042B08BF704748BFBF
:1006F00020F8022B11F0804F18BF00F8012B704733
:10070000704770477047704710B500F009F80068EF
:1007100010BD10B5044600F003F8046010BD0000E1
:100720000048704714920024004870471492002437
:100730007546FFF7F9FFAE4605006946534620F0BF
:100740000700854618B020B5FFF786FEBDE82040BB
:100750004FF000064FF000074FF000084FF0000B7D
:1007600021F00701AC46ACE8C009ACE8C009ACE830
:10077000C009ACE8C0098D46704710B50446AFF318
:1007800000802046BDE81040FFF7EFBD70B504467D
:100790004F492068884203D04E492068884208D1DA
:1007A0004D48006800F4403008B1012009E0002005
:1007B00007E04A48006800F4403008B1012000E03A
:1007C0000020B8B108F096FC05466068B0F5803F9F
:1007D00006D0B0F5003F04D0B0F5403F08D105E0A9
:1007E00000BF6068000CB5FBF0F502E0AD0800E06A
:1007F00000BF2BE04FF40020002106F0A9FF0546C2
:100800006068C0F31101F9B980140C281CD2DFE82C
:1008100000F01B060708090A0B111315171900BF72
:1008200000BF00BF00BF00BF6068800C4000B5FB88
:10083000F0F50AE02D0908E06D0906E0AD0904E0D5
:10084000ED0902E02D0A00E000BF00BF05F06EFEDA
:1008500041F20301884210D82148854206D9206818
:10086000806840F48070216888602FE0206880688C
:1008700020F480702168886028E06D08194885425E
:1008800006D82068806820F44070216888601DE0E8
:100890001548854208D82068806820F4407040F4EC
:1008A00080702168886011E01048854208D820686F
:1008B000806820F4407040F400702168886005E092
:1008C0002068806840F440702168886070BD000036
:1008D0000020024000210240082302400863025821
:1008E000002D3101105E5F0020BCBE0040787D010C
:1008F0002DE9F05F044688464FF00009474620681E
:100900000DF09CF9824620680DF07FF98346BAF11C
:10091000000F02D1BBF1000F72D02068C06800F058
:10092000007000B3607D01281DD1207D01281AD1FF
:1009300001270FE0334881450AD3606D40F0100075
:100940006065A06D40F00100A0650120BDE8F09F4A
:1009500009F1010920680068C0F380100028E9D07F
:10096000402021680860022F10D020680DF066F941
:1009700060B120680DF04EF940B920688168224AC4
:10098000114041F01001816000BF00BF012F10D065
:1009900020680DF03AF960B120680DF03BF940B9DC
:1009A00020688168184A114041F02001816000BF31
:1009B00000BF022F03D0032F03D10C2503E008252D
:1009C00001E0042500BF00BF05F0B6FD064612E0B9
:1009D00005F0B2FD801B05280DD9206880682840ED
:1009E00048B1606D40F010006065A06D40F00100FE
:1009F000A0650120AAE72068806828400028E7D188
:100A00000020A3E700DC0C00C0FFFF7F70B50546A7
:100A1000AC6B606D00F0500098BB606D40F40070EE
:100A200060652068006800F00800A8B120680DF03B
:100A30000FF910B32068C06800F40050E8B9606D89
:100A400020F480706065606D00F48050A8B9606D1E
:100A500040F00100606510E02068C06800F003000D
:100A600058B9606D20F480706065606D00F480504E
:100A700018B9606D40F001006065204603F0DEFAB1
:100A80000CE0FFE7606D00F0100018B1204603F0A5
:100A9000D7FA03E0E06CC16C2846884770BD70B59A
:100AA0000546AC6B606D40F040006065A06D40F0A5
:100AB0000400A065204603F0C3FA70BD70B504467B
:100AC000A56B284603F0BBFA70BD000070B5044664
:100AD00020680DF09FF8064620680DF0A0F898B346
:100AE00096BB2068806800F00D0001280AD12068BC
:100AF00081681A4A1140891C816000BF0320216867
:100B0000086009E0606D40F010006065A06D40F085
:100B10000100A065012070BD05F00EFD054614E042
:100B200005F00AFD401B02280FD92068806800F0FC
:100B3000010050B1606D40F010006065A06D40F0A4
:100B40000100A0650120E6E705E02068806800F06C
:100B500001000028E4D10020DDE70000C0FFFF7F96
:100B600070B5044620680DF05AF8002851D120686D
:100B700080682949084048B1606D40F01000606508
:100B8000A06D40F00100A065012070BD20680DF04F
:100B90002FF805F0D1FC0546204A2168914203D088
:100BA0001F4A2168914201D11E4900E01E490846B2
:100BB0000DF026F806461A492068884201D11748E8
:100BC00000E020682168884200D00EBB1AE020684F
:100BD0000DF025F810B920680DF00AF805F0ACFC0E
:100BE000401B02280ED92068006800F0010048B9B7
:100BF000606D40F010006065A06D40F00100A065E0
:100C00000120C2E72068006800F001000028DED063
:100C100000BF0020B9E700003F0000800020024034
:100C200000210240002302400063025801469FED6C
:100C30000C0BB0EE401B00200BE031F8102000EE52
:100C4000102AB8EE400B30EE010BB0EE401B421CF8
:100C5000D0B23228F1DB9FED042B81EE020B7047FE
:100C600000000000000000000000000000004940FB
:100C700070B505460C4605B10CB9002070BD224682
:100C80002946044801F0A3FEA04201D10120F5E766
:100C90000020F3E7D08C002400BFFEE7024609B92C
:100CA000002070470D4890F8000608B10020F8E7D2
:100CB0000B480B6803614B6843610B8903838B7A94
:100CC0008376064880F84025012380F841350120CD
:100CD000024B83F8000600BFE3E7000074780024AD
:100CE000747E002401B97047064A0B88A2F80136C9
:100CF0008B7882F8033610700122024B5A7000BFC5
:100D0000F1E700007478002410B5024804F0EAF816
:100D100010BD0000900F002410B5024804F0E2F866
:100D200010BD00000810002410B5024804F0DAF8E5
:100D300010BD00007011002410B5024804F0D2F874
:100D400010BD0000F810002410B5024804F0CAF8E5
:100D500010BD00006012002410B5024804F0C2F873
:100D600010BD00001009002410B5024804F0BAF8C4
:100D700010BD00008809002410B5024804F0B2F844
:100D800010BD0000000A002410B5024804F0AAF8C3
:100D900010BD0000780A002410B5024804F0A2F843
:100DA00010BD00001404002410B5024804F09AF8A5
:100DB00010BD00009C03002410B5024804F092F816
:100DC00010BD00003007002410B5024804F08AF876
:100DD00010BD0000A807002410B5024804F082F8F6
:100DE00010BD0000E811002410B5024804F07AF8A4
:100DF00010BD00002008002410B5024804F072F86D
:100E000010BD0000980800240146374A0868904247
:100E100049D0354A18320868904244D0324A3032BC
:100E2000086890423FD0304A4832086890423AD031
:100E30002D4A60320868904235D02B4A78320868D3
:100E4000904230D0284A9032086890422BD0264AEF
:100E5000A8320868904226D0244A0868904222D0DE
:100E6000224A1832086890421DD0204A3032086861
:100E7000904218D01D4A48320868904213D01B4A4D
:100E80006032086890420ED0184A78320868904262
:100E900009D0164A90320868904204D0134AA8320A
:100EA0000868904201D1012000E00020B0B10A782A
:100EB000103A1823B2FBF3F000F007020C4B9A5CD7
:100EC000CA65032805D90A686FF30902121D8A65ED
:100ED00003E00A686FF309028A6503E0086820F0FE
:100EE000FF008865886D70471000024010040240C2
:100EF0001C74010810B502682B4C0368A34222D071
:100F0000294C14340368A3421DD0274C28340368AD
:100F1000A34218D0244C3C340368A34213D0224C83
:100F200050340368A3420ED01F4C64340368A342BC
:100F300009D01D4C78340368A34204D01A4C8C3479
:100F40000368A34201D1012300E000238BB10378A1
:100F5000083B1424B3FBF4F1144B03EB8103036649
:100F6000124B8033436601F01F040123A3408366C4
:100F700018E00378103B1824B3FBF4F10C4B9A42B1
:100F800004D80B4BA83B9A4200D30831094B03EB22
:100F900081030366074B8033436601F01F0401237E
:100FA000A340836610BD0000085402580058025840
:100FB000B8040240000802400179A9B3082940D8CA
:100FC000204B02689A4222D01E4B143302689A4288
:100FD0001DD01C4B283302689A4218D0194B3C3361
:100FE00002689A4213D0174B503302689A420ED0CF
:100FF000144B643302689A4209D0124B783302686A
:101000009A4204D00F4B8C3302689A4201D10122DC
:1010100000E000224AB14A1E0B4B03EB8202C2667B
:10102000094A4032026708E00BE04A1E074B03EB17
:101030008202C266054A403202674A1E012393407B
:10104000436770470854025800590258000902408B
:10105000014600208A69D2B98A6A32B1012A0DD0CC
:10106000022A03D0032A10D10EE000BFCA6A02F0A0
:101070008072B2F1807F00D1012007E0CA6AB2F12C
:10108000C07F00D1012001E000E000BF36E08A69A6
:10109000B2F5005F1BD18A6A32B1012A07D0022A59
:1010A00003D0032A11D10AE000BF01200EE0CA6A72
:1010B00002F08072B2F1807F00D1012006E0CA6A9E
:1010C000B2F1C07F00D1012000E000BF16E08A6AC3
:1010D00032B1012A05D0022A04D0032A0CD103E040
:1010E00000BF00BF012008E0CA6A02F08072B2F1BE
:1010F000807F00D1012000E000BF00BF70470000EA
:10110000F0B5856D846D984F0668BE4270D0964FDD
:1011100018370668BE426BD0934F30370668BE4220
:1011200066D0914F48370668BE4261D08E4F603717
:101130000668BE425CD08C4F78370668BE4257D0F6
:10114000894F90370668BE4252D0874FA83706684D
:10115000BE424DD0854F0668BE4249D0834F1837F6
:101160000668BE4244D0814F30370668BE423FD049
:101170007E4F48370668BE423AD07C4F60370668DB
:10118000BE4235D0794F78370668BE4230D0774FAF
:1011900090370668BE422BD0744FA8370668BE420F
:1011A00026D0734F0668BE4222D0714F14370668AE
:1011B000BE421DD06E4F28370668BE4218D06C4F15
:1011C0003C370668BE4213D0694F50370668BE42AE
:1011D0000ED0674F64370668BE4209D0644F783737
:1011E0000668BE4204D0624F8C370668BE4201D109
:1011F000012600E000263EB1D0E919767E60C66E79
:1012000016B1D0E91C767E60574F0668BE4249D0C1
:10121000554F18370668BE4244D0534F30370668E2
:10122000BE423FD0504F48370668BE423AD04E4F7C
:1012300060370668BE4235D04B4F78370668BE42ED
:1012400030D0494F90370668BE422BD0464FA83762
:101250000668BE4226D0454F0668BE4222D0434FA4
:1012600018370668BE421DD0404F30370668BE4270
:1012700018D03E4F48370668BE4213D03B4F603708
:101280000668BE420ED0394F78370668BE4209D094
:10129000364F90370668BE4204D0344FA8370668F0
:1012A000BE4201D1012600E00026DEB190F85C606C
:1012B00006F01F073F26BE40AE600668366826F47B
:1012C000802607683E60066873608668402E04D1F9
:1012D0000668B2600668F16044E00668B1600668BE
:1012E000F2603FE0224F0668BE4222D0204F143702
:1012F0000668BE421DD01E4F28370668BE4218D071
:101300001B4F3C370668BE4213D0194F5037066852
:10131000BE420ED0164F64370668BE4209D0144F45
:1013200078370668BE4204D0114F8C370668BE423B
:1013300001D1012600E00026A6B190F85C6006F01D
:101340001F070126BE406660066873608668402EEF
:1013500004D10668B2600668F16003E00668B16017
:101360000668F260F0BD0000100002401004024068
:101370000854025810B54FF480722749274801F0ED
:10138000A4FB274801F03EF9FF20264981F84E00D2
:1013900000212448A0F85010A0F85210FF20214945
:1013A00081F8800114211F48A0F882110121A0F8C2
:1013B0008411FF201B4981F8320100211948A0F84F
:1013C0003411A0F83611FF20164981F838010021A8
:1013D0001448A0F83A11A0F83C11FF20114981F8F7
:1013E000860100210F48A0F88811A0F88A11FF207B
:1013F0000C4981F8400500210A48A0F84215A0F8E0
:101400004415FF20074981F84C0500210548A0F844
:101410004E15A0F8501510BDC07F00248C0100248B
:10142000FD2E00087478002402468A4202DD501A1C
:1014300000B270474842824202DA501800B2F8E720
:101440000020F6E77047000010B5144803F0C3F819
:10145000134803F0C0F8114803F098F8104803F05F
:1014600095F840F2FF7200210C4802F0F9F90A20C9
:1014700004F034FF40F2FF720021094802F0F0F955
:101480000A2004F02BFF32220649054802F0E4FF4F
:1014900032220549014802F0DFFF10BDD4020024CA
:1014A00038030024AC770024107800241FB50020F6
:1014B0000090019002900390002407E0012004F0C6
:1014C0000DFF684600F028FD601C84B2B4F57A7FF9
:1014D000F4DB1FBD70B52DED028B06463A4800784F
:1014E00048B9002E02DD00F043FC01E000F066FC8C
:1014F000BDEC028B70BD34480078401EC5B2294651
:101500003248007800F0C0FA044604B9F0E72846F3
:1015100000F01CFBB0EE408A94ED000A002E00BFE4
:10152000F1EE480A78FE200A30EE200A84ED000A27
:10153000092D42D2DFE805F0050607141516172716
:10154000340000BF00BFD4ED000AB0EE600A9FED8A
:10155000201ADFED200A00F0F5FB84ED000A2DE0F3
:1015600000BF00BF00BFD4ED000AB0EE600A9FEDDF
:101570001A1ADFED1A0A00F0E5FB84ED000A28468E
:1015800000F022FA1AE0D4ED000AB0EE600A9FEDF6
:10159000141ADFED100A00F0D5FB84ED000A0DE00F
:1015A000D4ED000AB0EE600AB7EE001ADFED090ACA
:1015B00000F0C8FB84ED000A00E000BF00BF01207E
:1015C0000849087000BF93E74F0100244E01002432
:1015D00000004842000000000000FA430000FAC387
:1015E000000048435101002410B50848007810B9A4
:1015F00000F00EF808E005480078012802D100F05C
:1016000055F801E000F022F910BD00004C01002463
:1016100070B50DF043FA08231BA2002108460DF017
:101620006FFC002425E004EB4400182101EB800549
:1016300017480078844201D13E2000E02020024675
:101640000623294600200DF055FB124850F82420AF
:10165000062329460C200DF053FC0D4800788442E7
:1016600005D108238022294600200DF0E9FA601CEC
:10167000C4B2022CD7D3062307A2382100200DF0D4
:101680003FFC0DF055FC70BD4D454E55000000006F
:101690004D010024407F010855502F444E205345F2
:1016A0004C20454E5420494E0000000070B50DF00E
:1016B000F5F9062321A2002108460DF021FC22485D
:1016C000007808B121A000E022A0024606230021F4
:1016D00054200DF015FC062320A2082100200DF057
:1016E0000FFC1F481F49097850F8212006230821C4
:1016F00012200DF005FC06231BA2082136200DF058
:10170000FFFB00F0ADF90546002406E02919C8B238
:10171000214600F043F8601CC4B2052CF6D30A48F9
:10172000007808B113A000E017A002460623382174
:1017300000200DF0E5FB0DF0FBFB70BD504944208F
:101740004D454E55000000005001002445444954C9
:101750000000000053454C200000000041583A00B2
:101760000C7F01084E0100244241434B3D52455439
:101770000000000055502F444E202B2F2D202045D7
:101780004E54204F4B00000055502F444E205345DF
:101790004C20454E54204544495400002DE9F04169
:1017A00004460E46102000EBC6082248007884420A
:1017B00001D13E2000E020200246062341460020C1
:1017C0000DF098FA84B906231BA2414618460DF085
:1017D00097FB1B481B49097850F8212006234146F6
:1017E00054200DF08DFB18E0601EC7B2164850F86B
:1017F00027200623414618460DF082FB3946114842
:10180000007800F041F905463DB1D5ED000AB0EE93
:10181000600A41464E2000F0F7FA064800788442FC
:1018200005D108238022414600200DF009FABDE8C9
:10183000F08100004F01002441584953000000008E
:101840000C7F01084E0100241C7F010800B587B001
:1018500002A800F04BF90DF021F9062342A2002165
:1018600008460DF04DFB062342A200215A200DF040
:1018700047FB062341A20A2100200DF041FBBDF9E0
:10188000082005230A21122000F01EFB06233CA29B
:10189000142100200DF034FBBDF90A20052314218A
:1018A000122000F011FB062336A21E2100200DF0AD
:1018B00027FB05231E211220049A00F005FB9DF84A
:1018C0001400012801D130A000E030A00246062318
:1018D0001E2136200DF014FB06232DA22821002006
:1018E0000DF00EFBBDF9160000EE900AF8EEE00ACE
:1018F0009FED291A60EE810AB0EE600A28211E20B1
:1019000000F082FA062325A2342100200DF0F8FA17
:10191000062000909DF818200323342108200DF0A4
:1019200091FA06231EA2342120200DF0E9FA0620A8
:1019300000909DF819200323342128200DF082FA0D
:10194000062318A2342140200DF0DAFA0620009078
:101950009DF81A200323342148200DF073FA0DF06E
:10196000E7FA07B000BD0000524144415220504FF9
:10197000530000004241434B00000000583A000071
:10198000593A00005A3A00004F4600005244000005
:101990005941573A000000000AD7233C500000008C
:1019A0005100000059000000044908700021044A59
:1019B00011700121034A1170704700004C0100248E
:1019C00050010024510100240146234A1278C2EB41
:1019D0000212224B03EB820003290DD190ED060A7F
:1019E000D0ED070AB4EEE00AF1EE10FA04DD90ED56
:1019F000070A80ED060A2EE004290DD190ED070AB2
:101A0000D0ED060AB4EEE00AF1EE10FA04D290ED41
:101A1000060A80ED070A1EE005290DD190ED080A9F
:101A2000D0ED090AB4EEE00AF1EE10FA04DD90ED13
:101A3000090A80ED080A0EE006290CD190ED090A8A
:101A4000D0ED080AB4EEE00AF1EE10FA03D290ED00
:101A5000080A80ED090A70474E010024F090002426
:101A600008480078022801D2002070470548007815
:101A7000072801D90520F8E702480078801EC0B287
:101A8000F3E700004F01002410B502460B46042A7C
:101A900001DB002010BDC2EB0210134C04EB8001EF
:101AA000092B1FD2DFE803F00507090C0F121518E8
:101AB0001B000846EEE7081DECE701F10800E9E726
:101AC00001F11800E6E701F11C00E3E701F1200055
:101AD000E0E701F12400DDE701F12800DAE701F198
:101AE0002C00D7E70020D5E7F090002400B970471C
:101AF0000F490A680260898881800E49097801735C
:101B0000017B012903D10C49096A816002E0B0F927
:101B10000410816009490988C18109490978017463
:101B200008490978417408490978817400BFDEE7E3
:101B3000A2010024E4010024988B0024B6010024B3
:101B4000B8010024B9010024BA010024092811D2E7
:101B5000DFE800F0050607111213140D0A0000BF9C
:101B600000BF9FED080A70479FED070AFBE7B6EE3E
:101B7000000AF8E700BF00BF00BF00BFB7EE000AD1
:101B8000F1E700000AD7233CCDCC4C3DF8B501F07D
:101B900013F900909DF8000020B12048007808B9A2
:101BA000012000E0002005469DF8010020B11B48FF
:101BB000407808B9012000E0002006469DF80200A8
:101BC00020B11648807808B9012000E000200746BF
:101BD0009DF8030020B11148C07808B9012000E049
:101BE000002004460D48009901600D48007828B98E
:101BF0003A463146284600F015F80DE008480078CE
:101C0000012806D123463A463146284600F026F8F8
:101C100002E0204600F064F8F8BD000058010024FE
:101C20004C01002470B506460C4615461EB1022133
:101C3000094800F0D7F81CB10221074800F0ACF8C1
:101C40004DB10548007818B90120FFF7ADFE02E05C
:101C50000220FFF7A9FE70BD4D0100242DE9F041DF
:101C600004460D4617461E4657B11A48007808B973
:101C7000012000E000201749087001201649087073
:101C800066B11448007830B1002012490870012074
:101C90001149087002E00020FFF786FE54B10D489C
:101CA000007818B10120FFF715FC03E00A210B486A
:101CB00000F098F85DB10748007820B14FF0FF3090
:101CC000FFF708FC03E00A21044800F065F8BDE8CE
:101CD000F081000050010024510100244F01002434
:101CE00010B5044614B10020FFF75EFE10BD0000E1
:101CF00008B500200B4908700B4908700B490870A3
:101D00000B4908700B49087001200B49087000202E
:101D10000A49086001F050F80090094800990160F4
:101D200008BD00004C0100244D0100244E01002498
:101D30004F010024500100245101002454010024CB
:101D400058010024F0EE401AF4EEE01AF1EE10FA19
:101D500002D2B0EE600A7047F4EEC11AF1EE10FA4A
:101D600002DDB0EE410AF6E7B0EE610AF3E70000EB
:101D700007480078401C0649087008460078042887
:101D800001DB002008700120024908707047000044
:101D90004E0100245101002400B101B970470278BE
:101DA000521C027002788A4201DB0022027001227A
:101DB000014B1A7000BFF1E7510100240748007879
:101DC00018B903200549087004E004480078401E53
:101DD0000249087001200249087070474E01002432
:101DE0005101002400B101B97047027812B94A1EAE
:101DF000027002E00278521E02700122014B1A703A
:101E000000BFF1E7510100242DE9F0432DED028BD5
:101E100081B005468946B0EE408AB5EEC08AF1EE43
:101E200010FA06DBDFED270AB6EE000A08EE200AFC
:101E300005E0DFED240AB6EE000A18EE200ABDEE3A
:101E4000C00A10EE104A002C01DA604200E0204681
:101E500007466420B7FBF0F6B7FBF0F100FB117802
:101E6000B6F57A7F03D340F2E7364FF06308002CD3
:101E700001DA2D2000E02B200246062349462846A1
:101E80000CF038FF06200323324649460090A81D77
:101E900000B20CF0D7FF06232E22494605F11800A8
:101EA00000B20CF027FF062002234246494600906C
:101EB00005F11E0000B20CF0C5FF01B0BDEC028BB5
:101EC000BDE8F0830000C842F8B504460D4616464A
:101ED0001F4606203B4632462946009020460CF01D
:101EE000D7FFF8BD10B504F027FB0446FFF74EFE00
:101EF0000748007820B907480068201A642806D3EC
:101F000004480460002002490870FFF76DFB10BD13
:101F1000510100245401002410B5044604B910BD39
:101F200000220821184804F0FBFAB4F90000174910
:101F30000EF0DCF92423154A0821154808F07EFF2D
:101F4000B4F9020013490EF0D1F92423114A0021FB
:101F50000F4808F073FFB4F904000F490EF0C6F9FA
:101F600024230D4A04210A4808F068FFB4F906004A
:101F70000A490EF0BBF92423084A0C21044808F052
:101F80005DFF00BFCBE7000000080258F48000248A
:101F90004C0600248481002414820024A48200249E
:101FA00010B50EF017FD002006490870064908809C
:101FB00001200649087004F0BFFA054908600EF0D8
:101FC000C1FF10BDFE01002400020024080200240D
:101FD0000402002410B52DED028BB0EE408A0EF005
:101FE000B9FE04F0A9FA06490968401AB0F5967FCF
:101FF00002D9012003490870BDEC028B10BD00001E
:10200000040200240802002408B5002000901648AD
:102010000068401C144908601448D0F89000144926
:102020000860124809F050F90CF058FC00F03AF83A
:1020300000BF00200D4981F8840000BF0D480068F2
:1020400088B16A4600210B48006813F0E1FD00BF2B
:10205000009838B14FF0805007490860BFF34F8FA8
:10206000BFF36F8F00BF08BDE8000024D40D00242B
:10207000EC000024C400002404ED00E010B5064884
:10208000064908604FF4F0630122054903480068DF
:1020900000F0FEFC10BD0000BC6C0024D000002449
:1020A0003C65002410B545480068401C4349086061
:1020B00040224349434809F051F80446424804602D
:1020C000002C70D1414800684149884258D03F48AF
:1020D00000683F491831884252D03C4800683C496A
:1020E000303188424CD039480068394948318842FB
:1020F00046D03648006836496031884240D033487F
:1021000000683349783188423AD030480068304915
:102110009031884234D02D4800682D49A83188423A
:102120002ED02A4800682B49884229D027480068C9
:1021300028491831884223D0244800682549303185
:1021400088421DD02148006822494831884217D072
:102150001E4800681F496031884211D01B48006842
:102160001C49783188420BD01848006819499031D1
:10217000884205D0154800681649A831884208D120
:1021800012480068006820F00800104909680860DB
:1021900013E00E480068006820F004000B4909684D
:1021A00008600AE0FFE70C480068401C0A49086024
:1021B0000448D0F890000949086010BDDC000024F4
:1021C000FC640024D40D0024E400002470110024D9
:1021D0001000024010040240E0000024EC00002443
:1021E0000149086070470000C400002408B101469E
:1021F00000E00249024A1160704700007D26000895
:10220000B800002438B50446002000901648006845
:10221000401C1549086015480068204413490860AF
:102220001348006838B1402C05DC2246114910489B
:10223000006800F0CCFBFFF735FF0F48006888B15D
:102240006A4600210C48006813F0E2FC00BF0098C9
:1022500038B14FF0805009490860BFF34F8FBFF38A
:102260006F8F00BF38BD0000D4000024D8000024C8
:10227000D0000024FC640024C400002404ED00E02D
:1022800070B504460D4604B10DB9002070BD4FF67F
:10229000FF732A462146044809F035FF08B901209A
:1022A000F4E70020F2E70000680E002408B50020E3
:1022B000009000F02FF80B48006888B16A460021B2
:1022C0000848006813F0A4FC00BF009838B14FF034
:1022D000805005490860BFF34F8FBFF36F8F00BF79
:1022E00008BD0000C800002404ED00E010B5064859
:1022F000064908604FF480630122054903480068DD
:1023000000F0C6FB10BD000014710024F000002492
:10231000146D002410B5402239493A4808F01EFFD8
:10232000394800683949884258D0374800683749E9
:102330001831884252D034480068344930318842DC
:102340004CD03148006831494831884246D02E4847
:1023500000682E496031884240D02B4800682B49E4
:10236000783188423AD0284800682849903188421C
:1023700034D0254800682549A83188422ED022480B
:1023800000682349884229D01F4800682049183135
:10239000884223D01C4800681D49303188421DD036
:1023A000194800681A494831884217D01648006811
:1023B00017496031884211D01348006814497831B8
:1023C00088420BD01048006811499031884205D0EE
:1023D0000D4800680E49A831884208D10A480068B3
:1023E000006820F0080008490968086007E006480E
:1023F0000068006820F0040003490968086010BD07
:10240000D46C0024680E0024E8110024100002405F
:10241000100402400149086070470000C800002411
:1024200008B1014600E00249024A1160704700000D
:102430007D260008BC00002438B50446002000902A
:102440001148006838B1402C05DC22460F490E487F
:10245000006800F0BCFAFFF75DFF0D48006888B126
:102460006A4600210A48006813F0D2FB00BF0098BA
:1024700038B14FF0805007490860BFF34F8FBFF36A
:102480006F8F00BF38BD0000F0000024D46C002422
:10249000C800002404ED00E070B504460D4604B108
:1024A0000DB9002070BD2A462146084809F096FE65
:1024B00050B90748006828B14FF0FF310448006860
:1024C00014F020FA0120EDE70020EBE7F00A0024E9
:1024D0000000002410B500F015F810BD10B5064836
:1024E000064908604FF41673012205490348006845
:1024F00000F0CEFA10BD000094730024F400002414
:102500003B71002410B50F2239493A4808F026FEE5
:10251000394800683949884258D0374800683749F7
:102520001831884252D034480068344930318842EA
:102530004CD03148006831494831884246D02E4855
:1025400000682E496031884240D02B4800682B49F2
:10255000783188423AD0284800682849903188422A
:1025600034D0254800682549A83188422ED0224819
:1025700000682349884229D01F4800682049183143
:10258000884223D01C4800681D49303188421DD044
:10259000194800681A494831884217D0164800681F
:1025A00017496031884211D01348006814497831C6
:1025B00088420BD01048006811499031884205D0FC
:1025C0000D4800680E49A831884208D10A480068C1
:1025D000006820F0080008490968086007E006481C
:1025E0000068006820F0040003490968086010BD15
:1025F0002C710024F00A002408100024100002406E
:102600001004024008B1014600E00249024A11608C
:10261000704700007D260008C000002410B5044665
:102620000648006838B10F2C05DC224604490348EF
:10263000006800F0CCF9FFF765FF10BDF40000243E
:102640002C71002408B5002000900A48006880B171
:1026500069460848006814F017F800BF009838B1C0
:102660004FF0805004490860BFF34F8FBFF36F8F66
:1026700000BF08BD0000002404ED00E0704700002A
:1026800010B52DED028B0848FEF7D0FAB0EE408B66
:102690009FED061B88EE010B9FED061B20EE010B44
:1026A000BDEC028B10BD000010780024000000007B
:1026B000E0FFEF4000000000008CA94010B52DEDB8
:1026C000028BFFF7DDFF9FED0F1B20EE010BB0EE3D
:1026D000408BB5EEC08BF1EE10FA03D20020BDECBA
:1026E000028B10BD9FED090BB4EEC08BF1EE10FA1A
:1026F00002DD4FF6FF70F2E7BCEEC80B10EE100AD9
:1027000080B2ECE77B14AE47E1FAF63F0000000030
:10271000E0FFEF4010B52DED028B00F035F89FED96
:10272000121B20EE011B9FED122B9FED130B01EEF0
:10273000020BB0EE408BB5EEC08BF1EE10FA03D277
:102740000020BDEC028B10BD9FED0D0BB4EEC08BD5
:10275000F1EE10FA02DD4FF6FF70F2E7BCEEC80BA7
:1027600010EE100A80B2ECE70000000000005940B3
:10277000FCA9F1D24D62503F9A9999999999B93F24
:1027800000000000E0FFEF4010B52DED028B0C487B
:10279000FEF74CFAB0EE408B9FED0A0B88EE001B63
:1027A0009FED0A0B21EE000BB2EE061B20EE011B83
:1027B000B7EE002B81EE020BBDEC028B10BD0000CA
:1027C000AC77002400000000E0FFEF4000000000B4
:1027D00000C8A94010B500220421074803F0A0FE5C
:1027E00000220221044803F09BFE00220821024837
:1027F00003F096FE10BD0000000C02587FB50446A1
:1028000000200090019002900390002C6FD03A4875
:102810000088052190FBF1F005B24FF4FA62002127
:1028200028460BF0C8FAADF800003348408805216F
:1028300090FBF1F005B24FF4FA62002128460BF04C
:10284000BAFAADF802002C488088052190FBF1F01F
:1028500005B24FF4FA62002128460BF0ACFAADF84D
:1028600004002548C088052190FBF1F005B24FF423
:10287000FA62002128460BF09EFAADF806001E48C9
:102880000089052190FBF1F005B24FF4FA620021B6
:1028900028460BF090FAADF808001748408905214A
:1028A00090FBF1F005B24FF4FA62002128460BF0DC
:1028B00082FAADF80A0010488089052190FBF1F0FA
:1028C00005B24FF4FA62002128460BF074FAADF815
:1028D0000C000948C089052190FBF1F005B24FF4C6
:1028E000FA62002128460BF066FAADF80E00684641
:1028F000FFF712FB7FBD00009A7E002472B600BF76
:10290000FEE700000748006840F002000549086043
:1029100000BF04480838006800F400500028F8D0D0
:10292000704700000C48025810B5DFED0E2AB3EED8
:10293000092AF3EE091A9FED0B1ADFED0B0A9FED42
:102940000A0A0A4810F046FF01200949087003F0FE
:10295000F3FD0849086000200749087007494870DE
:1029600010BD00000000C84200000000C48A00241E
:10297000E6010024E8010024E5010024CB01002445
:1029800010B52DED028BB0EE408AB0EE480A00F093
:1029900045F900F0DFF8BDEC028B10BD0EB510203C
:1029A0008DF80000002005E000220DF101010A541D
:1029B000411CC8B20A28F7DB00208DF80100012174
:1029C0008DF802106946FF20FEF768F90EBD2DE96B
:1029D000F04104460D4616464FF000082F460AE027
:1029E0003946204600F00FF820B12069074408F16D
:1029F000010800E003E0301EA6F10106F0D100BF9F
:102A00004046BDE8F08170B504460E46204600F011
:102A10004FF808B1002070BD6569A168236901FB0A
:102A200003501A463146FDF7A3FDA068401CA06084
:102A3000A0682168884201D30020A060E068401CA3
:102A4000E0600120E7E70021C160416081607047DC
:102A500070B504460D46204600F023F808B100206A
:102A600070BD66696068236900FB03611A462846E9
:102A7000FDF77EFD6068401C6060606821688842E8
:102A800001D300206060E068401EE0600120E7E7BD
:102A900010B5416102610360002444608460C46039
:102AA00010BD0146C86808B9012070470020FCE746
:102AB0000146C8680A68904201D101207047002091
:102AC000FCE70146481CC0B27047016000238380C8
:102AD000C280704770B50B4681881144C488A142FA
:102AE0000BDC002107E05D5C8688741C8480046830
:102AF000A5554C1CA1B29142F5DB70BD8288C388FC
:102B00009A4204DA83885A1C82800268D154704742
:102B100030B505460C46E1B22846FFF7EFFF21121B
:102B20002846FFF7EBFF30BD70B506460D46002482
:102B300008E0E00025FA00F0C1B23046FFF7DEFF02
:102B4000601CC4B2042CF4DB70BD0168491C016038
:102B50007047000010B5264B5B791BB90123254C4B
:102B6000237002E00023234C2370224B18780128A5
:102B700003D1214B59781A6A0CE0204B1978204B6D
:102B8000B3F90430002B03DD1D4BB3F9043000E032
:102B900000231A461B4B1B7883420BD1012803D11B
:102BA000194B1B788B4204D020B9184B1B788B42F1
:102BB00000D110BD134B1870012802D1124B1970AF
:102BC00001E0124B19700023114C23704FF48773EE
:102BD000A4F801302346C3F8032001240D4B83F8E9
:102BE00039410D4B1B685B1C0B4C236000BFE0E7B9
:102BF000F8010024E4010024988B0024B80100248B
:102C0000A2010024ED010024EE010024EF010024C4
:102C1000A08A002474780024E00100242DE9F04FFC
:102C20002DED028B85B0B0EE408A4FF000090025F3
:102C3000AA460026002700245648007820B905B08F
:102C4000BDEC028BBDE8F08F5348407808B90120F5
:102C500000E0002051490870514800785149097836
:102C6000884201D0012000E0002080464C48C07816
:102C700048B14B48807A30B14FF0010A484880791A
:102C8000FA2800D3D146B8F1000F07D044480078A5
:102C900044490870B9F1000F00D00125424840783E
:102CA00008B1012000E000208346BBF1000F14D0E2
:102CB00000203D4948703D48B0F90070B0F902402D
:102CC000384610F02BFEB0F5967F06DA204610F05D
:102CD00025FEB0F5967F00DA01263148B0F90E00E6
:102CE00000EE100AB8EEC00AF0EE401A2C48B0F917
:102CF0000C0000EE100AB8EEC00AB0EE401AB0EEBA
:102D0000482A2A46314600EE104AF8EEC00A00EE84
:102D1000107AB8EEC00A264810F0A6FD2048B0F997
:102D20000E008DE82102CDF80C801D48B0F90C3062
:102D300032462146384610F027FE18480078012810
:102D40000ED1BAF1000F02D110F048FE77E7144A15
:102D5000B2F90E10B2F90C00164A10F019FE16E086
:102D60000EB905B96BE71248D0ED020AB0EE600A61
:102D700010F0DCFD04900E48D0ED000AB0EE600AC1
:102D800010F0D4FD0B4A0390049910F001FE00BF2F
:102D900055E70000E6010024F8010024E5010024C5
:102DA000988B0024EC010024CB010024A80100240E
:102DB000C48A00240080FFFFF8B50020009003F0D3
:102DC000BBFB0646002491E004EB84024A4B03EB74
:102DD0008202918804EB840253F8220003F098FBEE
:102DE00004EB8401444A02EB8101897909B1012194
:102DF00000E00021884201D1012000E000200546CA
:102E000004EB84003C4901EB8000007BA8420AD01F
:102E100004EB840001EB8000057304EB840001EBFC
:102E2000800086600DE004EB8400334901EB8000F4
:102E30008068301A142804D304EB840001EB80006E
:102E4000457304EB84002C4901EB8000407B90B17A
:102E500004EB840001EB8000807B60B904EB84000C
:102E600001EB8000006930B104EB8401224A02EBDF
:102E700081010869804704EB84001F4901EB800051
:102E8000407B04EB84011C4A02EB8101887334B15E
:102E9000012C0DD0022C14D0032C24D11AE004EB09
:102EA0008400154901EB8000407B8DF800001AE09A
:102EB00004EB8400104901EB8000407B8DF8010099
:102EC00011E004EB84000C4901EB8000407B8DF89D
:102ED000020008E004EB8400074901EB8000407B1E
:102EE0008DF8030000BF00BF601CC4B2042CFFF4C7
:102EF0006BAF0098F8BD0000F800002410B5044640
:102F00004248007860B9AA2C0AD101203F490870D4
:102F100000203F4908703F4908703F48047073E043
:102F20003A480078012809D1FF2C01D0612C05D145
:102F30000220364908703848447065E0334800780C
:102F4000022805D1032031490870334884705BE0C2
:102F50002E480078032809D1FA2C07DA04202B49DF
:102F600008702D48C4702A4804704DE02748007846
:102F7000042819D126480078002815DD2448007857
:102F8000401E234908702348007822490978491CCB
:102F9000204A1170001D20490C541D48007858BB70
:102FA00005201A4908702FE01848007805280DD12F
:102FB0000620164908701748007816490978491CF8
:102FC000144A1170001D14490C541DE00F4800787C
:102FD000062812D100200D4908700E480078001D07
:102FE0000D490C540B480078401D0C4908700846E8
:102FF0000178094800F02EF806E000200349087027
:10300000034908700349087010BD00009B010024AB
:10301000990100249A010024C07E00249801002414
:1030200010B500200AF070FE0D200AF06DFE33206E
:103030000AF06AFE34200AF067FE40200AF064FEBF
:1030400041200AF061FEE0200AF05EFEE2200AF074
:103050005BFE10BD2DE9F04104460D460026002719
:10306000E178A81F814201D0BDE8F081002006E090
:10307000215C3144CEB2B919CFB2411CC8B2A91EED
:103080008142F5DC601910F8020CB04204D16019DD
:1030900010F8010CB84200D0E6E72078AA2805D144
:1030A0006078FF2803D06078612800D0DCE7A07842
:1030B000202831D1201D11F010FC7D490880A01D71
:1030C00011F00BFC7A49488004F1080011F005FC6E
:1030D0007749888004F10A0011F0FFFB7449C88029
:1030E00004F10C0011F0F9FB7149088104F10E00A4
:1030F00011F0F3FB6E49488104F1100011F0EDFB73
:103100006B49888104F1120011F0E7FB6849C8811E
:10311000012068490870C9E0A0780F2809D12079FA
:103120006549087060794870A0798870E079C87046
:10313000BCE0A07806280CD120796049087060793D
:103140004870A0798870E1795C48C170217A01717A
:10315000ACE0A07807280AD1002005E0211D095C19
:10316000574A1154411CC8B20628F7DB9EE0A078EC
:1031700005280AD1002005E0211D095C514A11549F
:10318000411CC8B20928F7DB90E0A078012824D1BF
:10319000201D11F09BFB4C490880A01D11F096FBEF
:1031A0004949488004F1080011F090FB46498880A5
:1031B00004F10A0011F08AFB4349C88004F10C00B5
:1031C00011F084FB4049088104F10E0011F07EFBF0
:1031D0003D494881207C087368E0A078042818D114
:1031E000201D11F073FB39490880A01D11F06EFB02
:1031F0003649488004F1080011F068FB33498880A3
:1032000004F10A0011F062FB3049C880207B08728B
:103210004CE0A078E02813D12079012802D01028B2
:1032200002D100E001E000E000BF00BF20792849A2
:103230000870084646708770AF20FDF753FD35E0F3
:10324000A078B0B9234890F80406217988422DD19E
:10325000204890F805066179884227D11D4890F8EA
:103260000606A179884221D100201A4981F800067A
:103270001CE0A078E1280DD1201D11F02EFB804626
:103280001548A0F80080002013494860FF2011F085
:1032900081FC0BE0A078E22808D120790C49087065
:1032A000084646708770FF20FDF71CFD00BFDBE677
:1032B0009A7E00245C010024B40000249C010024B8
:1032C00078010024AA7E0024B37E0024907E00248E
:1032D0007E0100247478002484010024F0B587B0B6
:1032E00004460D4600260027E178A81F814201D040
:1032F00007B0F0BD002006E0215C3144CEB2B91920
:10330000CFB2411CC8B2A91E8142F5DC601910F889
:10331000020CB04204D1601910F8010CB84200D080
:10332000E6E72078AA2805D16078FF2803D06078E6
:10333000612800D0DCE7A078012842D1E078062897
:1033400000D0D5E7002005E0011D615C05AA1154FD
:10335000411CC8B20628F7D3B148807918B9DDE915
:1033600005010DF06BFA01A8DDE905120DF076FA02
:10337000DDE90101CDE90301AA480078012807D160
:10338000A948C07820B1A848008C00B2ADF8100060
:10339000A64803990160BDF810108180BDF90C00AA
:1033A000A3490860BDF90E004860BDF910008860AF
:1033B000A0480078401C9F49087001209E49087071
:1033C0002CE1A078022814D1E078062800D08FE7FD
:1033D000002005E0011D615C984A1154411CC8B2EF
:1033E0000628F7D30120944948709548FFF7ADFBB4
:1033F00014E1A07803281AD1002005E0011D615CCA
:10340000904A1154411CC8B20828F7D38D4801686E
:10341000059140680146069005980FF0D1FE884856
:103420006030FFF792FB012083498870F6E0A078B6
:1034300004281AD1E078022800D059E7002005E0DE
:10344000011D615C804A1154411CC8B20228F7D3A7
:103450007E480078401C7D49087001207649C8717B
:1034600077484830FFF771FBD8E0A078052815D1E0
:10347000E078082800D03BE7002005E0011D615CF2
:10348000734A1154411CC8B20828F7D301206A4975
:10349000C8706B481830FFF758FBBFE0A0780628CB
:1034A00052D1E078082800D022E7002005E0011D75
:1034B000615C684A1154411CC8B20828F7D3012046
:1034C0005D4988716348B0F9000000EE100AB8EE5B
:1034D000C00ADFED610A80EE201A604880ED001A14
:1034E0005C48B0F9020000EE100AB8EEC00ADFED49
:1034F0005A0A80EE201A594880ED011A5548B0F951
:10350000040000EE100AB8EEC00ADFED530A80EEA8
:10351000201A524880ED021A4E48B0F9060000EE1B
:10352000100AB8EEC00ADFED4C0A80EE201A4B48B4
:1035300080ED031A4A480078401C49490870404809
:103540003030FFF702FB69E0A078D0B9E0780328BB
:1035500000D0CDE6434890F80406217988425DD139
:10356000404890F805066179884257D13D4890F867
:103570000606A179884251D100203A4981F8000617
:103580004CE0A078E0281BD12079012806D0022841
:1035900005D0102804D0112804D102E003E002E095
:1035A00001E000E000BF00BF20798DF818008DF821
:1035B00019608DF81A7006A9FF200AF0C3F92DE0F2
:1035C000A078E12815D1E078022800D090E600BF6D
:1035D0002079617940EA01202249A1F808060021FA
:1035E0002048C0F80C1600F5C161FF200AF01EFA51
:1035F00014E0A078E22811D1E078012800DA77E61B
:10360000A078184981F80106084680F8026680F81B
:10361000037600F20161FF200AF094F900BF67E62B
:1036200022020024E4010024988B0024A20100243B
:1036300050890024B8010024CB010024A8010024F3
:10364000288C0024BB010024B6010024BA01002408
:10365000AE010024C301002400401C465C89002404
:10366000B9010024348300242DE9FC4104460E46B0
:103670000025002716B90020BDE8FC81322223492D
:103680006846FFF722FAAA216846FFF737FA317831
:103690006846FFF733FA21466846FFF72FFA002104
:1036A0006846FFF72BFA694620460AF0D3F9BDF8C1
:1036B0000400001F1549C870002007E01349095C89
:1036C0002944CDB27919CFB2411C88B2BDF804109B
:1036D0008142F3DC29466846FFF710FA394668460E
:1036E000FFF70CFA0A4890F8000640B1E02C06D12A
:1036F000074880F8044680F8055680F80676BDF83D
:103700000400C1B2014800F005F8B5E76C8A002456
:103710003483002470B504460D4629462046FEF742
:10372000AFFD70BD2DE9FC4104460F460025002683
:10373000A84632223E496846FFF7C7F9AA216846E3
:10374000FFF7DCF939786846FFF7D8F92146684673
:10375000FFF7D4F900216846FFF7D0F96946204603
:103760000DF050FDBDF80400001F1FFA80F830492D
:1037700081F80380002007E02D49095C2944CDB27F
:103780007119CEB2411C88B2BDF804108142F3DC3D
:1037900029466846FFF7B2F931466846FFF7AEF9A9
:1037A000244890F8000640B1E02C06D1214880F86A
:1037B000044680F8055680F80666BDF80400C1B2DC
:1037C0001B4800F045F8C8B1332C05D11A480068F1
:1037D000401C194908600EE0342C05D117480068D8
:1037E000401C1649086006E0402C04D114480068CB
:1037F000401C134908600120BDE8FC81332C05D131
:1038000010480068401C0F4908600EE0342C05D1B8
:103810000D480068401C0C49086006E0402C04D1AB
:103820000A480068401C094908600020E4E70000DD
:10383000C080002474780024600100246801002402
:1038400070010024640100246C0100247401002430
:1038500070B504460D4629462046FEF71DFE70BD94
:10386000F8B504460D4616460020009000BF94F8B7
:103870005000012801D10220F8BD012084F8500039
:1038800000BF2046FDF722F90746A7BB606D20F474
:10389000885040F002006065206805F4803141F0F6
:1038A000004106F0804211438268194B1A401143CF
:1038B000816000BF13E00098401C009015490098FB
:1038C00088420CD3606D20F0020040F0100060656B
:1038D00000BF002084F8500000BF0120CCE7206822
:1038E0008168C90F0029E6D1606D20F0020040F028
:1038F0000100606504E0FFE7606D40F01000606566
:1039000000BF002084F8500000BF3846B4E7000034
:10391000C0FFFE3F00F8C3252DE9F04399B00446EF
:103920000E464FF00008306800B100BF00BF94F8A9
:103930005000012803D1022019B0BDE8F083012016
:1039400084F8500000BF002015901690464920686A
:10395000884202D14548009001E000200090009884
:1039600050B9606D40F02000606500BF002084F811
:10397000500000BF0120DFE700980AF064F9074615
:1039800020680AF060F9002861D1002F5FD1364924
:103990002068884203D035492068884201D13448E4
:1039A00000E034480546306858B3A86820F4404029
:1039B00071680843A8602C492068884203D02B49CD
:1039C0002068884201D12A4800E02A4828498842D4
:1039D00009D125480AF028F9814624480AF024F93B
:1039E00049EA000002E024480AF01EF970BBB16801
:1039F00030680843A96840F61F7291430843A860E5
:103A00002BE0A86820F44040A8601749206888424D
:103A100003D016492068884201D1154800E01548B6
:103A20001349884209D110480AF0FEF881460F4830
:103A30000AF0FAF849EA000002E00F480AF0F4F848
:103A400020B9A86840F61F718843A86005E0606D42
:103A500040F0200060654FF0010800BF002084F8AE
:103A6000500000BF404667E70020024000210240AE
:103A70000023024000630258006002582DE9F84F0D
:103A800004460D464FF0000A0020009094F83800DC
:103A9000012800D100E000BFF8492068884200D129
:103AA00000BFF749E868884200D00EE0F549206879
:103AB000884200D100BFF4492068884200D100BF8D
:103AC000EE492068884200D100BF00BF94F8500042
:103AD000012802D10220BDE8F88F012084F85000AF
:103AE00000BF20680AF0AAF8002870D1286800F00A
:103AF0000040A8B92068C1692868C0F3130018B94C
:103B00002868C0F3846004E0286890FAA0F0B0FA56
:103B100080F000F01F020120904001432068C16145
:103B20002168D5E9002001F1300CC0F3012B0CEB2A
:103B30008B03D3F800C000F01F0E4FF01F0B0BFAE1
:103B40000EFB2CEA0B0C00F01F0BC2F3846E0EFA76
:103B50000BFE4CEA0E0CC3F800C000BF20680AF050
:103B60006DF8814620680AF050F88046B9F1000FE0
:103B700078D1B8F1000FFBD12268AB68286802F158
:103B8000140CC0F3406B0CEB8B01D1F800C0C0F3F8
:103B9000045E4FF0070B0BFA0EFB2CEA0B0CC0F384
:103BA000045B03FA0BFB4CEA0B0CC1F800C000BF2E
:103BB000B648006800F07040B0F1805F08D16869D5
:103BC0002168C968C1F382014900884015E014E208
:103BD0002068C06800F0100038B968692168C968B9
:103BE000C1F382014900884007E068692168C9681B
:103BF00001F0100189084900884007462869042817
:103C00003FD020682A68296900F1600C0CEB810321
:103C1000D3F800C00CF0004C02F0F84B4BEA070B55
:103C20004CEA0B0CC3F800C000BF20686A7E29690B
:103C3000012A01D1D20700E00022134600F1600CF6
:103C40000CEB8102D2F800C02CF0004C4CEA030CC3
:103C5000C2F800C000BF20682B7E2969012B02D169
:103C6000DB0201E045E000231A46036923F4F04338
:103C700001F01F0C02FA0CFC43EA0C03036100BFC5
:103C800037E02068006E00F0F8402978B0EB816FD3
:103C900005D12068006E20F0004021680866206889
:103CA000406E00F0F8402978B0EB816F05D12068B4
:103CB000406E20F00040216848662068806E00F069
:103CC000F8402978B0EB816F05D12068806E20F034
:103CD0000040216888662068C06E00F0F8402978AE
:103CE000B0EB816F05D12068C06E20F000402168E4
:103CF000C866206809F093FF002871D12068EA683F
:103D00002968D0F8C030C1F3130C23EA0C0302F089
:103D1000180BDFF87CC12CFA0BFC0CEA010C43EA0F
:103D20000C03C0F8C03000BF5549E868884270D124
:103D3000544B206898423DD1564B2A689A4201D193
:103D4000012276E0544B2A689A4201D1534A70E02E
:103D5000534B2A689A4201D1524A6AE0524B2A6870
:103D60009A4201D1514A64E0514B2A689A4201D1EA
:103D7000504A5EE0504B2A689A4201D14F4A58E0BF
:103D80004E4B2A689A4201D14D4A52E04C4B2A6868
:103D90009A4201D14B4A4CE04B4B2A689A4201D1DE
:103DA0004A4A46E04A4B2A689A4201D1494A40E0D1
:103DB00000223EE0344B22689A4239D1354B2A68C2
:103DC0009A4201D1012234E0334B2A689A4201D150
:103DD000324A2EE0324B2A689A4202D1314A28E018
:103DE000B3E0314B2A689A4201D1304A21E0304B8E
:103DF0002A689A4201D12F4A1BE02F4B2A689A4227
:103E000001D12E4A15E02D4B2A689A4202D12C4A44
:103E10000FE023E02A4B2A689A4201D1294A08E0A0
:103E20002B4B2A689A4201D12A4A02E0002200E084
:103E300000221146C369C1F3130212B9C1F38462AF
:103E400003E091FAA1F2B2FA82F202F01F0C012211
:103E500002FA0CF21343C36100BF00BF286800F0F0
:103E60000040002871D0074A2168914203D0064AD9
:103E70002168914232D1184931E0000000600258B7
:103E80000000FF4700200240002102400010005CBB
:103E9000FFFF0F00020030040400600840002019FA
:103EA0000800900C8000501D1000C01000018021FF
:103EB0002000F0140002B0250004002A0008302E73
:103EC000001060320020903600002143000052476D
:103ED0000000844B0000B84F002302404D490846C3
:103EE000816801F0E07600BF4B492068884203D02A
:103EF0004A492068884201D1494800E0454848497C
:103F0000884209D1444809F08AFE8346434809F0B3
:103F100086FE4BEA000002E0424809F080FEE8BB62
:103F200041492868884227D106F4000020BB3D495A
:103F30002068884267D1384B22689A4203D0374BB9
:103F400022689A4202D1364A01E032E0314A1046F4
:103F500046F4000109F08EFE344800683449B0FB95
:103F6000F1F0401C4000009002E00098401E0090DC
:103F700000980028F9D146E02E492868884219D1D6
:103F800006F08070B0B92749206888423BD1224BA7
:103F900022689A4205D0214B226800E026E09A422E
:103FA00001D11F4A00E01B4A104646F0807109F01B
:103FB00061FE28E020492868884224D106F4800068
:103FC00008BB1849206888421DD1134B22689A42C9
:103FD00003D0124B22689A4201D1114A00E00D4AE7
:103FE000104646F4800109F045FE0CE0606D40F09B
:103FF000200060654FF0010A05E0606D40F0200090
:1040000060654FF0010A00BF002084F8500000BF37
:10401000504660E500630258002002400021024043
:104020000023024000600258000084CB2C000024D2
:10403000400D0300000052C70000B8CF7047704722
:10404000704700002DE9F84F04464FF000090020AA
:10405000009014B90120BDE8F88FE06818B1207F06
:10406000012800D100BF606D30B9204600F030F962
:104070000020A06584F8500020688168C1F3407179
:1040800031B120688168874A1140816000BF00BF5C
:10409000206809F0CEFDA8B920688168824A1140E5
:1040A00041F08051816000BF804800688049B0FBCA
:1040B000F1F0401C009002E00098401E0090009833
:1040C0000028F9D1206809F0B4FD48B9606D40F0CE
:1040D00010006065A06D40F00100A0654FF001097F
:1040E000206809F0ABFD0646606D00F01000002866
:1040F0007ED1002EFCD1606D20F4807040F0020073
:104100006065206809F08BFD78BB6A4920688842A9
:1041100003D069492068884201D1684800E06848B6
:104120006649884209D1634809F079FD82466248B0
:1041300009F075FD4AEA000002E0624809F06FFDEF
:1041400098B95C4B22689A4203D05B4B22689A4232
:1041500001D15A4A00E05A4A10466168826822F446
:104160007C120A43826000BF00BF02F0DFF941F217
:10417000030188420ED9A06810280BD1607D216B05
:1041800041EA4030A168084340F00C01207F41EA39
:10419000004508E0607D216B41EA4030A16808439A
:1041A000217F40EA0145207F012803D1208C401E59
:1041B00045EA4045606A28B1A08C00F47870A16A95
:1041C000084305432068C0683F49084028432168E8
:1041D000C860206809F032FD8046206809F015FDAE
:1041E0000746B8F1000F3BD1D7BB207DE16A00E064
:1041F00050E041EA80352068C06844F203018843FA
:1042000028432168C86094F83800012817D1606AF3
:1042100008B1A06A00B900BFA08F401E012141EA89
:104220000041206C0843616C0843A16C084321687D
:104230000969264A114008432168086105E02068A1
:10424000006920F00100216808612068006920F001
:104250007040616B0843216808612046FCF796FABC
:10426000E068012809D12068006B20F00F00A169E7
:10427000491E08432168086305E02068006B20F0B0
:104280000F0021680863606D20F0020040F001001B
:10429000606505E0606D40F0100060654FF0010959
:1042A0004846D8E6C0FFFF5FC0FFFF7F2C00002418
:1042B000400D030000200240002102400023024084
:1042C000006302580060025803C0F0FF1EF800FCB3
:1042D00010B586B00446142101A8FCF7EAF9554947
:1042E000206888424FD154480068401C52490860F9
:1042F0000846006801280DD100BF5048006840F012
:1043000020004E4908600846006800F02000009038
:1043100000BF00BF00BF49480830006840F00200FD
:104320004649083108600846006800F00200009025
:1043300000BF00BF012001900320029000200390E5
:1043400001A93F4801F0DEFF3E483F4908600920CF
:10435000486000213C488160C1604FF48061016188
:1043600049004161890081614911C16100210162F7
:10437000416201F033FB08B1FEF7C0FA00BF3248DA
:10438000E064846354E031492068884250D12A486F
:104390000068401C284908600846006801280DD1C3
:1043A00000BF2648006840F0200024490860084605
:1043B000006800F02000009000BF00BF00BF1F4851
:1043C0000830006840F004001C49083108600846C5
:1043D000006800F00400009000BF00BF20200190A2
:1043E000032002900020039001A9194801F08AFFE0
:1043F00014481838174908600A20486000211548F9
:104400008160C1604FF480610161490041618900B0
:1044100081614911C16100210162416201F0DEFA4E
:1044200008B1FEF76BFA00BF0A48E064846300BF7E
:1044300006B010BD0020024018000024D8440258E5
:1044400000040258400402409C0300240021024062
:1044500000080258140400242DE9F04104460F46D8
:104460009046434A2168914203D0424A21689142D2
:1044700001D1414900E04149084609F0C1FB064627
:10448000206809F0DBFB00286ED100BF94F85000D3
:10449000012802D10220BDE8F081012084F85000FB
:1044A00000BF1EB1052E01D0092E57D12046FCF7C2
:1044B00057FB0546002D4CD1606D40F601618843E5
:1044C00040F4807060652B492068884201D12848FB
:1044D00000E020682168884200D01EB9606D20F499
:1044E00080106065606D00F4805020B1A06D20F0F8
:1044F0000600A06501E00020A0652148E16CC863CA
:104500002048E16C08642048E16CC8641C202168E4
:10451000086000BF002084F8500000BF2068406899
:1045200040F0100021684860E16A2068C26822F00B
:1045300003020A43C26000BF226802F14001434601
:104540003A46E06C01F0DAFC0546206809F08AFB87
:104550000BE000BF002084F8500006E0012500BFFA
:10456000002084F8500000E00225284693E7000070
:104570000020024000210240002302400063025854
:104580000D0A0008BD0A00089F0A000870B504461D
:1045900000BF94F85000012801D1022070BD012015
:1045A00084F8500000BF03212046FCF7A1F905461E
:1045B00055B92046FCF78AFA05462DB9606D20F4FE
:1045C000885040F00100606500BF002084F8500072
:1045D00000BF2846E2E770B5044600BF94F85000DB
:1045E000012801D1022070BD012084F8500000BFD5
:1045F00003212046FCF77CF905464DBB2068C068C6
:1046000020F003002168C860E06C90F835000228B3
:1046100008D1E06C00F024F805461DB1606D40F053
:10462000400060652068406820F010002168486004
:1046300025B92046FCF74AFA054602E02046FCF779
:1046400045FA2DB9606D20F4885040F00100606596
:1046500000BF002084F8500000BF2846C3E70000D8
:104660002DE9F041044601F067FF804614B90120AE
:10467000BDE8F08194F83500022808D080206065FC
:1046800000BF002084F8340000BF0120F0E7FE499D
:104690002068884249D0FC4918312068884244D0BB
:1046A000F9493031206888423FD0F74948312068C5
:1046B00088423AD0F44960312068884235D0F249C6
:1046C00078312068884230D0EF49903120688842A4
:1046D0002BD0ED49A8312068884226D0EB492068CC
:1046E000884222D0E9491831206888421DD0E74924
:1046F00030312068884218D0E44948312068884227
:1047000013D0E2496031206888420ED0DF49783109
:104710002068884209D0DD4990312068884204D061
:10472000DA49A8312068884206D12068006820F064
:1047300001002168086005E02068006820F00100A1
:1047400021680860D0492068884249D0CE49183194
:104750002068884244D0CC493031206888423FD01C
:10476000C9494831206888423AD0C7496031206839
:10477000884235D0C44978312068884230D0C24957
:104780009031206888422BD0BF49A83120688842E8
:1047900026D0BE492068884222D0BC491831206802
:1047A00088421DD0B94930312068884218D0B749B5
:1047B00048312068884213D0B4496031206888426B
:1047C0000ED0B24978312068884209D0AF49903183
:1047D0002068884204D0AD49A8312068884201D1C0
:1047E000012000E0002068B12068006820F01E0071
:1047F000216808602068406920F0800021684861D5
:10480000256806E02068006820F00E002168086036
:1048100025689D492068884270D09B4918312068DE
:1048200088426BD0984930312068884266D09649DA
:1048300048312068884261D09349603120688842BD
:104840005CD0914978312068884257D08E499031A8
:104850002068884252D08C49A831206888424DD0C7
:104860008A492068884249D088491831206888429E
:1048700044D086493031206888423FD0834948314E
:10488000206888423AD0814960312068884235D01A
:104890007E4978312068884230D07C499031206848
:1048A00088422BD07949A8312068884226D078499F
:1048B0002068884222D076491431206888421DD071
:1048C000734928312068884218D071493C312068EA
:1048D000884213D06E495031206888420ED06C490E
:1048E00064312068884209D069497831206888425B
:1048F00004D067498C312068884201D1012000E052
:10490000002028B1206E006820F48070216E0860BD
:1049100011E001F011FEA0EB080005280BD92020C2
:104920006065032084F8350000BF002084F834005F
:1049300000BF01209CE6286800F001000028E8D1B3
:1049400051492068884249D04F491831206888422F
:1049500044D04D493031206888423FD04A494831DF
:10496000206888423AD0484960312068884235D072
:10497000454978312068884230D0434990312068D9
:1049800088422BD04049A8312068884226D03F4930
:104990002068884222D03D491831206888421DD0C5
:1049A0003A4930312068884218D038494831206867
:1049B000884213D035496031206888420ED033498F
:1049C00078312068884209D0304990312068884287
:1049D00004D02E49A8312068884201D1012000E08E
:1049E000002040B1A66D94F85C0000F01F013F204C
:1049F0008840B06007E0A76D94F85C0000F01F01EC
:104A000001208840786020492068884276D01E497D
:104A100018312068884271D01B49303120688842A3
:104A20006CD0194948312068884267D016496031F6
:104A30002068884262D014497831206888425DD06D
:104A4000114990312068884258D00F49A831206818
:104A5000884253D00D49206888424FD00B49183105
:104A6000206888424AD0094930312068884245D0C0
:104A7000064948312068884240D0044960312068A6
:104A800088423BD0014905E010000240100402407A
:104A9000085402587831206888422FD02549206870
:104AA00088422BD0234918312068884226D02249D9
:104AB0002068884222D020491431206888421DD0C5
:104AC0001D4928312068884218D01B493C31206894
:104AD000884213D018495031206888420ED01649B8
:104AE00064312068884209D01349783120688842AF
:104AF00004D011498C312068884201D1012000E0A6
:104B0000002068B1D4E919104860E06E40B1E06E51
:104B1000006820F48070E16E0860D4E91C104860E1
:104B2000012084F8350000BF002084F8340000BF65
:104B300000BF9DE5A00402400854025870B5044629
:104B40000CB9012070BD94F83500022803D08020F4
:104B500060650120F6E7DC492068884249D0DA49DF
:104B600018312068884244D0D749303120688842C3
:104B70003FD0D5494831206888423AD0D249603187
:104B80002068884235D0D04978312068884230D0BA
:104B9000CD499031206888422BD0CB49A83120687C
:104BA000884226D0C9492068884222D0C749183196
:104BB000206888421DD0C54930312068884218D00D
:104BC000C24948312068884213D0C049603120680A
:104BD00088420ED0BD4978312068884209D0BB494F
:104BE00090312068884204D0B849A83120688842B2
:104BF00001D1012000E00020F0B3042084F835004A
:104C0000B149206888424BD0AF49183120688842AA
:104C100046D0AD4930312068884241D0AA49483158
:104C2000206888423CD0A84960312068884237D04B
:104C3000A54978312068884232D0A3499031206854
:104C400088422DD0A049A8312068884228D09F49A9
:104C50002068884224D09D491831206888421FD09E
:104C60009A493031206888421AD0984948312068E2
:104C7000884215D0954900E020E0603120688842E4
:104C80000ED0924978312068884209D08F499031FE
:104C90002068884204D08D49A8312068884206D116
:104CA0002068006820F001002168086009E12068A0
:104CB000006820F001002168086002E18249206854
:104CC000884249D0804918312068884244D07E49C2
:104CD0003031206888423FD07B4948312068884283
:104CE0003AD0794960312068884235D076497831A8
:104CF0002068884230D074499031206888422BD097
:104D00007149A8312068884226D0704920688842BD
:104D100022D06E491831206888421DD06B4930314D
:104D20002068884218D0694948312068884213D0E9
:104D300066496031206888420ED064497831206825
:104D4000884209D0614990312068884204D05F4987
:104D5000A8312068884206D12068006820F0010050
:104D60002168086005E02068006820F001002168E3
:104D700008602068006820F00E0021680860524931
:104D80002068884270D050491831206888426BD022
:104D90004D4930312068884266D04B4948312068FF
:104DA000884261D048496031206888425CD04649D9
:104DB00078312068884257D0434990312068884232
:104DC00052D04149A831206888424DD03F492068DF
:104DD000884249D03D4918312068884244D03B4937
:104DE0003031206888423FD03849483120688842B5
:104DF0003AD0364960312068884235D0334978311D
:104E00002068884230D031499031206888422BD0C8
:104E10002E49A8312068884226D02D492068884232
:104E200022D02B491431206888421DD028492831CE
:104E30002068884218D026493C312068884213D027
:104E400023495031206888420ED0214964312068BE
:104E5000884209D01E4978312068884204D01C4914
:104E60008C312068884201D1012000E00020D8B1B7
:104E7000206E006820F48070216E0860A56D94F8A3
:104E80005C0000F01F01012088406860D4E919101F
:104E90004860E06E40B1E06E006820F48070E16E22
:104EA0000860D4E91C104860012084F8350000BF78
:104EB000002084F8340000BF206D10B12046216D21
:104EC000884700203EE60000100002401004024027
:104ED000085402580146486D7047014691F8350064
:104EE000704700002DE9F84F044600200090FE486E
:104EF00000684FF41651B0FBF1FAA66DD4F8588053
:104F00003768D8F80090F9492068884249D0F749B5
:104F100018312068884244D0F449303120688842F2
:104F20003FD0F2494831206888423AD0EF49603199
:104F30002068884235D0ED4978312068884230D0E9
:104F4000EA499031206888422BD0E849A83120688E
:104F5000884226D0E6492068884222D0E4491831A8
:104F6000206888421DD0E24930312068884218D03C
:104F7000DF4948312068884213D0DD49603120681C
:104F800088420ED0DA4978312068884209D0D84961
:104F900090312068884204D0D549A83120688842E1
:104FA00001D1012000E0002000287DD094F85C00B1
:104FB00000F01F01082088403840002868D0CB4905
:104FC0002068884249D0C94918312068884244D0B5
:104FD000C6493031206888423FD0C44948312068F2
:104FE00088423AD0C14960312068884235D0BF49F3
:104FF00078312068884230D0BC499031206888429E
:105000002BD0BA49A8312068884226D0B8492068F8
:10501000884222D0B6491831206888421DD0B44950
:1050200030312068884218D0B14948312068884220
:1050300013D0AF496031206888420ED0AC49783136
:105040002068884209D0AA4990312068884204D05B
:10505000A749A8312068884204D12068006800F080
:10506000040003E02068006800F0080080B12068B8
:10507000006820F004002168086094F85C0000F0EB
:105080001F0108208840B060606D40F0010060653D
:1050900094F85C0000F01F01012088403840E8B31C
:1050A00092492068884200E0B7E24BD08F4918311E
:1050B0002068884246D08D4930312068884241D0EE
:1050C0008A494831206888423CD08849603120684C
:1050D000884237D0854978312068884232D0834968
:1050E0009031206888422DD08049A83120688842BC
:1050F00028D07F492068884224D07D491831206813
:1051000088421FD07A493031206888421AD07849C5
:1051100048312068884215D0754900E026E06031AA
:10512000206888420ED0724978312068884209D0C0
:105130006F4990312068884204D06D49A8312068B9
:10514000884204D12068406900F0800002E02068B5
:105150000068002050B194F85C0000F01F010120AD
:105160008840B060606D40F00200606594F85C00BB
:1051700000F01F01042088403840E8B35B492068F4
:1051800088424BD0594918312068884246D0574947
:1051900030312068884241D05449483120688842E3
:1051A0003CD0524960312068884237D04F4978312D
:1051B0002068884232D04D499031206888422DD0F5
:1051C0004A49A8312068884228D049492068884245
:1051D00024D047491831206888421FD044493031D3
:1051E000206888421AD0424948312068884215D048
:1051F0003F496031206800E024E088420ED03C49FD
:1052000078312068884209D0394990312068884235
:1052100004D03749A8312068884204D1206800684A
:1052200000F0020002E020680068002050B194F80D
:105230005C0000F01F0104208840B060606D40F009
:105240000400606594F85C0000F01F0110208840A5
:105250003840E8B325492068884251D023491831A5
:10526000206888424CD0214930312068884247D09C
:105270001E4948312068884242D01C49603120686C
:1052800088423DD0194978312068884238D0174982
:1052900090312068884233D01449A8312068884270
:1052A0002ED01349206888422AD01149183120682D
:1052B000884225D00E4930312068884220D00C49E0
:1052C0004831206888421BD009496031206800E0DD
:1052D0004DE0884214D006497831206888420FD0CA
:1052E00003499031206805E02C00002410000240A2
:1052F00010040240884203D0FE492068884204D14D
:105300002068006800F0080003E02068006800F0F2
:10531000040060B394F85C0000F01F011020884086
:10532000B0602068006800F4802080B120680068C8
:1053300000F4002028B9206CC8B12046216C8847B1
:1053400015E0A06C98B12046A16C88470FE020685A
:10535000006800F4807028B92068006820F0080018
:1053600021680860206C10B12046216C884794F8B1
:105370005C0000F01F0120208840384000287DD0CC
:10538000DD492068884249D0DB49183120688842CD
:1053900044D0D9493031206888423FD0D64948317D
:1053A000206888423AD0D44960312068884235D09C
:1053B000D14978312068884230D0CF499031206877
:1053C00088422BD0CC49A8312068884226D0C949D0
:1053D000A8392068884221D0C6499039206888427F
:1053E0001CD0C44978392068884217D0C149603937
:1053F0002068884212D0BF494839206888420DD0C1
:10540000BC4930392068884208D0BA491839206828
:10541000884203D0B7492068884204D120680068D8
:1054200000F0100003E02068006800F0020028B3DC
:1054300094F85C0000F01F0120208840B06094F8D0
:10544000350004282DD12068006820F0160021685E
:1054500008602068406920F0800021684861206C65
:1054600008B9A06C28B12068006820F00800216805
:10547000086094F85C0000F01F0100E03FE03F206E
:105480008840B060012084F8350000BF002084F817
:10549000340000BF206D10B12046216D8847BDE863
:1054A000F88F2068006800F4802080B120680068D0
:1054B00000F4002028B1606C08B32046616C884776
:1054C0001DE0E06BD8B12046E16B884717E020680B
:1054D000006800F4807068B92068006820F010004F
:1054E00021680860012084F8350000BF002084F89E
:1054F000340000BFE06B10B12046E16B8847606D5F
:1055000000287AD0606D00F00100E8B3042084F830
:1055100035007949206888424BD077491831206896
:10552000884246D0744930312068884241D072495F
:105530004831206888423CD06F49603120688842F9
:1055400037D06D4978312068884232D06A4990312D
:10555000206888422DD06849A8312068884228D028
:105560006449A8392068884223D06249903920686C
:1055700088421ED05F4978392068884219D05D4939
:1055800060392068884200E040E012D0594948392B
:10559000206888420DD0574930392068884208D0A9
:1055A000544918392068884203D0524920688842FB
:1055B00006D12068006820F001002168086005E03D
:1055C0002068006820F001002168086000BF009892
:1055D000401C0090504500D905E02068006800F0AC
:1055E00001000028F3D100BF2068006800F001002E
:1055F00020B1032084F8350003E00DE0012084F899
:10560000350000BF002084F8340000BFE06C0028A3
:1056100002D02046E16C8847D9E1384920688842A9
:1056200022D036491431206888421DD033492831B0
:105630002068884218D031493C312068884213D014
:105640002E495031206888420ED02C4964312068A0
:10565000884209D0294978312068884204D02749F6
:105660008C312068884201D1012000E00020002810
:10567000D2D02068056894F85C0000F01F01042077
:10568000884000EA0900D8B305F00400C0B394F8DC
:105690005C0000F01F0104208840C8F8040005F4F5
:1056A000004080B105F4803030B1A06C0028B3D048
:1056B0002046A16C88478AE1206C0028ACD02046A7
:1056C000216C884783E105F02000E8BB0A49206887
:1056D000884253D008491831206888424ED0064984
:1056E00030312068884249D00349483120688842D7
:1056F00044D006E0B80402401000024008540258AA
:105700004FE0B44960312068884237D0B1497831E0
:105710002068884232D0AF499031206888422DD02D
:10572000AC49A8312068884228D0AB49206888421B
:1057300024D0A9491831206888421FD0A6493031A9
:10574000206888421AD000E025E0A349483120684B
:10575000884213D0A0496031206888420ED09E490B
:1057600078312068884209D09B499031206888426E
:1057700004D09949A8312068884206D12068006881
:1057800020F008002168086005E02068006820F02B
:10579000040021680860206C10B32046216C884703
:1057A00015E194F85C0000F01F010220884000EA37
:1057B0000900E8B305F00200D0B394F85C0000F0F3
:1057C0001F0102208840C8F8040005F4004070B1B1
:1057D00005F4803028B9606C10B12046616C8847B0
:1057E000F5E0E06BF0B32046E16B8847EFE005F0B1
:1057F0002000C0BB7749206888424ED075491831D7
:105800002068884249D0734930312068884244D0AA
:1058100070494831206888423FD06E496031206825
:1058200088423AD06B4978312068884235D000E010
:105830004EE068499031206888422ED06549A831F1
:105840002068884229D064492068884225D062496E
:1058500018312068884220D05F4930312068884262
:105860001BD001E06EE02DE05B49483120688842A2
:1058700013D059496031206888420ED0564978319A
:105880002068884209D0544990312068884204D069
:105890005149A8312068884206D12068006820F06C
:1058A00014002168086005E02068006820F00A0004
:1058B00021680860012084F8350000BF002084F8CA
:1058C000340000BFE06BE8B32046E16B88477EE020
:1058D00094F85C0000F01F010820884000EA0900ED
:1058E00080B305F0080068B33A49206888424BD07D
:1058F000384918312068884246D03649303120680E
:10590000884241D033494831206888423CD03149EF
:1059100060312068884237D02E497831206888422B
:1059200032D02C499031206888422DD02949A831A5
:105930002068884228D028492068884224D02649F7
:10594000183100E043E0206888421DD02249303100
:105950002068884218D0204948312068884213D0F6
:105960001D496031206888420ED01B49783120687B
:10597000884209D0184990312068884204D01649DD
:10598000A8312068884206D12068006820F01C00F9
:105990002168086005E02068006820F00E0021689A
:1059A000086094F85C0000F01F0101208840C8F8EE
:1059B00004000120606584F8350000BF002084F8F1
:1059C000340000BFE06C10B12046E16C884700BF96
:1059D00065E5000010000240100402402DE9F0418E
:1059E000044600F0A9FD804614B90120BDE8F0810D
:1059F000FE492068884249D0FC4918312068884215
:105A000044D0FA493031206888423FD0F7494831C4
:105A1000206888423AD0F54960312068884235D004
:105A2000F24978312068884230D0F04990312068BE
:105A300088422BD0ED49A8312068884226D0EC4915
:105A40002068884222D0EA491831206888421DD057
:105A5000E74930312068884218D0E549483120684C
:105A6000884213D0E2496031206888420ED0E04974
:105A700078312068884209D0DD4990312068884219
:105A800004D0DB49A8312068884201D1012000E020
:105A90000020002873D0606A00B100BF022084F8A3
:105AA000350000BF002084F8340000BFCF492068D3
:105AB000884249D0CD4918312068884244D0CB492A
:105AC0003031206888423FD0C84948312068884238
:105AD0003AD0C64960312068884235D0C349783110
