:020000040800F2
:1000000018A3002441040008E5CA000893A60008CC
:10001000E1CA0008010C0008F7F900080000000020
:100020000000000000000000000000008103000844
:100030004113000800000000DD030008A1D80008FB
:100040005F0400085F0400085F0400085F04000804
:100050005F0400085F0400085F0400085F040008F4
:100060005F0400085F0400085F040008290C000812
:10007000390C0008490C0008590C0008690C0008EC
:10008000790C0008890C00085F0400085F04000870
:100090005F0400085F0400085F0400085F040008B4
:1000A0005F0400085F0400085F0400085F040008A4
:1000B0005F040008D9DA00085F040008A9A6000858
:1000C00099A600085F0400085F0400085F040008A8
:1000D0005F04000871F5000881F5000891F500083B
:1000E0005F0400085F040008000000005F040008CF
:1000F0005F040008E9DA00085F040008990C0008B2
:100100005F0400085F0400085F0400085DD3000876
:1001100061E0000871E000085F0400085F04000867
:10012000A90C0008B90C0008C90C0008D90C00087B
:10013000E90C00085F0400085F0400085F04000881
:1001400000000000000000000000000000000000AF
:10015000F90C0008090D0008190D0008A1F50008A8
:100160005F0400085F0400085F0400085F040008E3
:100170005F0400085F0400085F040008000000003E
:100180005F0400085F04000881E0000891E00008B7
:100190005F0400085F0400085F0400085F040008B3
:1001A0005F0400085F0400085F0400085F040008A3
:1001B0005F0400085F0400085F0400085F04000893
:1001C0005F0400085F0400085F0400085F04000883
:1001D0005F0400085F0400085F0400085F04000873
:1001E0005F0400085F0400085F0400085F04000863
:1001F0005F0400085F0400085F0400085F04000853
:100200005F0400085F0400085F0400085F04000842
:100210005F040008B9DA0008C9DA00085F040008C2
:100220005F0400085F0400085F040008000000008D
:100230005F0400085F040008000000005F0400087D
:100240005F0400085F0400085F0400085F04000802
:100250005F0400085F0400085F0400085F040008F2
:100260005F0400085F0400085F0400085F040008E2
:100270005F0400085F0400085F040008000000003D
:100280005F0400085F0400085F040008000000002D
:10029000000000005F04000800F002F800F061F8C0
:1002A0000AA090E8000C82448344AAF10107DA45D1
:1002B00001D100F056F8AFF2090EBAE80F0013F0C2
:1002C000010F18BFFB1A43F001031847E02B010090
:1002D000002C01000A444FF0000C10F8013B13F011
:1002E000070408BF10F8014B1D1108BF10F8015B8F
:1002F000641E05D010F8016B641E01F8016BF9D182
:1003000013F0080F1EBF10F8014BAD1C0C1B09D1D8
:100310006D1E58BF01F801CBFAD505E014F8016B4A
:1003200001F8016B6D1EF9D59142D6D370470000DC
:100330000023002400250026103A28BF78C1FBD8EE
:10034000520728BF30C148BF0B607047642900F0D6
:100350001F81002070471FB511F0C2FF1FBD10B5EF
:1003600010BD00F06DFB1146FFF7F5FF0FF0A3FB8A
:1003700000F08BFB03B4FFF7F2FF03BC0FF061FB4F
:100380002C4B19680868B0E8F04F80F30988BFF378
:100390006F8F4FF0000080F311887047000000005D
:1003A00008480068006880F308884FF0000080F378
:1003B000148862B661B6BFF34F8FBFF36F8F00DF53
:1003C00000BF00BF08ED00E0DFF80C00016841F459
:1003D00070010160704700BF88ED00E0EFF3098015
:1003E000BFF36F8F134B1A681EF0100F08BF20ED7C
:1003F000108A20E9F04F106009B44FF0500080F3EC
:100400001188BFF34F8FBFF36F8F10F0E7FD4FF0F0
:10041000000080F3118809BC19680868B0E8F04F43
:100420001EF0100F08BFB0EC108A80F30988BFF3EC
:100430006F8F704730000024EFF305807047000095
:100440000A4880470A4880470A480047FEE7FEE717
:10045000FEE7FEE7FEE7FEE7FEE7FEE7FEE7FEE774
:1004600005480649064A074B70470000B9160008C0
:1004700091D90008990200081873002418A30024D9
:100480001883002418830024704753EA020C00F0FC
:1004900069802DE9F04B4FF00006002B1FBFB3FA27
:1004A00083F503FA05F424FA05F65E4012BF1643FD
:1004B000B2FA82F502FA05F4C5F120051EBF22FA50
:1004C00005FC44EA0C04203556EA044C4FEA144477
:1004D00018BF641C4FF000084FF00009904271EB08
:1004E000030C39D3002919BFB1FA81F701FA07F6D5
:1004F000B0FA80F700FA07F6C7F120071EBF20FA0E
:1005000007FC46EA0C062037B6FBF4FCA7EB050710
:10051000103F07F01F0BCBF120060CFA0BFB2CFA57
:1005200006F644BFB3460026202FA4BF5E464FF018
:10053000000B5BEA060C08BF4FF0010B19EB0B092F
:10054000ABFB027C48EB0608C01B06FB02CC0BFB96
:1005500003CC71EB0C01C1E70B460246414648460D
:10056000BDE8F08B13B54FF000004FF00001AFF382
:100570000080BDE81C4070470FB4044910B503AAC1
:10058000029800F011FA10BC5DF814FBB4000024CE
:100590002DE9F0410646002410687529314616A55C
:1005A00010D0AFF30080002802DA404213A507E024
:1005B00031688A0701D512A502E0490704D511A5C3
:1005C000012401E0AFF3008000210A2206F1240794
:1005D00009E0B0FBF2FCB0FBF2F302FB1C00303090
:1005E00078541846491C0028F3D123462A46304641
:1005F000BDE8F04100F066B9000000002D000000E9
:100600002B000000200000002DE9F05F8946044621
:100610004FF0000ADFF874B1FB44C0F820A0204678
:10062000E1688847002874D0252806D0D4E9012144
:100630009047206A401C2062F1E700265F46204672
:10064000E16888472028054607DB312D05D2781957
:1006500010F8200C08B10643F1E7B00701D526F0E9
:100660000406C4F81CA00027C4F818A02A2D09D03D
:1006700028460FF0DFF938B304EB8708303DC8F89F
:10068000185019E059F8041B204604EB87029161C9
:10069000E1688847012F054618D1E069002820DA73
:1006A00026F020061DE0D8F8180000EB800005EBCE
:1006B00040003038C8F818002046E16888470546F1
:1006C0000FF0B8F90028EED1012F0AD02E2D08D155
:1006D0002046E16888477F1C0546022F46F0200629
:1006E000C4DBA069002803DA404246F00106A0619D
:1006F000F00701D026F010066C2D0BD0682D09D024
:100700004C2D39D06A2D35D0742D35D07A2D33D07B
:1007100016E038E0E1682F4620468847B842054693
:1007200009D16C2F26D04FF48060E1680643204643
:100730008847054604E06C2F1AD04FF480700643BA
:100740000DB3A5F14100192802D8203546F4006602
:100750004A462946204626604E46FFF7F7FD80B1FF
:1007600001280BD0F61D26F0070000F1080956E716
:100770004020E4E78020D8E70020D6E706F104090E
:100780004DE7284652E7206ABDE8F09F4E28010059
:10079000032A40F2308010F0030C00F0158011F8AD
:1007A000013BBCF1020F624498BF11F801CB00F885
:1007B000013B38BF11F8013BA2F1040298BF00F8D9
:1007C00001CB38BF00F8013B11F0030300F0FE80BD
:1007D000083AC0F0088051F8043B083A51F804CBBD
:1007E000A0E80810F5E7121D5CBF51F8043B40F883
:1007F000043BAFF30080D20724BF11F8013B11F88E
:1008000001CB48BF11F8012B24BF00F8013B00F8D1
:1008100001CB48BF00F8012B704702F0FF0343EA09
:10082000032242EA024200F002B84FF0000204291B
:10083000C0F0128010F0030C00F01B80CCF1040C0F
:10084000BCF1020F18BF00F8012BA8BF20F8022B43
:10085000A1EB0C0100F00DB85FEAC17C24BF00F8E9
:10086000012B00F8012B48BF00F8012B70474FF017
:10087000000200B5134694469646203922BFA0E8F0
:100880000C50A0E80C50B1F12001BFF4F7AF0907FC
:1008900028BFA0E80C5048BF0CC05DF804EB8900ED
:1008A00028BF40F8042B08BF704748BF20F8022B30
:1008B00011F0804F18BF00F8012B70477047704748
:1008C000704770472DE9F0470D4699469246044619
:1008D00000F124080168880604D5E06921F01001C0
:1008E000216000E00120A84201DD471B00E0002755
:1008F000A1697A1902EB0900081AA0612078C006E4
:1009000002D42046AFF30080002608E0D4E901219C
:100910001AF806009047206A401C761C20624E455B
:10092000F4DB2078C0060AD52046AFF3008006E04D
:10093000D4E9012130209047206A401C2062381EF3
:10094000A7F10107F4DC07E0D4E9012118F805005C
:100950009047206A401C2062281EA5F10105F3DCA7
:100960002046AFF300802078000602D50220BDE8C3
:10097000F0870120FBE7000001694A1C026108784A
:10098000704700B58FB0CDE90131002105910549CF
:100990007944CDE9031011466846FFF735FE0FB0E4
:1009A00000BD0000E5FFFFFF074B70B50D467B441F
:1009B000FFF7E7FF0446284600F03AF810B14FF081
:1009C000FF3070BD204670BDCFF0000010B5203A5A
:1009D000C0F00B80B1E81850203AA0E81850B1E8F8
:1009E0001850A0E81850BFF4F5AF5FEA027C24BFAE
:1009F000B1E81850A0E8185044BF18C918C0BDE8A5
:100A000010405FEA827C24BF51F8043B40F8043B6D
:100A100008BF7047D20728BF31F8023B48BF11F822
:100A2000012B28BF20F8023B48BF00F8012B70477C
:100A3000007B00F08000704700487047B8720024C7
:100A40007546FFF7F9FFAE4605006946534620F0AC
:100A50000700854618B020B5FFF702FDBDE820402D
:100A60004FF000064FF000074FF000084FF0000B6A
:100A700021F00701AC46ACE8C009ACE8C009ACE81D
:100A8000C009ACE8C0098D46704710B50446AFF305
:100A900000802046BDE81040FFF76CBC70B50446EE
:100AA0004F492068884203D04E492068884208D1C7
:100AB0004D48006800F4403008B1012009E00020F2
:100AC00007E04A48006800F4403008B1012000E027
:100AD0000020B8B106F08CFE05466068B0F5803F96
:100AE00006D0B0F5003F04D0B0F5403F08D105E096
:100AF00000BF6068000CB5FBF0F502E0AD0800E057
:100B000000BF2BE04FF40020002105F09FF90546BF
:100B10006068C0F31101F9B980140C281CD2DFE819
:100B200000F01B060708090A0B111315171900BF5F
:100B300000BF00BF00BF00BF6068800C4000B5FB75
:100B4000F0F50AE02D0908E06D0906E0AD0904E0C2
:100B5000ED0902E02D0A00E000BF00BF04F04EF8EE
:100B600041F20301884210D82148854206D9206805
:100B7000806840F48070216888602FE02068806879
:100B800020F480702168886028E06D08194885424B
:100B900006D82068806820F44070216888601DE0D5
:100BA0001548854208D82068806820F4407040F4D9
:100BB00080702168886011E01048854208D820685C
:100BC000806820F4407040F400702168886005E07F
:100BD0002068806840F440702168886070BD000023
:100BE000002002400021024008230240086302580E
:100BF000002D3101105E5F0020BCBE0040787D01F9
:100C000000BFFEE701B97047064A0B88A2F801361B
:100C10008B7882F8033610700122024B5A7000BFA5
:100C2000F1E700007469002410B5024802F006FCE8
:100C300010BD0000000E002410B5024802F0FEFBBB
:100C400010BD0000780E002410B5024802F0F6FB3B
:100C500010BD0000680F002410B5024802F0EEFB42
:100C600010BD0000F00E002410B5024802F0E6FBB3
:100C700010BD00005810002410B5024802F0DEFB41
:100C800010BD00008007002410B5024802F0D6FB1A
:100C900010BD0000F807002410B5024802F0CEFB9A
:100CA00010BD00007008002410B5024802F0C6FB19
:100CB00010BD0000E808002410B5024802F0BEFB99
:100CC00010BD00008402002410B5024802F0B6FBFB
:100CD00010BD00000C02002410B5024802F0AEFB6B
:100CE00010BD0000A005002410B5024802F0A6FBCC
:100CF00010BD00001806002410B5024802F09EFB4B
:100D000010BD0000E00F002410B5024802F096FB71
:100D100010BD00009006002410B5024802F08EFBC2
:100D200010BD0000080700240146374A08689042B9
:100D300049D0354A18320868904244D0324A30329D
:100D4000086890423FD0304A4832086890423AD012
:100D50002D4A60320868904235D02B4A78320868B4
:100D6000904230D0284A9032086890422BD0264AD0
:100D7000A8320868904226D0244A0868904222D0BF
:100D8000224A1832086890421DD0204A3032086842
:100D9000904218D01D4A48320868904213D01B4A2E
:100DA0006032086890420ED0184A78320868904243
:100DB00009D0164A90320868904204D0134AA832EB
:100DC0000868904201D1012000E00020B0B10A780B
:100DD000103A1823B2FBF3F000F007020C4B9A5CB8
:100DE000CA65032805D90A686FF30902121D8A65CE
:100DF00003E00A686FF309028A6503E0086820F0DF
:100E0000FF008865886D70471000024010040240A2
:100E10007C23010810B502682B4C0368A34222D042
:100E2000294C14340368A3421DD0274C283403688E
:100E3000A34218D0244C3C340368A34213D0224C64
:100E400050340368A3420ED01F4C64340368A3429D
:100E500009D01D4C78340368A34204D01A4C8C345A
:100E60000368A34201D1012300E000238BB1037882
:100E7000083B1424B3FBF4F1144B03EB810303662A
:100E8000124B8033436601F01F040123A3408366A5
:100E900018E00378103B1824B3FBF4F10C4B9A4292
:100EA00004D80B4BA83B9A4200D30831094B03EB03
:100EB00081030366074B8033436601F01F0401235F
:100EC000A340836610BD0000085402580058025821
:100ED000B8040240000802400179A9B3082940D8AB
:100EE000204B02689A4222D01E4B143302689A4269
:100EF0001DD01C4B283302689A4218D0194B3C3342
:100F000002689A4213D0174B503302689A420ED0AF
:100F1000144B643302689A4209D0124B783302684A
:100F20009A4204D00F4B8C3302689A4201D10122BD
:100F300000E000224AB14A1E0B4B03EB8202C2665C
:100F4000094A4032026708E00BE04A1E074B03EBF8
:100F50008202C266054A403202674A1E012393405C
:100F6000436770470854025800590258000902406C
:100F7000014600208A69D2B98A6A32B1012A0DD0AD
:100F8000022A03D0032A10D10EE000BFCA6A02F081
:100F90008072B2F1807F00D1012007E0CA6AB2F10D
:100FA000C07F00D1012001E000E000BF36E08A6987
:100FB000B2F5005F1BD18A6A32B1012A07D0022A3A
:100FC00003D0032A11D10AE000BF01200EE0CA6A53
:100FD00002F08072B2F1807F00D1012006E0CA6A7F
:100FE000B2F1C07F00D1012000E000BF16E08A6AA4
:100FF00032B1012A05D0022A04D0032A0CD103E021
:1010000000BF00BF012008E0CA6A02F08072B2F19E
:10101000807F00D1012000E000BF00BF70470000CA
:10102000F0B5856D846D984F0668BE4270D0964FBE
:1010300018370668BE426BD0934F30370668BE4201
:1010400066D0914F48370668BE4261D08E4F6037F8
:101050000668BE425CD08C4F78370668BE4257D0D7
:10106000894F90370668BE4252D0874FA83706682E
:10107000BE424DD0854F0668BE4249D0834F1837D7
:101080000668BE4244D0814F30370668BE423FD02A
:101090007E4F48370668BE423AD07C4F60370668BC
:1010A000BE4235D0794F78370668BE4230D0774F90
:1010B00090370668BE422BD0744FA8370668BE42F0
:1010C00026D0734F0668BE4222D0714F143706688F
:1010D000BE421DD06E4F28370668BE4218D06C4FF6
:1010E0003C370668BE4213D0694F50370668BE428F
:1010F0000ED0674F64370668BE4209D0644F783718
:101100000668BE4204D0624F8C370668BE4201D1E9
:10111000012600E000263EB1D0E919767E60C66E59
:1011200016B1D0E91C767E60574F0668BE4249D0A2
:10113000554F18370668BE4244D0534F30370668C3
:10114000BE423FD0504F48370668BE423AD04E4F5D
:1011500060370668BE4235D04B4F78370668BE42CE
:1011600030D0494F90370668BE422BD0464FA83743
:101170000668BE4226D0454F0668BE4222D0434F85
:1011800018370668BE421DD0404F30370668BE4251
:1011900018D03E4F48370668BE4213D03B4F6037E9
:1011A0000668BE420ED0394F78370668BE4209D075
:1011B000364F90370668BE4204D0344FA8370668D1
:1011C000BE4201D1012600E00026DEB190F85C604D
:1011D00006F01F073F26BE40AE600668366826F45C
:1011E000802607683E60066873608668402E04D1DA
:1011F0000668B2600668F16044E00668B16006689F
:10120000F2603FE0224F0668BE4222D0204F1437E2
:101210000668BE421DD01E4F28370668BE4218D051
:101220001B4F3C370668BE4213D0194F5037066833
:10123000BE420ED0164F64370668BE4209D0144F26
:1012400078370668BE4204D0114F8C370668BE421C
:1012500001D1012600E00026A6B190F85C6006F0FE
:101260001F070126BE406660066873608668402ED0
:1012700004D10668B2600668F16003E00668B160F8
:101280000668F260F0BD0000100002401004024049
:101290000854025800B54FF480722649264800F0E1
:1012A00092FAFF20254981F84E0000212348A0F83A
:1012B0005010A0F85210FF20204981F8800114211D
:1012C0001E48A0F882110121A0F88411FF201B49BB
:1012D00081F8320100211948A0F83411A0F8361124
:1012E000FF20164981F8380100211448A0F83A116E
:1012F000A0F83C11FF20114981F8860100210F4818
:10130000A0F88811A0F88A11FF200C4981F8400547
:1013100000210A48A0F84215A0F84415FF2007490B
:1013200081F84C0500210548A0F84E15A0F850158D
:1013300000BD0000C0700024240100247469002452
:101340007047000010B554210848FFF76EFA1421C9
:101350000748FFF76AFA002004490870012081F865
:101360003A0081F83B0000F075F810BD4A72002485
:101370002872002470B52DED028BB0EE408A002556
:10138000B0EE480A0BF03AFF2E4890F83A000028D9
:1013900046D12C480078012813D100240EE02949B9
:1013A000891C31F914004FF4FA6251100BF01AFF46
:1013B00024493C3121F81400601CC4B20A2CEEDB35
:1013C00014E020480078022810D100240CE01D49C8
:1013D000163131F914000CF05DF8014619483C3023
:1013E00020F81410601CC4B20A2CF0DB1548B0F9C8
:1013F0004400B0F5966F05DD1248B0F94400B0F531
:10140000AF6F0BDB0F48B0F94400B0F5C86F0DDDCE
:101410000C48B0F94400B0F5E16F07DA012505E0AA
:101420000125142107483C30FFF7FFF9054880F8F3
:101430003B50142200F13C010348FFF7A9F9BDEC31
:10144000028B70BD4A7200242872002410B50CF083
:10145000FBFD10BD10B5164808F044F9144808F01B
:10146000BDF9144812490860134848604FF4805190
:101470000F4881604900C160C910016104214161C8
:1014800000218161C161016241620A2008498862CC
:101490004FF48031064801634910816308F029FC4C
:1014A00020B901220549024809F060F810BD00008A
:1014B0001C0B0024007C0040A08601003A0100249F
:1014C00070B504460D4604B105B970BD2A462146E3
:1014D000074809F081F840B90648006828B14FF084
:1014E000FF310448006810F0D5F900BFEDE70000B7
:1014F000600900240000002410B500F015F810BDAC
:1015000010B50648064908604FF4167301220549D4
:101510000348006800F03EF910BD00005C6500243F
:10152000B80000240363002410B50F2239493A485B
:1015300008F036F8394800683949884258D03748A9
:10154000006837491831884252D03448006834491D
:10155000303188424CD031480068314948318842A6
:1015600046D02E4800682E496031884240D02B4832
:1015700000682B49783188423AD0284800682849C9
:101580009031884234D0254800682549A8318842E6
:101590002ED0224800682349884229D01F4800687D
:1015A00020491831884223D01C4800681D49303139
:1015B00088421DD0194800681A494831884217D01E
:1015C0001648006817496031884211D013480068F6
:1015D0001449783188420BD0104800681149903185
:1015E000884205D00D4800680E49A831884208D1CC
:1015F0000A480068006820F0080008490968086087
:1016000007E006480068006820F004000349096804
:10161000086010BDF462002460090024780E0024E4
:10162000100002401004024010B50446064800684D
:1016300038B10F2C05DC224604490348006800F04D
:101640004DF8FFF771FF10BDB8000024F4620024CC
:1016500008B5002000900A48006880B16946084833
:1016600000680FF0D9FF00BF009838B14FF08050EC
:1016700004490860BFF34F8FBFF36F8F00BF08BDF1
:101680000000002404ED00E010B50022042107480A
:1016900003F0AEFA00220221044803F0A9FA002266
:1016A0000821024803F0A4FA10BD0000000C025803
:1016B00072B600BFFEE700000748006840F0020075
:1016C0000549086000BF04480838006800F400506D
:1016D0000028F8D0704700000C4802582DE9F0416E
:1016E00004460D4616464FF000082F460AE03946DC
:1016F000204600F00FF820B12069074408F10108E6
:1017000000E003E0301EA6F10106F0D100BF404624
:10171000BDE8F08170B504460E46204600F04AF858
:1017200008B1002070BD6569A168236901FB035001
:101730001A463146FFF72CF8A068401CA060A0684C
:101740002168884201D30020A060E068401CE0606E
:101750000120E7E770B504460D46204600F023F867
:1017600008B1002070BD66696068236900FB0361F1
:101770001A462846FFF70CF86068401C60606068F5
:101780002168884201D300206060E068401EE0606C
:101790000120E7E710B54161026103600024446065
:1017A0008460C46010BD0146C86808B90120704754
:1017B0000020FCE70146C8680A68904201D1012078
:1017C00070470020FCE7016000238380C2807047DF
:1017D00070B50B4681881144C488A1420BDC0021FE
:1017E00007E05D5C8688741C84800468A5554C1CE9
:1017F000A1B29142F5DB70BD8288C3889A4204DAB7
:1018000083885A1C82800268D154704730B50546DF
:101810000C46E1B22846FFF7EFFF21122846FFF7FA
:10182000EBFF30BD70B506460D46002408E0E00031
:1018300025FA00F0C1B23046FFF7DEFF601CC4B2EB
:10184000042CF4DB70BD0000F8B50020009003F01C
:10185000DBF90646002491E004EB84024A4B03EBDB
:101860008202918804EB840253F8220003F0B8F955
:1018700004EB8401444A02EB8101897909B1012119
:1018800000E00021884201D1012000E0002005464F
:1018900004EB84003C4901EB8000007BA8420AD0A5
:1018A00004EB840001EB8000057304EB840001EB82
:1018B000800086600DE004EB8400334901EB80007A
:1018C0008068301A142804D304EB840001EB8000F4
:1018D000457304EB84002C4901EB8000407B90B100
:1018E00004EB840001EB8000807B60B904EB840092
:1018F00001EB8000006930B104EB8401224A02EB65
:1019000081010869804704EB84001F4901EB8000D6
:10191000407B04EB84011C4A02EB8101887334B1E3
:10192000012C0DD0022C14D0032C24D11AE004EB8E
:101930008400154901EB8000407B8DF800001AE01F
:1019400004EB8400104901EB8000407B8DF801001E
:1019500011E004EB84000C4901EB8000407B8DF822
:10196000020008E004EB8400074901EB8000407BA3
:101970008DF8030000BF00BF601CC4B2042CFFF44C
:101980006BAF0098F8BD0000BC00002410B5044601
:101990004248007860B9AA2C0AD101203F4908705A
:1019A00000203F4908703F4908703F48047073E0C9
:1019B0003A480078012809D1FF2C01D0612C05D1CB
:1019C0000220364908703848447065E03348007892
:1019D000022805D1032031490870334884705BE048
:1019E0002E480078032809D1FA2C07DA04202B4965
:1019F00008702D48C4702A4804704DE027480078CC
:101A0000042819D126480078002815DD24480078DC
:101A1000401E234908702348007822490978491C50
:101A2000204A1170001D20490C541D48007858BBF5
:101A300005201A4908702FE01848007805280DD1B4
:101A40000620164908701748007816490978491C7D
:101A5000144A1170001D14490C541DE00F48007801
:101A6000062812D100200D4908700E480078001D8C
:101A70000D490C540B480078401D0C49087008466D
:101A80000178094800F01AF806E0002003490870C0
:101A9000034908700349087010BD00003301002499
:101AA0003101002432010024C06F002430010024E1
:101AB00010B540200AF058F910BD00002DE9F041A2
:101AC00004460D4600260027E178A81F814201D078
:101AD000BDE8F081002006E0215C3144CEB2B919A6
:101AE000CFB2411CC8B2A91E8142F5DC601910F8C2
:101AF000020CB04204D1601910F8010CB84200D0B9
:101B0000E6E72078AA2805D16078FF2803D060781E
:101B1000612800D0DCE7A078202831D1201D0DF00D
:101B2000C4FF7D490880A01D0DF0BFFF7A494880A1
:101B300004F108000DF0B9FF7749888004F10A002C
:101B40000DF0B3FF7449C88004F10C000DF0ADFF37
:101B50007149088104F10E000DF0A7FF6E4948811C
:101B600004F110000DF0A1FF6B49888104F112000F
:101B70000DF09BFF6849C881012068490870C9E0E1
:101B8000A0780F2809D120796549087060794870DC
:101B9000A0798870E079C870BCE0A07806280CD1E4
:101BA00020796049087060794870A0798870E1797F
:101BB0005C48C170217A0171ACE0A07807280AD195
:101BC000002005E0211D095C574A1154411CC8B290
:101BD0000628F7DB9EE0A07805280AD1002005E062
:101BE000211D095C514A1154411CC8B20928F7DB78
:101BF00090E0A078012824D1201D0DF04FFF4C4922
:101C00000880A01D0DF04AFF4949488004F10800F2
:101C10000DF044FF4649888004F10A000DF03EFFB4
:101C20004349C88004F10C000DF038FF4049088199
:101C300004F10E000DF032FF3D494881207C08730D
:101C400068E0A078042818D1201D0DF027FF39493D
:101C50000880A01D0DF022FF3649488004F10800DD
:101C60000DF01CFF3349888004F10A000DF016FFC7
:101C70003049C880207B08724CE0A078E02813D15E
:101C80002079012802D0102802D100E001E000E014
:101C900000BF00BF20792849087008464670877049
:101CA000AF20FEF7AFFF35E0A078B0B9234890F839
:101CB0000406217988422DD1204890F805066179E3
:101CC000884227D11D4890F80606A179884221D183
:101CD00000201A4981F800061CE0A078E1280DD107
:101CE000201D0DF0E2FE80461548A0F8008000207F
:101CF00013494860FF200EF037F80BE0A078E22887
:101D000008D120790C490870084646708770FF207A
:101D1000FEF778FF00BFDBE69A6F00241001002475
:101D2000B00000243401002411010024AA6F002413
:101D3000B36F0024906F00241701002474690024FD
:101D40001C0100242DE9FC4104460F460025002615
:101D5000A846322225496846FFF735FDAA21684684
:101D6000FFF74AFD39786846FFF746FD2146684689
:101D7000FFF742FD00216846FFF73EFD6946204619
:101D80000BF062FCBDF80400001F1FFA80F8174931
:101D900081F80380002007E01449095C2944CDB292
:101DA0007119CEB2411C88B2BDF804108142F3DC37
:101DB00029466846FFF720FD31466846FFF71CFDBF
:101DC0000B4890F8000640B1E02C06D1084880F896
:101DD000044680F8055680F80666BDF80400C1B2D6
:101DE000024800F007F8BDE8FC810000C071002443
:101DF0007469002470B504460D4629462046FFF755
:101E00005FFB70BD2DE9F04399B004460E464FF0DC
:101E10000008306800B100BF00BF94F850000128EE
:101E200003D1022019B0BDE8F083012084F85000EE
:101E300000BF00201590169046492068884202D1C4
:101E40004548009001E000200090009850B9606D76
:101E500040F02000606500BF002084F8500000BF03
:101E60000120DFE7009809F074FF0746206809F0B9
:101E700070FF002861D1002F5FD136492068884269
:101E800003D035492068884201D1344800E0344805
:101E90000546306858B3A86820F44040716808438C
:101EA000A8602C492068884203D02B4920688842CA
:101EB00001D12A4800E02A482849884209D125480A
:101EC00009F038FF8146244809F034FF49EA000050
:101ED00002E0244809F02EFF70BBB1683068084367
:101EE000A96840F61F7291430843A8602BE0A868D8
:101EF00020F44040A86017492068884203D0164962
:101F00002068884201D1154800E0154813498842ED
:101F100009D1104809F00EFF81460F4809F00AFF69
:101F200049EA000002E00F4809F004FF20B9A86860
:101F300040F61F718843A86005E0606D40F0200006
:101F400060654FF0010800BF002084F8500000BF1A
:101F5000404667E700200240002102400023024083
:101F600000630258006002582DE9F84F04460D4600
:101F70004FF0000A0020009094F83800012800D1AA
:101F800000E000BFF8492068884200D100BFF7494F
:101F9000E868884200D00EE0F5492068884200D108
:101FA00000BFF4492068884200D100BFEE49206894
:101FB000884200D100BF00BF94F85000012802D130
:101FC0000220BDE8F88F012084F8500000BF20688F
:101FD00009F0BAFE002870D1286800F00040A8B9C6
:101FE0002068C1692868C0F3130018B92868C0F3D5
:101FF000846004E0286890FAA0F0B0FA80F000F065
:102000001F020120904001432068C1612168D5E989
:10201000002001F1300CC0F3012B0CEB8B03D3F843
:1020200000C000F01F0E4FF01F0B0BFA0EFB2CEA46
:102030000B0C00F01F0BC2F3846E0EFA0BFE4CEA81
:102040000E0CC3F800C000BF206809F07DFE814679
:10205000206809F065FE8046B9F1000F78D1B8F12B
:10206000000FFBD12268AB68286802F1140CC0F3A2
:10207000406B0CEB8B01D1F800C0C0F3045E4FF055
:10208000070B0BFA0EFB2CEA0B0CC0F3045B03FAF4
:102090000BFB4CEA0B0CC1F800C000BFB64800684F
:1020A00000F07040B0F1805F08D168692168C968AC
:1020B000C1F382014900884015E014E22068C0683D
:1020C00000F0100038B968692168C968C1F382015D
:1020D0004900884007E068692168C96801F010017B
:1020E0008908490088400746286904283FD02068AD
:1020F0002A68296900F1600C0CEB8103D3F800C059
:102100000CF0004C02F0F84B4BEA070B4CEA0B0CBE
:10211000C3F800C000BF20686A7E2969012A01D186
:10212000D20700E00022134600F1600C0CEB8102A4
:10213000D2F800C02CF0004C4CEA030CC2F800C0EE
:1021400000BF20682B7E2969012B02D1DB0201E050
:1021500045E000231A46036923F4F04301F01F0C05
:1021600002FA0CFC43EA0C03036100BF37E020686D
:10217000006E00F0F8402978B0EB816F05D120683F
:10218000006E20F00040216808662068406E00F074
:10219000F8402978B0EB816F05D12068406E20F0BF
:1021A0000040216848662068806E00F0F840297879
:1021B000B0EB816F05D12068806E20F0004021686F
:1021C00088662068C06E00F0F8402978B0EB816F17
:1021D00005D12068C06E20F000402168C8662068E4
:1021E00009F0A3FD002871D12068EA682968D0F8B9
:1021F000C030C1F3130C23EA0C0302F0180BDFF814
:102200007CC12CFA0BFC0CEA010C43EA0C03C0F86D
:10221000C03000BF5549E868884270D1544B2068EF
:1022200098423DD1564B2A689A4201D1012276E06C
:10223000544B2A689A4201D1534A70E0534B2A68A2
:102240009A4201D1524A6AE0524B2A689A4201D11D
:10225000514A64E0514B2A689A4201D1504A5EE0EB
:10226000504B2A689A4201D14F4A58E04E4B2A6897
:102270009A4201D14D4A52E04C4B2A689A4201D110
:102280004B4A4CE04B4B2A689A4201D14A4A46E0FD
:102290004A4B2A689A4201D1494A40E000223EE076
:1022A000344B22689A4239D1354B2A689A4201D17F
:1022B000012234E0334B2A689A4201D1324A2EE09F
:1022C000324B2A689A4202D1314A28E0B3E0314BBE
:1022D0002A689A4201D1304A21E0304B2A689A425A
:1022E00001D12F4A1BE02F4B2A689A4201D12E4A76
:1022F00015E02D4B2A689A4202D12C4A0FE023E0C8
:102300002A4B2A689A4201D1294A08E02B4B2A68B5
:102310009A4201D12A4A02E0002200E0002211463E
:10232000C369C1F3130212B9C1F3846203E091FAE5
:10233000A1F2B2FA82F202F01F0C012202FA0CF2B0
:102340001343C36100BF00BF286800F000400028AD
:1023500071D0074A2168914203D0064A2168914210
:1023600032D1184931E00000006002580000FF47F8
:1023700000200240002102400010005CFFFF0F001F
:102380000200300404006008400020190800900C8E
:102390008000501D1000C010000180212000F014AA
:1023A0000002B0250004002A0008302E0010603220
:1023B0000020903600002143000052470000844B6B
:1023C0000000B84F002302404D490846816801F0E3
:1023D000E07600BF4B492068884203D04A49206814
:1023E000884201D1494800E045484849884209D11E
:1023F000444809F09AFC8346434809F096FC4BEAAE
:10240000000002E0424809F090FCE8BB414928681E
:10241000884227D106F4000020BB3D49206888424D
:1024200067D1384B22689A4203D0374B22689A42D0
:1024300002D1364A01E032E0314A104646F400014A
:1024400009F08CFC344800683449B0FBF1F0401CC2
:102450004000009002E00098401E00900098002884
:10246000F9D146E02E492868884219D106F08070DB
:10247000B0B92749206888423BD1224B22689A4252
:1024800005D0214B226800E026E09A4201D11F4A84
:1024900000E01B4A104646F0807109F05FFC28E01E
:1024A00020492868884224D106F4800008BB1849D6
:1024B000206888421DD1134B22689A4203D0124BE8
:1024C00022689A4201D1114A00E00D4A104646F4B2
:1024D000800109F043FC0CE0606D40F02000606575
:1024E0004FF0010A05E0606D40F0200060654FF09C
:1024F000010A00BF002084F8500000BF504660E58C
:1025000000630258002002400021024000230240E4
:1025100000600258000084CB28000024400D030016
:10252000000052C70000B8CF2DE9F84F04464FF025
:1025300000090020009014B90120BDE8F88FE06880
:1025400018B1207F012800D100BF606D30B920464E
:1025500000F030F90020A06584F850002068816800
:10256000C1F3407131B120688168874A11408160B0
:1025700000BF00BF206809F0E2FBA8B920688168AD
:10258000824A114041F08051816000BF804800685C
:102590008049B0FBF1F0401C009002E00098401E22
:1025A000009000980028F9D1206809F0C8FB48B9CC
:1025B000606D40F010006065A06D40F00100A06506
:1025C0004FF00109206809F0BFFB0646606D00F07E
:1025D000100000287ED1002EFCD1606D20F48070A8
:1025E00040F002006065206809F09FFB78BB6A49F3
:1025F0002068884203D069492068884201D1684830
:1026000000E068486649884209D1634809F08DFBBB
:102610008246624809F089FB4AEA000002E062480B
:1026200009F083FB98B95C4B22689A4203D05B4B5C
:1026300022689A4201D15A4A00E05A4A104661681B
:10264000826822F47C120A43826000BF00BF02F05D
:10265000D5FA41F2030188420ED9A06810280BD1A7
:10266000607D216B41EA4030A168084340F00C01D5
:10267000207F41EA004508E0607D216B41EA40305F
:10268000A1680843217F40EA0145207F012803D14A
:10269000208C401E45EA4045606A28B1A08C00F4B9
:1026A0007870A16A084305432068C0683F49084024
:1026B00028432168C860206809F046FB80462068EE
:1026C00009F02EFB0746B8F1000F3BD1D7BB207DA8
:1026D000E16A00E050E041EA80352068C06844F2D9
:1026E0000301884328432168C86094F83800012812
:1026F00017D1606A08B1A06A00B900BFA08F401E60
:10270000012141EA0041206C0843616C0843A16C3F
:10271000084321680969264A114008432168086175
:1027200005E02068006920F0010021680861206848
:10273000006920F07040616B084321680861204601
:10274000FEF7ACF9E068012809D12068006B20F0A1
:102750000F00A169491E08432168086305E020684D
:10276000006B20F00F0021680863606D20F002000C
:1027700040F00100606505E0606D40F010006065AC
:102780004FF001094846D8E6C0FFFF5FC0FFFF7F5A
:1027900028000024400D03000020024000210240D8
:1027A00000230240006302580060025803C0F0FF9B
:1027B0001EF800FC10B586B00446142101A8FEF7EF
:1027C00056F85549206888424FD154480068401C4B
:1027D000524908600846006801280DD100BF5048E2
:1027E000006840F020004E4908600846006800F08C
:1027F0002000009000BF00BF00BF494808300068BB
:1028000040F002004649083108600846006800F0C0
:102810000200009000BF00BF012001900320029041
:102820000020039001A93F4802F0D4F83E483F49F8
:1028300008600920486000213C488160C1604FF475
:102840008061016149004161890081614911C16173
:1028500000210162416201F06DFB08B1FEF728FF23
:1028600000BF3248E064846354E031492068884204
:1028700050D12A480068401C284908600846006872
:1028800001280DD100BF2648006840F020002449EF
:1028900008600846006800F02000009000BF00BFFC
:1028A00000BF1F480830006840F004001C49083190
:1028B00008600846006800F00400009000BF00BFF8
:1028C00020200190032002900020039001A91948C4
:1028D00002F080F814481838174908600A20486048
:1028E000002115488160C1604FF480610161490099
:1028F0004161890081614911C16100210162416228
:1029000001F018FB08B1FEF7D3FE00BF0A48E064EF
:10291000846300BF06B010BD0020024014000024F4
:10292000D844025800040258400402400C0200241B
:102930000021024000080258840200242DE9F041E1
:10294000044602F061F9804614B90120BDE8F08127
:1029500094F83500022808D08020606500BF002070
:1029600084F8340000BF0120F0E7FE492068884267
:1029700049D0FC4918312068884244D0F9493031A7
:10298000206888423FD0F7494831206888423AD0D1
:10299000F44960312068884235D0F24978312068A6
:1029A000884230D0EF499031206888422BD0ED49E1
:1029B000A8312068884226D0EB492068884222D07E
:1029C000E9491831206888421DD0E7493031206834
:1029D000884218D0E44948312068884213D0E2493F
:1029E0006031206888420ED0DF4978312068884203
:1029F00009D0DD4990312068884204D0DA49A831F5
:102A00002068884206D12068006820F00100216813
:102A1000086005E02068006820F001002168086077
:102A2000D0492068884249D0CE4918312068884270
:102A300044D0CC493031206888423FD0C949483120
:102A4000206888423AD0C74960312068884235D032
:102A5000C44978312068884230D0C249903120681A
:102A600088422BD0BF49A8312068884226D0BE4971
:102A70002068884222D0BC491831206888421DD085
:102A8000B94930312068884218D0B74948312068A8
:102A9000884213D0B4496031206888420ED0B249D0
:102AA00078312068884209D0AF4990312068884247
:102AB00004D0AD49A8312068884201D1012000E04E
:102AC000002068B12068006820F01E0021680860BE
:102AD0002068406920F0800021684861256806E090
:102AE0002068006820F00E002168086025689D4974
:102AF0002068884270D09B491831206888426BD08A
:102B0000984930312068884266D09649483120681B
:102B1000884261D093496031206888425CD09149F5
:102B200078312068884257D08E4990312068884299
:102B300052D08C49A831206888424DD08A492068FB
:102B4000884249D0884918312068884244D0864953
:102B50003031206888423FD083494831206888421C
:102B60003AD0814960312068884235D07E49783139
:102B70002068884230D07C499031206888422BD030
:102B80007949A8312068884226D07849206888424F
:102B900022D076491431206888421DD073492831EB
:102BA0002068884218D071493C312068884213D08F
:102BB0006E495031206888420ED06C4964312068DB
:102BC000884209D0694978312068884204D0674931
:102BD0008C312068884201D1012000E0002028B11A
:102BE000206E006820F48070216E086011E002F011
:102BF0000BF8A0EB080005280BD920206065032006
:102C000084F8350000BF002084F8340000BF0120A4
:102C10009CE6286800F001000028E8D151492068AE
:102C2000884249D04F4918312068884244D04D49E4
:102C30003031206888423FD04A4948312068884274
:102C40003AD0484960312068884235D045497831CA
:102C50002068884230D043499031206888422BD088
:102C60004049A8312068884226D03F4920688842E0
:102C700022D03D491831206888421DD03A49303170
:102C80002068884218D0384948312068884213D0DB
:102C900035496031206888420ED033497831206848
:102CA000884209D0304990312068884204D02E49AA
:102CB000A8312068884201D1012000E0002040B105
:102CC000A66D94F85C0000F01F013F208840B060C2
:102CD00007E0A76D94F85C0000F01F010120884018
:102CE000786020492068884276D01E4918312068D3
:102CF000884271D01B493031206888426CD0194914
:102D000048312068884267D016496031206888427F
:102D100062D014497831206888425DD011499031E1
:102D20002068884258D00F49A8312068884253D083
:102D30000D49206888424FD00B49183120688842DD
:102D40004AD0094930312068884245D00649483187
:102D50002068884240D004496031206888423BD0D6
:102D6000014905E0100002401004024008540258D6
:102D70007831206888422FD02549206888422BD09E
:102D8000234918312068884226D022492068884289
:102D900022D020491431206888421DD01D49283195
:102DA0002068884218D01B493C312068884213D0E3
:102DB00018495031206888420ED016496431206885
:102DC000884209D0134978312068884204D01149DB
:102DD0008C312068884201D1012000E0002068B1D8
:102DE000D4E919104860E06E40B1E06E006820F44C
:102DF0008070E16E0860D4E91C104860012084F8FE
:102E0000350000BF002084F8340000BF00BF9DE5FE
:102E1000A00402400854025870B504460CB90120C1
:102E200070BD94F83500022803D080206065012031
:102E3000F6E7DC492068884249D0DA491831206831
:102E4000884244D0D7493031206888423FD0D549A4
:102E50004831206888423AD0D2496031206888429F
:102E600035D0D04978312068884230D0CD49903172
:102E7000206888422BD0CB49A8312068884226D0D0
:102E8000C9492068884222D0C74918312068884241
:102E90001DD0C54930312068884218D0C249483118
:102EA0002068884213D0C0496031206888420ED023
:102EB000BD4978312068884209D0BB4990312068EB
:102EC000884204D0B849A8312068884201D1012045
:102ED00000E00020F0B3042084F83500B1492068F8
:102EE00088424BD0AF4918312068884246D0AD495E
:102EF00030312068884241D0AA4948312068884250
:102F00003CD0A84960312068884237D0A549783143
:102F10002068884232D0A3499031206888422DD061
:102F2000A049A8312068884228D09F49206888425B
:102F300024D09D491831206888421FD09A493031E9
:102F4000206888421AD0984948312068884215D0B4
:102F5000954900E020E06031206888420ED0924917
:102F600078312068884209D08F49903120688842A2
:102F700004D08D49A8312068884206D120680068B5
:102F800020F001002168086009E12068006820F055
:102F900001002168086002E182492068884249D026
:102FA000804918312068884244D07E4930312068F9
:102FB00088423FD07B494831206888423AD07949DD
:102FC00060312068884235D076497831206888425F
:102FD00030D074499031206888422BD07149A83193
:102FE0002068884226D070492068884222D06E49E5
:102FF0001831206888421DD06B49303120688842E2
:1030000018D0694948312068884213D06649603138
:10301000206888420ED0644978312068884209D0FF
:10302000614990312068884204D05F49A831206806
:10303000884206D12068006820F0010021680860FD
:1030400005E02068006820F0010021680860206821
:10305000006820F00E00216808605249206888420C
:1030600070D050491831206888426BD04D493031BA
:103070002068884266D04B4948312068884261D038
:1030800048496031206888425CD0464978312068E0
:10309000884257D0434990312068884252D04149F4
:1030A000A831206888424DD03F492068884249D0E5
:1030B0003D4918312068884244D03B49303120686E
:1030C00088423FD038494831206888423AD0364952
:1030D00060312068884235D0334978312068884291
:1030E00030D031499031206888422BD02E49A83108
:1030F0002068884226D02D492068884222D02B495A
:103100001431206888421DD028492831206888421F
:1031100018D026493C312068884213D023495031C9
:10312000206888420ED0214964312068884209D045
:103130001E4978312068884204D01C498C312068AF
:10314000884201D1012000E00020D8B1206E006843
:1031500020F48070216E0860A56D94F85C0000F08A
:103160001F01012088406860D4E919104860E06EB2
:1031700040B1E06E006820F48070E16E0860D4E930
:103180001C104860012084F8350000BF002084F83E
:10319000340000BF206D10B12046216D884700200B
:1031A0003EE600001000024010040240085402589D
:1031B00070B504460CB9012070BD9B492068884257
:1031C00049D0994918312068884244D09649303115
:1031D000206888423FD094494831206888423AD0DC
:1031E000914960312068884235D08F497831206814
:1031F000884230D08C499031206888422BD08A494F
:10320000A8312068884226D088492068884222D088
:1032100086491831206888421DD0844930312068A1
:10322000884218D0814948312068884213D07F49AC
:103230006031206888420ED07C497831206888420D
:1032400009D07A4990312068884204D07749A83162
:103250002068884206D12068006820F001002168BB
:10326000086005E02068006820F00100216808601F
:103270006D492068884249D06B49183120688842DE
:1032800044D069493031206888423FD0664948318E
:10329000206888423AD0644960312068884235D03D
:1032A000614978312068884230D05F499031206888
:1032B00088422BD05C49A8312068884226D05B49DF
:1032C0002068884222D059491831206888421DD090
:1032D000564930312068884218D054494831206816
:1032E000884213D051496031206888420ED04F493E
:1032F00078312068884209D04C4990312068884252
:1033000004D04A49A8312068884201D1012000E058
:103310000020C8B100202168086021684860216849
:1033200088602168C860216808612120216848619F
:103330002046FDF7F9FC064694F85C0000F01F01FA
:103340003F208840B06043E039492068884222D05D
:1033500037491431206888421DD03549283120680A
:10336000884218D032493C312068884213D0304915
:103370005031206888420ED02D496431206888423F
:1033800009D02B4978312068884204D028498C31F3
:103390002068884201D1012000E00020B0B1002067
:1033A0002168086021684860216888602168C860D9
:1033B000216808612046FDF7B7FC054694F85C00DB
:1033C00000F01F0101208840686001E00120F3E661
:1033D0002046FDF71FFD206E28B10020216E0860F9
:1033E000D4E919104860606858B16068082808D8A6
:1033F0002046FDF771FD0020E16E0860D4E91C1045
:1034000048600020E06620676067E06320646064D5
:10341000A064E0642065606584F8350000BF84F82E
:10342000340000BF00BFC7E6100002401004024095
:1034300008540258014691F8350070472DE9F84FBD
:10344000044600200090FE4800684FF41651B0FB7F
:10345000F1FAA66DD4F858803768D8F80090F94989
:103460002068884249D0F74918312068884244D002
:10347000F4493031206888423FD0F2494831206811
:1034800088423AD0EF4960312068884235D0ED4912
:1034900078312068884230D0EA49903120688842EB
:1034A0002BD0E849A8312068884226D0E649206818
:1034B000884222D0E4491831206888421DD0E24970
:1034C00030312068884218D0DF494831206888426E
:1034D00013D0DD496031206888420ED0DA49783156
:1034E0002068884209D0D84990312068884204D0A9
:1034F000D549A8312068884201D1012000E0002090
:1035000000287DD094F85C0000F01F01082088405E
:103510003840002868D0CB492068884249D0C94942
:1035200018312068884244D0C6493031206888422A
:103530003FD0C4494831206888423AD0C1496031FF
:103540002068884235D0BF4978312068884230D021
:10355000BC499031206888422BD0BA49A8312068F4
:10356000884226D0B8492068884222D0B64918310E
:10357000206888421DD0B44930312068884218D074
:10358000B14948312068884213D0AF496031206882
:1035900088420ED0AC4978312068884209D0AA49C7
:1035A00090312068884204D0A749A8312068884219
:1035B00004D12068006800F0040003E0206800687F
:1035C00000F0080080B12068006820F00400216845
:1035D000086094F85C0000F01F0108208840B0608B
:1035E000606D40F00100606594F85C0000F01F0120
:1035F000012088403840E8B392492068884200E0C2
:10360000B7E24BD08F4918312068884246D08D49A7
:1036100030312068884241D08A4948312068884248
:103620003CD0884960312068884237D0854978315C
:103630002068884232D083499031206888422DD05A
:103640008049A8312068884228D07F492068884274
:1036500024D07D491831206888421FD07A49303102
:10366000206888421AD0784948312068884215D0AD
:10367000754900E026E06031206888420ED072492A
:1036800078312068884209D06F499031206888429B
:1036900004D06D49A8312068884204D1206840696F
:1036A00000F0800002E020680068002050B194F82B
:1036B0005C0000F01F0101208840B060606D40F0A8
:1036C0000200606594F85C0000F01F01042088404F
:1036D0003840E8B35B49206888424BD059491831DB
:1036E0002068884246D0574930312068884241D00E
:1036F00054494831206888423CD0524960312068A2
:10370000884237D04F4978312068884232D04D49BD
:103710009031206888422DD04A49A83120688842DB
:1037200028D049492068884224D047491831206868
:1037300088421FD044493031206888421AD042491B
:1037400048312068884215D03F496031206800E048
:1037500024E088420ED03C4978312068884209D064
:10376000394990312068884204D03749A83120680F
:10377000884204D12068006800F0020002E020685E
:103780000068002050B194F85C0000F01F01042094
:103790008840B060606D40F00400606594F85C00A3
:1037A00000F01F01102088403840E8B32549206808
:1037B000884251D023491831206888424CD0214991
:1037C00030312068884247D01E49483120688842FD
:1037D00042D01C496031206888423DD01949783177
:1037E0002068884238D0174990312068884233D009
:1037F0001449A831206888422ED013492068884295
:103800002AD0114918312068884225D00E4930311C
:103810002068884220D00C494831206888421BD05B
:1038200009496031206800E04DE0884214D0064923
:103830007831206888420FD003499031206805E034
:10384000280000241000024010040240884203D0E7
:10385000FE492068884204D12068006800F0080012
:1038600003E02068006800F0040060B394F85C0096
:1038700000F01F0110208840B0602068006800F44C
:10388000802080B12068006800F4002028B9206CF6
:10389000C8B12046216C884715E0A06C98B120463D
:1038A000A16C88470FE02068006800F4807028B998
:1038B0002068006820F0080021680860206C10B1C2
:1038C0002046216C884794F85C0000F01F012020FE
:1038D0008840384000287DD0DD492068884249D0A2
:1038E000DB4918312068884244D0D94930312068FA
:1038F00088423FD0D6494831206888423AD0D449DE
:1039000060312068884235D0D149783120688842BA
:1039100030D0CF499031206888422BD0CC49A83193
:103920002068884226D0C949A8392068884221D019
:10393000C6499039206888421CD0C449783920682B
:10394000884217D0C14960392068884212D0BF49E7
:103950004839206888420DD0BC49303920688842F7
:1039600008D0BA4918392068884203D0B74920687E
:10397000884204D12068006800F0100003E020684D
:10398000006800F0020028B394F85C0000F01F010A
:1039900020208840B06094F8350004282DD120689C
:1039A000006820F01600216808602068406920F057
:1039B000800021684861206C08B9A06C28B120689B
:1039C000006820F008002168086094F85C0000F0AE
:1039D0001F0100E03FE03F208840B060012084F8F4
:1039E000350000BF002084F8340000BF206D10B106
:1039F0002046216D8847BDE8F88F2068006800F4F4
:103A0000802080B12068006800F4002028B1606C3C
:103A100008B32046616C88471DE0E06BD8B12046B2
:103A2000E16B884717E02068006800F4807068B98F
:103A30002068006820F0100021680860012084F8E8
:103A4000350000BF002084F8340000BFE06B10B1E7
:103A50002046E16B8847606D00287AD0606D00F0E9
:103A60000100E8B3042084F83500794920688842D1
:103A70004BD0774918312068884246D0744930319C
:103A80002068884241D072494831206888423CD041
:103A90006F4960312068884237D06D49783120689D
:103AA000884232D06A499031206888422DD06849D6
:103AB000A8312068884228D06449A8392068884203
:103AC00023D062499039206888421ED05F497839F6
:103AD0002068884219D05D4960392068884200E03A
:103AE00040E012D059494839206888420DD05749E2
:103AF00030392068884208D05449183920688842F3
:103B000003D052492068884206D12068006820F01E
:103B100001002168086005E02068006820F00100CD
:103B20002168086000BF0098401C0090504500D9F3
:103B300005E02068006800F001000028F3D100BF14
:103B40002068006800F0010020B1032084F83500EF
:103B500003E00DE0012084F8350000BF002084F868
:103B6000340000BFE06C002802D02046E16C88479A
:103B7000D9E138492068884222D03649143120687A
:103B800088421DD0334928312068884218D03149F5
:103B90003C312068884213D02E4950312068884239
:103BA0000ED02C4964312068884209D029497831E7
:103BB0002068884204D027498C312068884201D18E
:103BC000012000E000200028D2D02068056894F889
:103BD0005C0000F01F010420884000EA0900D8B30F
:103BE00005F00400C0B394F85C0000F01F0104204D
:103BF0008840C8F8040005F4004080B105F4803026
:103C000030B1A06C0028B3D02046A16C88478AE16F
:103C1000206C0028ACD02046216C884783E105F059
:103C20002000E8BB0A492068884253D0084918316F
:103C3000206888424ED0064930312068884249D0F9
:103C4000034948312068884244D006E0B804024065
:103C500010000240085402584FE0B4496031206817
:103C6000884237D0B14978312068884232D0AF4994
:103C70009031206888422DD0AC49A8312068884214
:103C800028D0AB492068884224D0A949183120683F
:103C900088421FD0A6493031206888421AD000E0FF
:103CA00025E0A34948312068884213D0A0496031FB
:103CB000206888420ED09E4978312068884209D019
:103CC0009B4990312068884204D09949A8312068E6
:103CD000884206D12068006820F00800216808604A
:103CE00005E02068006820F0040021680860206C6E
:103CF00010B32046216C884715E194F85C0000F071
:103D00001F010220884000EA0900E8B305F0020024
:103D1000D0B394F85C0000F01F0102208840C8F87E
:103D2000040005F4004070B105F4803028B9606CDF
:103D300010B12046616C8847F5E0E06BF0B3204697
:103D4000E16B8847EFE005F02000C0BB77492068B1
:103D500088424ED0754918312068884249D073494D
:103D600030312068884244D0704948312068884208
:103D70003FD06E496031206888423AD06B49783133
:103D80002068884235D000E04EE0684990312068D4
:103D900088422ED06549A8312068884229D06449DC
:103DA0002068884225D0624918312068884220D096
:103DB0005F493031206888421BD001E06EE02DE081
:103DC0005B4948312068884213D0594960312068E6
:103DD00088420ED0564978312068884209D054492B
:103DE00090312068884204D05149A8312068884227
:103DF00006D12068006820F014002168086005E002
:103E00002068006820F00A0021680860012084F81A
:103E1000350000BF002084F8340000BFE06BE8B339
:103E20002046E16B88477EE094F85C0000F01F01BB
:103E30000820884000EA090080B305F0080068B354
:103E40003A49206888424BD0384918312068884266
:103E500046D0364930312068884241D03349483114
:103E6000206888423CD0314960312068884237D090
:103E70002E4978312068884232D02C499031206810
:103E800088422DD02949A8312068884228D0284965
:103E90002068884224D02649183100E043E0206899
:103EA00088421DD0224930312068884218D02049EC
:103EB00048312068884213D01D496031206888420B
:103EC0000ED01B4978312068884209D018499031BA
:103ED0002068884204D01649A8312068884206D15B
:103EE0002068006820F01C002168086005E0206858
:103EF000006820F00E002168086094F85C0000F073
:103F00001F0101208840C8F804000120606584F882
:103F1000350000BF002084F8340000BFE06C10B111
:103F20002046E16C884700BF65E5000010000240B4
:103F3000100402402DE9F041044600F065FE804681
:103F400014B90120BDE8F081FE492068884249D0BB
:103F5000FC4918312068884244D0FA493031206841
:103F600088423FD0F7494831206888423AD0F54925
:103F700060312068884235D0F24978312068884223
:103F800030D0F0499031206888422BD0ED49A831DB
:103F90002068884226D0EC492068884222D0EA492D
:103FA0001831206888421DD0E749303120688842A6
:103FB00018D0E54948312068884213D0E249603181
:103FC000206888420ED0E04978312068884209D0C4
:103FD000DD4990312068884204D0DB49A83120684F
:103FE000884201D1012000E00020002873D0606ADF
:103FF00000B100BF022084F8350000BF002084F823
:10400000340000BFCF492068884249D0CD491831DB
:104010002068884244D0CB493031206888423FD064
:10402000C8494831206888423AD0C6496031206882
:10403000884235D0C34978312068884230D0C149A0
:104040009031206888422BD0BE49A8312068884230
:1040500026D0BD492068884222D0BB49183120684B
:1040600088421DD0B84930312068884218D0B649FE
:1040700048312068884213D0B349603120688842B3
:104080000ED0B14978312068884209D0AE499031CC
:104090002068884204D0AC49A8312068884206D103
:1040A0002068006820F001002168086005E02068B1
:1040B000006820F00100216808600DE000F0A4FD18
:1040C000A0EB0800052807D920206065032084F8AC
:1040D0003500012036E76AE02068006800F0010042
:1040E0000028EBD12068056898480540D4E9020112
:1040F00008432169084361690843A1690843E169EC
:104100000843216A08430543606A042803D1D4E9BF
:104110000B01084305438E4800686FF30F00B0F1B0
:10412000005F1DD36068292802D360682E2811D94A
:1041300060683F2802D3606842280BD9606847282E
:1041400002D36068482805D960684F2804D36068A6
:10415000522801D8012000E0002008B145F4801564
:10416000206805602068456925F00705606A0543F9
:10417000606A04280DD1A06A0543E06A48B1204670
:10418000FCF7F6FE28B140206065012084F8350078
:10419000D8E6206845612046FCF7C6FD064694F83F
:1041A0005C0000F01F013F208840B0609EE069493C
:1041B0002068884222D067491431206888421DD087
:1041C000644928312068884218D062493C3120680F
:1041D000884213D05F495031206888420ED05D4933
:1041E00064312068884209D05A4978312068884271
:1041F00004D058498C312068884201D1012000E068
:104200000020E0B353492068884222D0514914313C
:10421000206888421DD04F4928312068884218D034
:104220004C493C312068884213D04A4950312068BB
:1042300088420ED0474964312068884209D04549F8
:1042400078312068884204D042498C312068884205
:1042500001D1012000E0002000B100BF022084F85D
:10426000350000BF002084F8340000BF20680568D6
:1042700039480540A068402802D1102106E02EE010
:10428000A068802801D1C10100E00021E06841EA76
:10429000D001206941EAD001606941EAD001A069FA
:1042A00041EAD001E06941EAD001206A41EA1010F8
:1042B00005432068056027492068401A1421B0FB97
:1042C000F1F08000E0652046FCF72EFD074694F8EB
:1042D0005C0000F01F0101208840786006E040206B
:1042E0006065032084F8350001202BE6154920681D
:1042F00088427FD013491831206888427AD011490A
:1043000030312068884275D00E4948312068884293
:1043100070D00C496031206888426BD009497831EF
:104320002068884266D0074990312068884261D071
:104330000449A831206888425CD00349206888423B
:1043400058D00BE010000240100402403F8010FEE5
:104350000010005C085402580F00FEFF3B49183162
:104360002068884246D0394930312068884241D09F
:1043700036494831206888423CD034496031206851
:10438000884237D0314978312068884232D02F496D
:104390009031206888422DD02C49A831206888426D
:1043A00028D02B492068884224D02949143120681C
:1043B00088421FD026492831206888421AD02449D3
:1043C0003C312068884215D021495031206888420C
:1043D00010D01F496431206888420BD01C497831C5
:1043E0002068884206D01A498C312068884200E053
:1043F00000E001D1012000E0002000B32046FCF7DE
:1044000009FDA068802801D1002060602079216E1C
:104410000860D4E919104860606860B160680828D5
:1044200009D82046FCF758FD0020E16E0860D4E969
:104430001C10486003E00020E066206760670020F1
:104440006065012084F8350000207BE510040240FF
:10445000085402582DE9F04104460D4616461F4601
:104460004FF0000814B90120BDE8F08100BF94F8B6
:104470003400012801D10220F6E7012084F834003D
:1044800000BF94F8350001287ED1022084F8350061
:1044900000206065E4492068884249D0E24918312B
:1044A0002068884244D0E0493031206888423FD0BB
:1044B000DD494831206888423AD0DB4960312068C4
:1044C000884235D0D84978312068884230D0D649E2
:1044D0009031206888422BD0D349A8312068884287
:1044E00026D0D2492068884222D0D049183120688D
:1044F00088421DD0CD4930312068884218D0CB4940
:1045000048312068884213D0C84960312068884209
:104510000ED0C64978312068884209D0C34990310D
:104520002068884204D0C149A8312068884206D159
:104530002068006820F001002168086005E020681C
:10454000006820F00100216808603B463246294699
:104550002046FCF765FDB449206888424BD0B2493B
:1045600018312068884246D0AF49303120688842EF
:1045700041D0AD494831206888423CD0AA496031D9
:104580002068884237D000E042E1A74978312068AE
:10459000884230D0A4499031206888422BD0A2496B
:1045A000A8312068884226D0A0492068884222D0BD
:1045B0009E491831206888421DD09C4930312068BE
:1045C000884218D0994948312068884213D09749C9
:1045D0006031206888420ED0944978312068884242
:1045E00009D0924990312068884204D08F49A8317F
:1045F0002068884201D1012000E0002080B12068BD
:10460000006820F01E0040F0160021680860206C51
:10461000B0B12068006840F00800216808600FE031
:104620002068006820F00E0040F00A002168086051
:10463000206C28B12068006840F004002168086000
:1046400079492068884270D07749183120688842BB
:104650006BD0754930312068884266D07249483144
:104660002068884261D070496031206888425CD0FF
:104670006D4978312068884257D06B499031206865
:10468000884252D06849A831206888424DD0674995
:104690002068884249D0654918312068884244D052
:1046A00062493031206888423FD0604948312068F3
:1046B00088423AD05D4960312068884235D05B49F4
:1046C00078312068884230D058499031206888423B
:1046D0002BD05649A8312068884226D054492068FA
:1046E000884222D052491431206888421DD0504956
:1046F00028312068884218D04D493C3120688842D2
:1047000013D04B495031206888420ED0484964315B
:104710002068884209D0464978312068884204D010
:1047200043498C312068884201D1012000E00020FB
:1047300090B1206E006800F4803028B1206E0068CF
:1047400040F48070216E0860E06E28B1E06E006871
:1047500040F48070E16E086033492068884249D097
:10476000314918312068884244D02F4930312068BF
:1047700088423FD02C494831206888423AD02A49A3
:1047800060312068884235D02749783120688842D6
:1047900030D025499031206888422BD02249A83159
:1047A0002068884226D021492068884222D01F49AB
:1047B0001831206888421DD01C4930312068884259
:1047C00018D01A4948312068884213D017496031FF
:1047D000206888420ED0154978312068884209D077
:1047E000124990312068884204D01049A8312068CD
:1047F000884206D12068006840F001002168086006
:1048000010E02068006840F001002168086009E0BD
:104810004FF40060606500BF002084F8340000BFE2
:104820004FF0010840461FE610000240100402400D
:104830000854025870B5044600F0E6F906462546CD
:10484000681C10B104480078054400BF00F0DCF992
:10485000801BA842FAD370BD24000024F0B50C469A
:104860000021504B98E001268E4006EA0402002AFF
:104870007ED04D4E8F0856F827508E07370F0F26E3
:10488000BE403540494EB04201D100262DE0484E91
:10489000B04201D1012628E0464EB04201D10226A5
:1048A00023E0454EB04201D103261EE0434EB04204
:1048B00001D1042619E0424EB04201D1052614E090
:1048C000404EB04201D106260FE03F4EB04201D12A
:1048D00007260AE03D4EB04201D1082605E03C4ED5
:1048E000B04201D1092600E00A268F073F0FBE40E3
:1048F000AE421FD11E6896431E605E6896435E609E
:104900004FF0B046766896434FF0B0477E603E4623
:10491000366896433E608E07370F0F2606FA07F576
:10492000214E8F0856F82760AE431F4F4FEA910C77
:1049300047F82C6006684FEA410C032707FA0CF78A
:104940003E430660CF0800F1200656F827604F0767
:104950004FEAD76C0F2707FA0CF7BE434FEAD10C8A
:1049600000F1200747F82C60C6684FEA410C00E0D0
:1049700011E0032707FA0CF7BE43C660476801261B
:104980008E40B743476086684FEA410C032707FA19
:104990000CF7BE438660491C24FA01F6002E7FF412
:1049A00062AFF0BD800000580804005800000258B3
:1049B0000004025800080258000C02580010025867
:1049C0000014025800180258001C02580020025817
:1049D00000240258F8B502460023744DDFE0012799
:1049E0009F400E6806EA0704002C7AD00E7906F084
:1049F0000306012E04D00E7906F00306022E13D111
:104A000090685F000326BE40B0435F00CE68BE40A2
:104A100030439060506801269E40B0430E79C6F343
:104A200000169E40304350600E7906F00306032EB8
:104A300007D10E7906F00306032E0CD18E68012EE5
:104A400009D0D0685F000326BE40B0435F008E6887
:104A5000BE403043D0600E7906F00306022E13D11B
:104A6000DF0802F1200656F827005E07F70E0F2632
:104A7000BE40B0435F07FF0E0E69BE403043DF0803
:104A800002F1200646F8270010685F000326BE40AA
:104A9000B0430E7906F003065F00BE40304310605D
:104AA0004E6806F44036002E78D000BF404E36687F
:104AB00046F002063E4F3E603E46366806F002066D
:104AC000009600BF00BF3B4E9F0856F827009E0788
:104AD000370F0F26BE40B043374EB24202D10026F8
:104AE0002EE05BE0354EB24201D1012628E0344E83
:104AF000B24201D1022623E0324EB24201D1032656
:104B00001EE0314EB24201D1042619E02F4EB242CE
:104B100001D1052614E02E4EB24201D106260FE047
:104B20002C4EB24201D107260AE02B4EB24201D1EF
:104B3000082605E0294EB24201D1092600E00A26E6
:104B40009F073F0FBE4030431A4E9F0846F827008C
:104B50004FF0B0463068A0434E6806F4801606B1A8
:104B600020434FF0B04630607068A0434E6806F4B2
:104B7000001606B120434FF0B04670606868A0434D
:104B80004E6806F4003606B1204368602868A043EA
:104B90004E6806F4803606B1204328605B1C0E6820
:104BA000DE40002E7FF41BAFF8BD000080000058EF
:104BB000F444025808040058000002580004025847
:104BC00000080258000C0258001002580014025845
:104BD00000180258001C02580020025800240258F5
:104BE000024613690B400BB1012000E00020704722
:104BF0000AB1816101E00B048361704701480068DC
:104C0000000C70470010005C01480068704700000D
:104C10001C000024024692F8410020282DD100BF3C
:104C200092F84000012801D102207047012082F84B
:104C3000400000BF242082F841001068006820F086
:104C40000100136818601068006820F48050136831
:104C500018601068006808431368186010680068DE
:104C600040F0010013681860202082F8410000BF66
:104C7000002082F8400000BFD7E70220D5E710B53A
:104C800002460B4692F8410020282AD100BF92F834
:104C90004000012801D1022010BD012082F840000F
:104CA00000BF242082F841001068006820F0010055
:104CB000146820601068016821F4706141EA0321E2
:104CC000106801601068006840F0010014682060FE
:104CD000202082F8410000BF002082F8400000BF81
:104CE000DAE70220D8E7000008B500BF09490968E3
:104CF00041F00201074A11601146096801F0020102
:104D0000009100BF00BF044909680143024A1160D5
:104D100008BD0000F444025804040058704770476E
:104D20002DE9F04104462068856920680668C5F3CE
:104D3000002050B1C6F3C01038B1606C40F00100E3
:104D400060644FF480702168C861C5F3802050B161
:104D5000C6F3C01038B1606C40F0080060644FF4D6
:104D600080602168C861C5F3402050B1C6F3C0100F
:104D700038B1606C40F0020060644FF4007021684C
:104D8000C861676C07F00B0018B13946204605F082
:104D9000ABFDBDE8F08170B50446206885692068E8
:104DA0000668606B20B1324629462046636B9847FF
:104DB00070BD704710B504460CB9012010BD94F8C1
:104DC000410028B9002084F84000204600F0BAF9DC
:104DD000242084F841002068006820F00100216848
:104DE0000860606820F07060216808612068806851
:104DF00020F4004021688860E068012805D1A0689F
:104E000040F400402168886004E0A06840F4044059
:104E100021688860E068022806D12068406840F474
:104E200000602168486005E02068406820F4006068
:104E30002168486020684068134908432168486039
:104E40002068C06820F400402168C860D4E90401EB
:104E50000843A16940EA01202168C860D4E907013C
:104E60000843216808602068006840F0010021685C
:104E7000086000206064202084F841000020206346
:104E800084F8420000BF99E7008000027047704735
:104E90007047704738B504460E492068884218D1DB
:104EA000002000900C48006890B169460A480068EC
:104EB0000CF0B2FB009858B100BF009838B14FF029
:104EC000805006490860BFF34F8FBFF36F8F00BF5C
:104ED00000BF38BD005400400C01002404ED00E088
:104EE0002DE9FC5F0446894692469B46DDE90C7835
:104EF0000E9E94F8410020287DD117B1B8F1000F23
:104F000005D14FF4007060640120BDE8FC9F00BF34
:104F100094F84000012801D10220F6E7012084F82E
:104F2000400000BFFFF770FE054619230122D103A0
:104F30002046009506F008FE08B10120E5E7212093
:104F400084F84100402084F84200002060646762D9
:104F5000A4F82A8060635B46524649462046CDE964
:104F6000006506F067FB30B100BF002084F8400008
:104F700000BF0120C9E7608DFF280CD9FF202085E4
:104F80000020009094F828204FF080734946204676
:104F900006F0A1FD0BE0608D20850020009094F8C4
:104FA00028204FF000734946204606F094FD00BFCC
:104FB0002A463146204606F038FE08B10120A4E713
:104FC000606A007821688862606A401C6062608D57
:104FD000401E6085208D401E2085608D40B3208D51
:104FE00030BB3346002280212046009506F0ACFD00
:104FF00010B1012089E73AE0608DFF280CD9FF202D
:1050000020850020009094F828204FF080734946B6
:10501000204606F060FD0BE0608D208500200090AA
:1050200094F828204FF000734946204606F053FDBF
:10503000608D0028BCD12A463146204606F0C5FDC9
:1050400008B1012061E720202168C861206840681C
:105050000849084021684860202084F84100002069
:1050600084F8420000BF84F8400000BF4DE70220F2
:105070004BE7000000E800FE2DE9F84304460F4628
:1050800015461E46DDE9089894F84100202850D1C5
:10509000B9F1000F02D0B8F1000F05D14FF4007044
:1050A00060640120BDE8F88320688069C0F3C030E7
:1050B00008B10220F6E700BF94F84000012801D1B2
:1050C0000220EFE7012084F8400000BF212084F88F
:1050D0004100402084F84200002060642085C4F82C
:1050E0002490A4F82A801448E06214486063E764BE
:1050F000012E05D1E8B221688862B01E206505E066
:10510000C5F3072021688862E8B220650C48F2B236
:10511000C30239460090204606F0DDFC00BF0020A7
:1051200084F8400000BF0121204605F00DFB00205F
:10513000B8E70220B6E700000000FFFF99B40008BE
:105140000020008010B5B8B00446142132A8FBF747
:105150008EFBC02102A8FBF78AFB26492068884203
:1051600045D108210020CDE90210239002A801F0CA
:10517000C5FA08B1FCF79CFA00BF1F48006840F070
:1051800002001D4908600846006800F00200019016
:1051900000BF00BFC0203290122033900020349016
:1051A00035900420369032A91448FFF713FC00BF55
:1051B00011480830006840F400100F4908310860B9
:1051C0000846006800F40010019000BF00BF0022F4
:1051D00005211F2000F030F91F2000F019F90022EE
:1051E0000521202000F028F9202000F011F938B026
:1051F00010BD000000540040E04402580004025872
:10520000704770470348006803490978084401491A
:10521000086070471C0000242400002410B50320FF
:1052200000F048F902F02EFB10490968C1F3032190
:105230000F4A515C01F01F0120FA01F40B4800688D
:1052400000F00F001146085C00F01F0024FA00F087
:1052500008490860084804600F2000F00FF808B102
:10526000012010BD00F0A6F80020FAE7184402580B
:10527000AC2301082C0000242800002470B58AB05B
:105280000446102C0AD200222146762000F0D4F8E1
:10529000762000F0BDF81948046002E001200AB051
:1052A00070BD00BF1648006840F4802014490860B3
:1052B0000846006800F48020009000BF00BF01A9EC
:1052C00002A802F05FFA02F0CBFA45000D48B5FBE8
:1052D000F0F0461E0C480D49086040F2E7310B48DB
:1052E000C160466000210161816003F057FB18B97D
:1052F000064803F0A3FCD2E70120D0E720000024F9
:10530000F044025840420F0000480140D4190024E4
:105310004178154A116014490831096821F00101EA
:10532000114A08321160121F41681160017B0907A0
:10533000C27A41EA0261827A41EAC241427B41EA91
:105340008241827B41EA4241C27B41EA0241427A88
:1053500041EA0221027A41EA420102781143024AFB
:10536000083211607047000098ED00E0BFF35F8FD6
:105370000548006820F48030034908600020024995
:10538000703108607047000024ED00E040F001013A
:10539000074A116006497039096841F48031044AAE
:1053A000703A1160BFF34F8FBFF36F8F70470000EB
:1053B00094ED00E008B500BF0948006840F0020025
:1053C000074908600846006800F00200009000BF2E
:1053D00000BF00220F21901E00F02EF808BD000033
:1053E000F444025810B50146084600280BDB00F0D3
:1053F0001F0301229A40054B440943F82420BFF3C0
:105400004F8FBFF36F8F00BF10BD000080E100E041
:105410000146084600280DDB00BF00BF00F01F0357
:1054200001229A4043099B0003F1E023C3F80021C5
:1054300000BF00BF00BF70472DE9F05F80460D46FA
:1054400016460AF0DBFA074639462A46334601F08B
:105450000700C0F1070ABAF1040F02D94FF0040A9D
:1054600001E0C0F1070AD14600F1040ABAF1070FC2
:1054700002D24FF0000A01E0A0F1030AD4464FF037
:10548000010A0AFA09FAAAF1010A0AEA020A0AFA60
:105490000CFA4FF0010B0BFA0CFBABF1010B0BEA12
:1054A000030B4AEA0B04214640460AF0AFFABDE876
:1054B000F09F000000BF00F00702064B19684FF68E
:1054C000FF031940044B0B4343EA0221014B1960CF
:1054D00000BF70470CED00E00000FA0501460A68C5
:1054E0000120C1F8D804002081F8CC04906940F074
:1054F00000609061506D024B18435065002070476A
:105500000300001038B504460CB9012038BD94F8EA
:10551000950428B9002084F89404204600F0A2F8ED
:10552000032084F8950420680AF0CAF9207C8DF8DD
:10553000000094E80F000AF03BF820B1022084F844
:1055400095040120E2E7002120680AF017FA20B153
:10555000022084F895040120D8E7002531E00121DC
:1055600005EBC50204F1140000EB8200417005EB6D
:10557000C50104F1140000F8215005EBC50100EB52
:1055800081004583002105EBC50204F1140000EB06
:105590008200017105EBC50204F1140000EB8200EA
:1055A000816005EBC50204F1140000EB8200C160CC
:1055B00005EBC50204F1140000EB82000161681CD8
:1055C000C5B22079A842CADC00252AE0002105EBFB
:1055D000C50204F5157000EB8200417005EBC501B2
:1055E00004F5157000F82150002105EBC50200EB11
:1055F0008200017105EBC50204F5157000EB820015
:10560000816005EBC50204F5157000EB8200C160F6
:1056100005EBC50204F5157000EB82000161681C02
:10562000C5B22079A842D1DC207C8DF8000094E836
:105630000F000AF055F820B1022084F895040120EB
:1056400064E700206074012084F89504207B012821
:1056500002D12046FFF742FF20680AF02EF8002012
:1056600054E7000010B5B8B00446142132A8FBF787
:10567000FEF8C02102A8FBF7FAF826492068884204
:1056800046D14FF480210020CDE902104FF44010A4
:10569000249002A801F032F808B1FCF709F800F0F4
:1056A00071F800F06FF800BF1B48006840F001007F
:1056B000194908600846006800F00100019000BF29
:1056C00000BF4FF4E050329002203390002034901D
:1056D00035900A20369032A91048FFF77BF9104820
:1056E0000068401C0E4908600846006801280FD178
:1056F00000BF09480838006840F0006006490839D2
:1057000008600846006800F00060019000BF00BF1C
:1057100038B010BD00000840E044025800000258B4
:105720001800002470B5044615480068C0F38000D6
:1057300048B91348006800F00700A04201D00120DA
:1057400070BD0020FCE70E48006820F007002043F1
:105750000B490860FFF758FA054607E0FFF754FACF
:10576000401BB0F57A7F01D90120E9E704480838E9
:105770000068C0F340300028F0D00020E0E70000CF
:105780000C4802580348006840F0807001490860E6
:10579000704700000C48025810B502F029F805497E
:1057A0000968C1F30211044A515C01F01F01C840AD
:1057B00010BD000020440258AC23010870B501461A
:1057C000844D2D6805F00303824D2D68C5F3051047
:1057D000804D2D1D2D6805F001047E4D0C352D6882
:1057E000C5F3CC0515FB04F501EE105AB8EE411ACD
:1057F000F0EE410A00286FD023B1012B4ED0022BCE
:105800006BD16BE0734D283D2D68C5F340153DB35A
:10581000704D283D2D68C5F3C1066F4D25FA06F27F
:1058200001EE102AF8EE411A01EE100AB8EE411A04
:1058300081EE812A9FED691AC0EE811A654D083507
:105840002D68C5F3080501EE105AB8EE411A31EE85
:10585000811AF7EE001A31EE211A22EE010A1CE03D
:1058600001EE100AB8EE411ADFED5D1A81EE812AD1
:105870009FED5A1AC0EE811A564D08352D68C5F3B2
:10588000080501EE105AB8EE411A31EE811AF7EE12
:10589000001A31EE211A22EE010A5BE001EE100A35
:1058A000B8EE411ADFED4F1A81EE812A9FED4B1AB7
:1058B000C0EE811A474D08352D68C5F3080501EE85
:1058C000105AB8EE411A31EE811AF7EE001A31EE95
:1058D000211A22EE010A3DE077E01DE001EE100AF8
:1058E000B8EE411A9FED402AC2EE011A9FED3B1A15
:1058F00080EE812A374D08352D68C5F3080501EE85
:10590000105AB8EE411A32EE011AB7EE002A31EE03
:10591000021A21EE810A1DE001EE100AB8EE411ACA
:10592000DFED2F1A81EE812A9FED2C1AC0EE811A2D
:10593000284D08352D68C5F3080501EE105AB8EE5C
:10594000411A31EE811AF7EE001A31EE211A22EED9
:10595000010A00BF00BF1F4D08352D68C5F346255D
:1059600001EE105AB8EE411AF7EE001A31EE211A84
:10597000C0EE011ABCEEE11A81ED001A154D083592
:105980002D68C5F3064501EE105AB8EE411AF7EE40
:10599000001A31EE211AC0EE011ABCEEE11A81EDB7
:1059A000011A0C4D08352D68C5F3066501EE105A35
:1059B000B8EE411AF7EE001A31EE211AC0EE011AC4
:1059C000BCEEE11A81ED021A03E000250D604D6086
:1059D0008D6070BD284402580090D003000000463E
:1059E0000024744C0024744A0024F44A70B5014623
:1059F000844D2D6805F00303824D2D68C5F30530F5
:105A0000804D2D1D2D68C5F300147E4D14352D6875
:105A1000C5F3CC0515FB04F501EE105AB8EE411A9A
:105A2000F0EE410A00286FD023B1012B4ED0022B9B
:105A30006BD16BE0734D283D2D68C5F340153DB328
:105A4000704D283D2D68C5F3C1066F4D25FA06F24D
:105A500001EE102AF8EE411A01EE100AB8EE411AD2
:105A600081EE812A9FED691AC0EE811A654D1035CD
:105A70002D68C5F3080501EE105AB8EE411A31EE53
:105A8000811AF7EE001A31EE211A22EE010A1CE00B
:105A900001EE100AB8EE411ADFED5D1A81EE812A9F
:105AA0009FED5A1AC0EE811A564D10352D68C5F378
:105AB000080501EE105AB8EE411A31EE811AF7EEE0
:105AC000001A31EE211A22EE010A5BE001EE100A03
:105AD000B8EE411ADFED4F1A81EE812A9FED4B1A85
