:020000040800F2
:1000000048CB002439040008D9F40008A7CC000824
:10001000D5F40008990C00080D4501080000000007
:10002000000000000000000000000000790300084C
:100030004514000800000000D50300081122010843
:100040005704000857040008570400085704000824
:100050005704000857040008570400085704000814
:10006000570400085704000857040008090D000849
:10007000190D0008290D0008390D0008490D000868
:10008000590D0008690D00085704000857040008BE
:1000900057040008570400085704000857040008D4
:1000A00057040008570400085704000857040008C4
:1000B000570400084924010857040008BDCC000873
:1000C000ADCC000857040008570400085704000886
:1000D00057040008014001081140010821400108AF
:1000E00057040008570400080000000057040008E7
:1000F000570400085924010857040008790D000826
:1001000057040008570400085704000801150108A7
:10011000E12A0108F12A01085704000857040008E1
:10012000890D0008990D0008A90D0008B90D0008F7
:10013000C90D0008570400085704000857040008B8
:1001400000000000000000000000000000000000AF
:10015000D90D0008E90D0008F90D0008314001082B
:100160005704000857040008570400085704000803
:100170005704000857040008570400080000000056
:100180005704000857040008012B0108112B01082F
:1001900057040008570400085704000857040008D3
:1001A00057040008570400085704000857040008C3
:1001B00057040008570400085704000857040008B3
:1001C00057040008570400085704000857040008A3
:1001D0005704000857040008570400085704000893
:1001E0005704000857040008570400085704000883
:1001F0005704000857040008570400085704000873
:100200005704000857040008570400085704000862
:10021000570400082924010839240108570400085C
:1002200057040008570400085704000800000000A5
:100230005704000857040008000000005704000895
:100240005704000857040008570400085704000822
:100250005704000857040008570400085704000812
:100260005704000857040008570400085704000802
:100270005704000857040008570400080000000055
:100280005704000857040008570400080000000045
:10029000000000005704000800F002F800F05CF8CD
:1002A0000AA090E8000C82448344AAF10107DA45D1
:1002B00001D100F051F8AFF2090EBAE80F0013F0C7
:1002C000010F18BFFB1A43F00103184708940100FF
:1002D000289401000A444FF0000C10F8013B13F081
:1002E000070408BF10F8014B1D1108BF10F8015B8F
:1002F000641E05D010F8016B641E01F8016BF9D182
:1003000013F0080F1EBF10F8014BAD1C0C1B09D1D8
:100310006D1E58BF01F801CBFAD505E014F8016B4A
:1003200001F8016B6D1EF9D59142D6D370470000DC
:100330000023002400250026103A28BF78C1FBD8EE
:10034000520728BF30C148BF0B6070471FB518F077
:100350002FFB1FBD10B510BD00F0EAF91146FFF7E5
:10036000F5FF15F0EAFD00F008FA03B4FFF7F2FF1D
:1003700003BC15F012FD00002C4B19680868B0E8AA
:10038000F04F80F30988BFF36F8F4FF0000080F3C8
:10039000118870470000000008480068006880F37A
:1003A00008884FF0000080F3148862B661B6BFF38E
:1003B0004F8FBFF36F8F00DF00BF00BF08ED00E07D
:1003C000DFF80C00016841F470010160704700BF64
:1003D00088ED00E0EFF30980BFF36F8F134B1A68CD
:1003E0001EF0100F08BF20ED108A20E9F04F1060BA
:1003F00009B44FF0500080F31188BFF34F8FBFF363
:100400006F8F17F04DF94FF0000080F3118809BC91
:1004100019680868B0E8F04F1EF0100F08BFB0EC84
:10042000108A80F30988BFF36F8F70473C00002467
:10043000EFF30580704700000A4880470A4880476C
:100440000A480047FEE7FEE7FEE7FEE7FEE7FEE7B5
:10045000FEE7FEE7FEE7FEE705480649064A074BCA
:1004600070470000C92A000801230108990200080A
:10047000489B002448CB002448AB002448AB002410
:10048000704753EA020C00F069802DE9F04B4FF001
:100490000006002B1FBFB3FA83F503FA05F424FA14
:1004A00005F65E4012BF1643B2FA82F502FA05F471
:1004B000C5F120051EBF22FA05FC44EA0C042035D4
:1004C00056EA044C4FEA144418BF641C4FF000086D
:1004D0004FF00009904271EB030C39D3002919BF8A
:1004E000B1FA81F701FA07F6B0FA80F700FA07F6D9
:1004F000C7F120071EBF20FA07FC46EA0C0620378A
:10050000B6FBF4FCA7EB0507103F07F01F0BCBF180
:1005100020060CFA0BFB2CFA06F644BFB346002665
:10052000202FA4BF5E464FF0000B5BEA060C08BF0D
:100530004FF0010B19EB0B09ABFB027C48EB0608F3
:10054000C01B06FB02CC0BFB03CC71EB0C01C1E71B
:100550000B46024641464846BDE8F08B13B54FF0C6
:1005600000004FF00001AFF30080BDE81C40704771
:10057000032A40F2308010F0030C00F0158011F8CF
:10058000013BBCF1020F624498BF11F801CB00F8A7
:10059000013B38BF11F8013BA2F1040298BF00F8FB
:1005A00001CB38BF00F8013B11F0030300F02580B8
:1005B000083AC0F0088051F8043B083A51F804CBDF
:1005C000A0E80810F5E7121D5CBF51F8043B40F8A5
:1005D000043BAFF30080D20724BF11F8013B11F8B0
:1005E00001CB48BF11F8012B24BF00F8013B00F8F4
:1005F00001CB48BF00F8012B704710B5203AC0F07E
:100600000B80B1E81850203AA0E81850B1E8185013
:10061000A0E81850BFF4F5AF5FEA027C24BFB1E850
:100620001850A0E8185044BF18C918C0BDE81040C1
:100630005FEA827C24BF51F8043B40F8043B08BFCA
:100640007047D20728BF31F8023B48BF11F8012B91
:1006500028BF20F8023B48BF00F8012B704702F08A
:10066000FF0343EA032242EA024200F002B84FF0DD
:1006700000020429C0F0128010F0030C00F01B806F
:10068000CCF1040CBCF1020F18BF00F8012BA8BF7D
:1006900020F8022BA1EB0C0100F00DB85FEAC17C41
:1006A00024BF00F8012B00F8012B48BF00F8012BF4
:1006B00070474FF0000200B5134694469646203925
:1006C00022BFA0E80C50A0E80C50B1F12001BFF40B
:1006D000F7AF090728BFA0E80C5048BF0CC05DF871
:1006E00004EB890028BF40F8042B08BF704748BFBF
:1006F00020F8022B11F0804F18BF00F8012B704733
:10070000704770477047704710B500F009F80068EF
:1007100010BD10B5044600F003F8046010BD0000E1
:1007200000487047E49A002400487047E49A002487
:100730007546FFF7F9FFAE4605006946534620F0BF
:100740000700854618B020B5FFF786FEBDE82040BB
:100750004FF000064FF000074FF000084FF0000B7D
:1007600021F00701AC46ACE8C009ACE8C009ACE830
:10077000C009ACE8C0098D46704710B50446AFF318
:1007800000802046BDE81040FFF7EFBD70B504467D
:100790004F492068884203D04E492068884208D1DA
:1007A0004D48006800F4403008B1012009E0002005
:1007B00007E04A48006800F4403008B1012000E03A
:1007C0000020B8B109F054F905466068B0F5803FE3
:1007D00006D0B0F5003F04D0B0F5403F08D105E0A9
:1007E00000BF6068000CB5FBF0F502E0AD0800E06A
:1007F00000BF2BE04FF40020002107F067FC054606
:100800006068C0F31101F9B980140C281CD2DFE82C
:1008100000F01B060708090A0B111315171900BF72
:1008200000BF00BF00BF00BF6068800C4000B5FB88
:10083000F0F50AE02D0908E06D0906E0AD0904E0D5
:10084000ED0902E02D0A00E000BF00BF06F02CFB1E
:1008500041F20301884210D82148854206D9206818
:10086000806840F48070216888602FE0206880688C
:1008700020F480702168886028E06D08194885425E
:1008800006D82068806820F44070216888601DE0E8
:100890001548854208D82068806820F4407040F4EC
:1008A00080702168886011E01048854208D820686F
:1008B000806820F4407040F400702168886005E092
:1008C0002068806840F440702168886070BD000036
:1008D0000020024000210240082302400863025821
:1008E000002D3101105E5F0020BCBE0040787D010C
:1008F0002DE9F05F044688464FF00009474620681E
:100900000DF0A4FE824620680DF087FE8346BAF102
:10091000000F02D1BBF1000F72D02068C06800F058
:10092000007000B3607D01281DD1207D01281AD1FF
:1009300001270FE0334881450AD3606D40F0100075
:100940006065A06D40F00100A0650120BDE8F09F4A
:1009500009F1010920680068C0F380100028E9D07F
:10096000402021680860022F10D020680DF06EFE34
:1009700060B120680DF056FE40B920688168224AB7
:10098000114041F01001816000BF00BF012F10D065
:1009900020680DF042FE60B120680DF043FE40B9C2
:1009A00020688168184A114041F02001816000BF31
:1009B00000BF022F03D0032F03D10C2503E008252D
:1009C00001E0042500BF00BF06F074FA064612E0FD
:1009D00006F070FA801B05280DD920688068284031
:1009E00048B1606D40F010006065A06D40F00100FE
:1009F000A0650120AAE72068806828400028E7D188
:100A00000020A3E700DC0C00C0FFFF7F70B50546A7
:100A1000AC6B606D00F0500098BB606D40F40070EE
:100A200060652068006800F00800A8B120680DF03B
:100A300017FE10B32068C06800F40050E8B9606D7C
:100A400020F480706065606D00F48050A8B9606D1E
:100A500040F00100606510E02068C06800F003000D
:100A600058B9606D20F480706065606D00F480504E
:100A700018B9606D40F001006065204603F09CFFEE
:100A80000CE0FFE7606D00F0100018B1204603F0A5
:100A900095FF03E0E06CC16C2846884770BD70B5D7
:100AA0000546AC6B606D40F040006065A06D40F0A5
:100AB0000400A065204603F081FF70BD70B50446B8
:100AC000A56B284603F079FF70BD000070B50446A1
:100AD00020680DF0A7FD064620680DF0A8FD98B32C
:100AE00096BB2068806800F00D0001280AD12068BC
:100AF00081681A4A1140891C816000BF0320216867
:100B0000086009E0606D40F010006065A06D40F085
:100B10000100A065012070BD06F0CCF9054614E087
:100B200006F0C8F9401B02280FD92068806800F041
:100B3000010050B1606D40F010006065A06D40F0A4
:100B40000100A0650120E6E705E02068806800F06C
:100B500001000028E4D10020DDE70000C0FFFF7F96
:100B600070B5044620680DF062FD002851D1206860
:100B700080682949084048B1606D40F01000606508
:100B8000A06D40F00100A065012070BD20680DF04F
:100B900037FD06F08FF90546204A2168914203D0BF
:100BA0001F4A2168914201D11E4900E01E490846B2
:100BB0000DF02EFD06461A492068884201D11748DB
:100BC00000E020682168884200D00EBB1AE020684F
:100BD0000DF02DFD10B920680DF012FD06F06AF938
:100BE000401B02280ED92068006800F0010048B9B7
:100BF000606D40F010006065A06D40F00100A065E0
:100C00000120C2E72068006800F001000028DED063
:100C100000BF0020B9E700003F0000800020024034
:100C200000210240002302400063025801469FED6C
:100C30000C0BB0EE401B00200BE031F8102000EE52
:100C4000102AB8EE400B30EE010BB0EE401B421CF8
:100C5000D0B23228F1DB9FED042B81EE020B7047FE
:100C600000000000000000000000000000004940FB
:100C700070B505460C4605B10CB9002070BD224682
:100C80002946044801F085FFA04201D10120F5E783
:100C90000020F3E7A095002400BFFEE7024609B953
:100CA000002070470D4890F8000608B10020F8E7D2
:100CB0000B480B6803614B6843610B8903838B7A94
:100CC0008376064880F84025012380F841350120CD
:100CD000024B83F8000600BFE3E70000D079002450
:100CE000D07F002401B97047064A0B88A2F801366C
:100CF0008B7882F8033610700122024B5A7000BFC5
:100D0000F1E70000D079002410B5024804F0A8FDF6
:100D100010BD0000D40F002410B5024804F0A0FD5F
:100D200010BD00004C10002410B5024804F098FDDE
:100D300010BD0000B411002410B5024804F090FD6D
:100D400010BD00003C11002410B5024804F088FDDD
:100D500010BD0000A412002410B5024804F080FD6C
:100D600010BD00005409002410B5024804F078FDBD
:100D700010BD0000CC09002410B5024804F070FD3D
:100D800010BD0000440A002410B5024804F068FDBC
:100D900010BD0000BC0A002410B5024804F060FD3C
:100DA00010BD00005804002410B5024804F058FD9E
:100DB00010BD0000E003002410B5024804F050FD0F
:100DC00010BD00007407002410B5024804F048FD6F
:100DD00010BD0000EC07002410B5024804F040FDEF
:100DE00010BD00002C12002410B5024804F038FD9C
:100DF00010BD00006408002410B5024804F030FD66
:100E000010BD0000DC0800240146374A0868904203
:100E100049D0354A18320868904244D0324A3032BC
:100E2000086890423FD0304A4832086890423AD031
:100E30002D4A60320868904235D02B4A78320868D3
:100E4000904230D0284A9032086890422BD0264AEF
:100E5000A8320868904226D0244A0868904222D0DE
:100E6000224A1832086890421DD0204A3032086861
:100E7000904218D01D4A48320868904213D01B4A4D
:100E80006032086890420ED0184A78320868904262
:100E900009D0164A90320868904204D0134AA8320A
:100EA0000868904201D1012000E00020B0B10A782A
:100EB000103A1823B2FBF3F000F007020C4B9A5CD7
:100EC000CA65032805D90A686FF30902121D8A65ED
:100ED00003E00A686FF309028A6503E0086820F0FE
:100EE000FF008865886D70471000024010040240C2
:100EF000A48A010810B502682B4C0368A34222D0D3
:100F0000294C14340368A3421DD0274C28340368AD
:100F1000A34218D0244C3C340368A34213D0224C83
:100F200050340368A3420ED01F4C64340368A342BC
:100F300009D01D4C78340368A34204D01A4C8C3479
:100F40000368A34201D1012300E000238BB10378A1
:100F5000083B1424B3FBF4F1144B03EB8103036649
:100F6000124B8033436601F01F040123A3408366C4
:100F700018E00378103B1824B3FBF4F10C4B9A42B1
:100F800004D80B4BA83B9A4200D30831094B03EB22
:100F900081030366074B8033436601F01F0401237E
:100FA000A340836610BD0000085402580058025840
:100FB000B8040240000802400179A9B3082940D8CA
:100FC000204B02689A4222D01E4B143302689A4288
:100FD0001DD01C4B283302689A4218D0194B3C3361
:100FE00002689A4213D0174B503302689A420ED0CF
:100FF000144B643302689A4209D0124B783302686A
:101000009A4204D00F4B8C3302689A4201D10122DC
:1010100000E000224AB14A1E0B4B03EB8202C2667B
:10102000094A4032026708E00BE04A1E074B03EB17
:101030008202C266054A403202674A1E012393407B
:10104000436770470854025800590258000902408B
:10105000014600208A69D2B98A6A32B1012A0DD0CC
:10106000022A03D0032A10D10EE000BFCA6A02F0A0
:101070008072B2F1807F00D1012007E0CA6AB2F12C
:10108000C07F00D1012001E000E000BF36E08A69A6
:10109000B2F5005F1BD18A6A32B1012A07D0022A59
:1010A00003D0032A11D10AE000BF01200EE0CA6A72
:1010B00002F08072B2F1807F00D1012006E0CA6A9E
:1010C000B2F1C07F00D1012000E000BF16E08A6AC3
:1010D00032B1012A05D0022A04D0032A0CD103E040
:1010E00000BF00BF012008E0CA6A02F08072B2F1BE
:1010F000807F00D1012000E000BF00BF70470000EA
:10110000F0B5856D846D984F0668BE4270D0964FDD
:1011100018370668BE426BD0934F30370668BE4220
:1011200066D0914F48370668BE4261D08E4F603717
:101130000668BE425CD08C4F78370668BE4257D0F6
:10114000894F90370668BE4252D0874FA83706684D
:10115000BE424DD0854F0668BE4249D0834F1837F6
:101160000668BE4244D0814F30370668BE423FD049
:101170007E4F48370668BE423AD07C4F60370668DB
:10118000BE4235D0794F78370668BE4230D0774FAF
:1011900090370668BE422BD0744FA8370668BE420F
:1011A00026D0734F0668BE4222D0714F14370668AE
:1011B000BE421DD06E4F28370668BE4218D06C4F15
:1011C0003C370668BE4213D0694F50370668BE42AE
:1011D0000ED0674F64370668BE4209D0644F783737
:1011E0000668BE4204D0624F8C370668BE4201D109
:1011F000012600E000263EB1D0E919767E60C66E79
:1012000016B1D0E91C767E60574F0668BE4249D0C1
:10121000554F18370668BE4244D0534F30370668E2
:10122000BE423FD0504F48370668BE423AD04E4F7C
:1012300060370668BE4235D04B4F78370668BE42ED
:1012400030D0494F90370668BE422BD0464FA83762
:101250000668BE4226D0454F0668BE4222D0434FA4
:1012600018370668BE421DD0404F30370668BE4270
:1012700018D03E4F48370668BE4213D03B4F603708
:101280000668BE420ED0394F78370668BE4209D094
:10129000364F90370668BE4204D0344FA8370668F0
:1012A000BE4201D1012600E00026DEB190F85C606C
:1012B00006F01F073F26BE40AE600668366826F47B
:1012C000802607683E60066873608668402E04D1F9
:1012D0000668B2600668F16044E00668B1600668BE
:1012E000F2603FE0224F0668BE4222D0204F143702
:1012F0000668BE421DD01E4F28370668BE4218D071
:101300001B4F3C370668BE4213D0194F5037066852
:10131000BE420ED0164F64370668BE4209D0144F45
:1013200078370668BE4204D0114F8C370668BE423B
:1013300001D1012600E00026A6B190F85C6006F01D
:101340001F070126BE406660066873608668402EEF
:1013500004D10668B2600668F16003E00668B16017
:101360000668F260F0BD0000100002401004024068
:101370000854025810B54FF480722749274801F0ED
:1013800086FC274801F056F9FF20264981F84E00D7
:1013900000212448A0F85010A0F85210FF20214945
:1013A00081F8800114211F48A0F882110121A0F8C2
:1013B0008411FF201B4981F8320100211948A0F84F
:1013C0003411A0F83611FF20164981F838010021A8
:1013D0001448A0F83A11A0F83C11FF20114981F8F7
:1013E000860100210F48A0F88811A0F88A11FF207B
:1013F0000C4981F8400500210A48A0F84215A0F8E0
:101400004415FF20074981F84C0500210548A0F844
:101410004E15A0F8501510BD1C810024A801002411
:10142000A5320008D079002402468A4202DD501A13
:1014300000B270474842824202DA501800B2F8E720
:101440000020F6E77047000010B5144803F081FD56
:10145000134803F07EFD114803F056FD104803F0D9
:1014600053FD40F2FF7200210C4802F0B7FE0A2043
:1014700005F0F2FB40F2FF720021094802F0AEFED7
:101480000A2005F0E9FB32220649054803F0A2FCD8
:1014900032220549014803F09DFC10BD18030024C9
:1014A0007C030024087900246C7900241FB50020F7
:1014B0000090019002900390002407E0012005F0C5
:1014C000CBFB684600F028FD601C84B2B4F57A7F3F
:1014D000F4DB1FBD70B52DED028B06463A4800784F
:1014E00048B9002E02DD00F043FC01E000F066FC8C
:1014F000BDEC028B70BD34480078401EC5B2294651
:101500003248007800F0C0FA044604B9F0E72846F3
:1015100000F01CFBB0EE408A94ED000A002E00BFE4
:10152000F1EE480A78FE200A30EE200A84ED000A27
:10153000092D42D2DFE805F0050607141516172716
:10154000340000BF00BFD4ED000AB0EE600A9FED8A
:10155000201ADFED200A00F0F5FB84ED000A2DE0F3
:1015600000BF00BF00BFD4ED000AB0EE600A9FEDDF
:101570001A1ADFED1A0A00F0E5FB84ED000A28468E
:1015800000F022FA1AE0D4ED000AB0EE600A9FEDF6
:10159000141ADFED100A00F0D5FB84ED000A0DE00F
:1015A000D4ED000AB0EE600AB7EE001ADFED090ACA
:1015B00000F0C8FB84ED000A00E000BF00BF01207E
:1015C0000849087000BF93E76B0100246A010024FA
:1015D00000004842000000000000FA430000FAC387
:1015E000000048436D01002410B50848007810B988
:1015F00000F00EF808E005480078012802D100F05C
:1016000055F801E000F022F910BD00006801002447
:1016100070B50DF063FF08231BA2002108460EF0F1
:101620008FF9002425E004EB4400182101EB80052C
:1016300017480078844201D13E2000E02020024675
:101640000623294600200EF075F8124850F8242091
:10165000062329460C200EF073F90D4800788442C9
:1016600005D108238022294600200EF009F8601CCD
:10167000C4B2022CD7D3062307A2382100200EF0D3
:101680005FF90EF075F970BD4D454E550000000034
:1016900069010024C895010855502F444E20534538
:1016A0004C20454E5420494E0000000070B50DF00E
:1016B00015FF062321A2002108460EF041F9224819
:1016C000007808B121A000E022A0024606230021F4
:1016D00054200EF035F9062320A2082100200EF038
:1016E0002FF91F481F49097850F8212006230821A7
:1016F00012200EF025F906231BA2082136200EF039
:101700001FF900F0ADF90546002406E02919C8B21A
:10171000214600F043F8601CC4B2052CF6D30A48F9
:10172000007808B113A000E017A002460623382174
:1017300000200EF005F90EF01BF970BD5049442051
:101740004D454E55000000006C01002445444954AD
:101750000000000053454C200000000041583A00B2
:10176000949501086A0100244241434B3D5245547F
:101770000000000055502F444E202B2F2D202045D7
:101780004E54204F4B00000055502F444E205345DF
:101790004C20454E54204544495400002DE9F04169
:1017A00004460E46102000EBC6082248007884420A
:1017B00001D13E2000E020200246062341460020C1
:1017C0000DF0B8FF84B906231BA2414618460EF05F
:1017D000B7F81B481B49097850F8212006234146D9
:1017E00054200EF0ADF818E0601EC7B2164850F84D
:1017F00027200623414618460EF0A2F83946114824
:10180000007800F041F905463DB1D5ED000AB0EE93
:10181000600A41464E2000F0F7FA064800788442FC
:1018200005D108238022414600200DF029FFBDE8A4
:10183000F08100006B010024415849530000000072
:10184000949501086A010024A495010800B587B0A9
:1018500002A800F04BF90DF041FE062342A2002140
:1018600008460EF06DF8062342A200215A200EF021
:1018700067F8062341A20A2100200EF061F8BDF9A5
:10188000082005230A21122000F01EFB06233CA29B
:10189000142100200EF054F8BDF90A20052314216C
:1018A000122000F011FB062336A21E2100200EF0AC
:1018B00047F805231E211220049A00F005FB9DF82D
:1018C0001400012801D130A000E030A00246062318
:1018D0001E2136200EF034F806232DA228210020E8
:1018E0000EF02EF8BDF9160000EE900AF8EEE00AB0
:1018F0009FED291A60EE810AB0EE600A28211E20B1
:1019000000F082FA062325A2342100200EF018F8F8
:10191000062000909DF818200323342108200DF0A4
:10192000B1FF06231EA2342120200EF009F8062064
:1019300000909DF819200323342128200DF0A2FFE8
:10194000062318A2342140200DF0FAFF0620009053
:101950009DF81A200323342148200DF093FF0EF048
:1019600007F807B000BD0000524144415220504FDB
:10197000530000004241434B00000000583A000071
:10198000593A00005A3A00004F4600005244000005
:101990005941573A000000000AD7233C500000008C
:1019A0005100000059000000044908700021044A59
:1019B00011700121034A1170704700006801002472
:1019C0006C0100246D0100240146234A1278C2EB09
:1019D0000212224B03EB820003290DD190ED060A7F
:1019E000D0ED070AB4EEE00AF1EE10FA04DD90ED56
:1019F000070A80ED060A2EE004290DD190ED070AB2
:101A0000D0ED060AB4EEE00AF1EE10FA04D290ED41
:101A1000060A80ED070A1EE005290DD190ED080A9F
:101A2000D0ED090AB4EEE00AF1EE10FA04DD90ED13
:101A3000090A80ED080A0EE006290CD190ED090A8A
:101A4000D0ED080AB4EEE00AF1EE10FA03D290ED00
:101A5000080A80ED090A70476A010024C099002431
:101A600008480078022801D2002070470548007815
:101A7000072801D90520F8E702480078801EC0B287
:101A8000F3E700006B01002410B502460B46042A60
:101A900001DB002010BDC2EB0210134C04EB8001EF
:101AA000092B1FD2DFE803F00507090C0F121518E8
:101AB0001B000846EEE7081DECE701F10800E9E726
:101AC00001F11800E6E701F11C00E3E701F1200055
:101AD000E0E701F12400DDE701F12800DAE701F198
:101AE0002C00D7E70020D5E7C099002400B9704743
:101AF0000F490A680260898881800E49097801735C
:101B0000017B012903D10C49096A816002E0B0F927
:101B10000410816009490988C18109490978017463
:101B200008490978417408490978817400BFDEE7E3
:101B3000BE01002400020024F48C0024D201002401
:101B4000D4010024D5010024D6010024092811D293
:101B5000DFE800F0050607111213140D0A0000BF9C
:101B600000BF9FED080A70479FED070AFBE7B6EE3E
:101B7000000AF8E700BF00BF00BF00BFB7EE000AD1
:101B8000F1E700000AD7233CCDCC4C3DF8B501F07D
:101B9000E7FA00909DF8000020B12048007808B9CD
:101BA000012000E0002005469DF8010020B11B48FF
:101BB000407808B9012000E0002006469DF80200A8
:101BC00020B11648807808B9012000E000200746BF
:101BD0009DF8030020B11148C07808B9012000E049
:101BE000002004460D48009901600D48007828B98E
:101BF0003A463146284600F015F80DE008480078CE
:101C0000012806D123463A463146284600F026F8F8
:101C100002E0204600F064F8F8BD000074010024E2
:101C20006801002470B506460C4615461EB1022117
:101C3000094800F0D7F81CB10221074800F0ACF8C1
:101C40004DB10548007818B90120FFF7ADFE02E05C
:101C50000220FFF7A9FE70BD690100242DE9F041C3
:101C600004460D4617461E4657B11A48007808B973
:101C7000012000E000201749087001201649087073
:101C800066B11448007830B1002012490870012074
:101C90001149087002E00020FFF786FE54B10D489C
:101CA000007818B10120FFF715FC03E00A210B486A
:101CB00000F098F85DB10748007820B14FF0FF3090
:101CC000FFF708FC03E00A21044800F065F8BDE8CE
:101CD000F08100006C0100246D0100246B010024E0
:101CE00010B5044614B10020FFF75EFE10BD0000E1
:101CF00008B500200B4908700B4908700B490870A3
:101D00000B4908700B49087001200B49087000202E
:101D10000A49086001F024FA00900948009901601E
:101D200008BD000068010024690100246A01002444
:101D30006B0100246C0100246D010024700100245B
:101D400074010024F0EE401AF4EEE01AF1EE10FAFD
:101D500002D2B0EE600A7047F4EEC11AF1EE10FA4A
:101D600002DDB0EE410AF6E7B0EE610AF3E70000EB
:101D700007480078401C0649087008460078042887
:101D800001DB002008700120024908707047000044
:101D90006A0100246D01002400B101B97047027886
:101DA000521C027002788A4201DB0022027001227A
:101DB000014B1A7000BFF1E76D010024074800785D
:101DC00018B903200549087004E004480078401E53
:101DD0000249087001200249087070476A01002416
:101DE0006D01002400B101B97047027812B94A1E92
:101DF000027002E00278521E02700122014B1A703A
:101E000000BFF1E76D0100242DE9F0432DED028BB9
:101E100081B005468946B0EE408AB5EEC08AF1EE43
:101E200010FA06DBDFED270AB6EE000A08EE200AFC
:101E300005E0DFED240AB6EE000A18EE200ABDEE3A
:101E4000C00A10EE104A002C01DA604200E0204681
:101E500007466420B7FBF0F6B7FBF0F100FB117802
:101E6000B6F57A7F03D340F2E7364FF06308002CD3
:101E700001DA2D2000E02B200246062349462846A1
:101E80000DF058FC06200323324649460090A81D59
:101E900000B20DF0F7FC06232E22494605F118008A
:101EA00000B20DF047FC062002234246494600904E
:101EB00005F11E0000B20DF0E5FC01B0BDEC028B97
:101EC000BDE8F0830000C842F8B504460D4616464A
:101ED0001F4606203B4632462946009020460DF01C
:101EE000F7FCF8BD10B504F0E5FF0446FFF74EFE21
:101EF0000748007820B907480068201A642806D3EC
:101F000004480460002002490870FFF76DFB10BD13
:101F10006D0100247001002410B5044604B910BD01
:101F200000220821184804F0B9FFB4F9000017494D
:101F30000EF0FCFE2423154A0821154809F03CFC4C
:101F4000B4F9020013490EF0F1FE2423114A0021D6
:101F50000F4809F031FCB4F904000F490EF0E6FE19
:101F600024230D4A04210A4809F026FCB4F906008E
:101F70000A490EF0DBFE2423084A0C21044809F02C
:101F80001BFC00BFCBE70000000802585082002471
:101F900090060024E0820024708300240084002442
:101FA00010B50FF037FA002008490870084908807A
:101FB00001200849087000200749087004F07AFFE2
:101FC000064908600FF056FD10BD000032020024E3
:101FD000340200243C0200243D0200243802002484
:101FE00010B52DED028BB0EE408A0FF00FFC04F01F
:101FF00061FF0D490968401AB0F5FA7F11D90B4805
:10200000007818B10A4800780A2804D20948006804
:10201000401C084908600A2005490870012003494E
:102020000870BDEC028B10BD380200243C02002475
:102030003D0200242002002408B50020009016482C
:102040000068401C144908601448D0F890001449F6
:102050000860124809F030FE0DF060F900F03AF81F
:1020600000BF00200D4981F8840000BF0D480068C2
:1020700088B16A4600210B48006815F0F3F800BFEC
:10208000009838B14FF0805007490860BFF34F8F78
:10209000BFF36F8F00BF08BDF8000024180E0024A6
:1020A000FC000024D000002404ED00E010B5064838
:1020B000064908604FF4F0630122054903480068AF
:1020C00000F0C8FD10BD0000006D0024E0000024F9
:1020D0008065002410B545480068401C43490860ED
:1020E00040224349434809F0F7FC04464248046053
:1020F000002C70D1414800684149884258D03F487F
:1021000000683F491831884252D03C4800683C4939
:10211000303188424CD039480068394948318842CA
:1021200046D03648006836496031884240D033484E
:1021300000683349783188423AD0304800683049E5
:102140009031884234D02D4800682D49A83188420A
:102150002ED02A4800682B49884229D02748006899
:1021600028491831884223D0244800682549303155
:1021700088421DD02148006822494831884217D042
:102180001E4800681F496031884211D01B48006812
:102190001C49783188420BD01848006819499031A1
:1021A000884205D0154800681649A831884208D1F0
:1021B00012480068006820F00800104909680860AB
:1021C00013E00E480068006820F004000B4909681D
:1021D00008600AE0FFE70C480068401C0A490860F4
:1021E0000448D0F890000949086010BDEC000024B4
:1021F00040650024180E0024F4000024B4110024CB
:102200001000024010040240F0000024FC000024F2
:102210000149086070470000D000002408B1014661
:1022200000E00249024A116070470000412800089E
:10223000C000002438B5044600200090164800680D
:10224000401C15490860154800682044134908607F
:102250001348006838B1402C05DC2246114910486B
:10226000006800F096FCFFF735FF0F48006888B162
:102270006A4600210C48006814F0F4FF00BF009883
:1022800038B14FF0805009490860BFF34F8FBFF35A
:102290006F8F00BF38BD0000E4000024E800002478
:1022A000E000002440650024D000002404ED00E09C
:1022B00070B504460D4604B10DB9002070BD4FF64F
:1022C000FF732A46214604480AF01DFC08B9012084
:1022D000F4E70020F2E70000AC0E002408B500206F
:1022E000009000F02FF80B48006888B16A46002182
:1022F0000848006814F0B6FF00BF009838B14FF0EE
:10230000805005490860BFF34F8FBFF36F8F00BF48
:1023100008BD0000D400002404ED00E010B506481C
:10232000064908604FF480630122054903480068AC
:1023300000F090FC10BD0000587100240001002442
:10234000586D002410B5402239493A4809F0C4FBC1
:10235000394800683949884258D0374800683749B9
:102360001831884252D034480068344930318842AC
:102370004CD03148006831494831884246D02E4817
:1023800000682E496031884240D02B4800682B49B4
:10239000783188423AD028480068284990318842EC
:1023A00034D0254800682549A83188422ED02248DB
:1023B00000682349884229D01F4800682049183105
:1023C000884223D01C4800681D49303188421DD006
:1023D000194800681A494831884217D016480068E1
:1023E00017496031884211D0134800681449783188
:1023F00088420BD01048006811499031884205D0BE
:102400000D4800680E49A831884208D10A48006882
:10241000006820F0080008490968086007E00648DD
:102420000068006820F0040003490968086010BDD6
:10243000186D0024AC0E00242C1200241000024061
:10244000100402400149086070470000D4000024D5
:1024500008B1014600E00249024A116070470000DD
:1024600041280008C400002438B50446002000902C
:102470001148006838B1402C05DC22460F490E484F
:10248000006800F086FBFFF75DFF0D48006888B12B
:102490006A4600210A48006814F0E4FE00BF009874
:1024A00038B14FF0805007490860BFF34F8FBFF33A
:1024B0006F8F00BF38BD000000010024186D00249C
:1024C000D400002404ED00E070B504460D4604B1CC
:1024D0000DB9002070BD2A46214608480AF07EFB4F
:1024E00050B90748006828B14FF0FF310448006830
:1024F00015F032FD0120EDE70020EBE7340B00245E
:102500000000002410B500F015F810BD10B5064805
:10251000064908604FF41673012205490348006814
:1025200000F098FB10BD0000D873002404010024C3
:102530007F71002410B50F2239493A4809F0CCFACE
:10254000394800683949884258D0374800683749C7
:102550001831884252D034480068344930318842BA
:102560004CD03148006831494831884246D02E4825
:1025700000682E496031884240D02B4800682B49C2
:10258000783188423AD028480068284990318842FA
:1025900034D0254800682549A83188422ED02248E9
:1025A00000682349884229D01F4800682049183113
:1025B000884223D01C4800681D49303188421DD014
:1025C000194800681A494831884217D016480068EF
:1025D00017496031884211D0134800681449783196
:1025E00088420BD01048006811499031884205D0CC
:1025F0000D4800680E49A831884208D10A48006891
:10260000006820F0080008490968086007E00648EB
:102610000068006820F0040003490968086010BDE4
:1026200070710024340B00244C1000241000024070
:102630001004024008B1014600E00249024A11605C
:102640007047000041280008C800002410B5044667
:102650000648006838B10F2C05DC224604490348BF
:10266000006800F096FAFFF765FF10BD0401002432
:102670007071002408B5002000900A48006880B1FD
:1026800069460848006815F029FB00BF009838B17A
:102690004FF0805004490860BFF34F8FBFF36F8F36
:1026A00000BF08BD0000002404ED00E070B5044642
:1026B0000D4604B10DB9002070BD1048006808B97E
:1026C0000020F9E700BF00210C48006815F044FC29
:1026D0000128F8D02A46214609480AF07FFA08B1B5
:1026E0000020E9E714210548006815F035FC0128B1
:1026F00001D00020E0E70120DEE700001C000024FC
:10270000400F002408B50020009000F02FF80B487F
:10271000006888B16A4600210848006814F0A2FDEC
:1027200000BF009838B14FF0805005490860BFF3F2
:102730004F8FBFF36F8F00BF08BD0000D80000248B
:1027400004ED00E010B50648064908604FF48073B8
:10275000012205490348006800F07CFA10BD000022
:10276000F074002410010024F073002410B5052239
:102770000249034809F0E1F910BD000008010024F6
:10278000400F00240149086070470000D800002471
:1027900008B1014600E00249024A1160704700009A
:1027A00041280008CC00002438B5044600200090E1
:1027B0001148006838B1052C05DC22460F490E4847
:1027C000006800F0E6F9FFF7D1FF0D48006888B116
:1027D0006A4600210A48006814F044FD00BF0098D2
:1027E00038B14FF0805007490860BFF34F8FBFF3F7
:1027F0006F8F00BF38BD00001001002408010024C5
:10280000D800002404ED00E008B5002000900A483C
:10281000006880B169460848006815F05FFA00BF9B
:10282000009838B14FF0805004490860BFF34F8FD3
:10283000BFF36F8F00BF08BD1C00002404ED00E053
:102840007047000010B52DED028B0848FEF7EEF939
:10285000B0EE408B9FED061B88EE010B9FED061B33
:1028600020EE010BBDEC028B10BD00006C79002442
:1028700000000000E0FFEF4000000000008CA940D5
:1028800010B52DED028BFFF7DDFF9FED0F1B20EE46
:10289000010BB0EE408BB5EEC08BF1EE10FA03D217
:1028A0000020BDEC028B10BD9FED090BB4EEC08B78
:1028B000F1EE10FA02DD4FF6FF70F2E7BCEEC80B46
:1028C00010EE100A80B2ECE77B14AE47E1FAF63F57
:1028D00000000000E0FFEF4010B52DED028B00F08E
:1028E00035F89FED121B20EE011B9FED122B9FED83
:1028F000130B01EE020BB0EE408BB5EEC08BF1EE88
:1029000010FA03D20020BDEC028B10BD9FED0D0B21
:10291000B4EEC08BF1EE10FA02DD4FF6FF70F2E775
:10292000BCEEC80B10EE100A80B2ECE7000000000D
:1029300000005940FCA9F1D24D62503F9A999999F3
:102940009999B93F00000000E0FFEF4010B52DED70
:10295000028B0C48FEF76AF9B0EE408B9FED0A0B34
:1029600088EE001B9FED0A0B21EE000BB2EE061B5A
:1029700020EE011BB7EE002B81EE020BBDEC028BAB
:1029800010BD00000879002400000000E0FFEF40C7
:102990000000000000C8A94010B50022042107482B
:1029A00004F07CFA00220221044804F077FA0022A5
:1029B0000821024804F072FA10BD0000000C025811
:1029C0007FB5044600200090019002900390002CF7
:1029D0006FD03A480088052190FBF1F005B24FF422
:1029E000FA62002128460BF0EEFEADF800003348F5
:1029F0004088052190FBF1F005B24FF4FA62002106
:102A000028460BF0E0FEADF802002C488088052136
:102A100090FBF1F005B24FF4FA62002128460BF06A
:102A2000D2FEADF804002548C088052190FBF1F0E6
:102A300005B24FF4FA62002128460BF0C4FEADF84F
:102A400006001E480089052190FBF1F005B24FF405
:102A5000FA62002128460BF0B6FEADF808001748D0
:102A60004089052190FBF1F005B24FF4FA62002194
:102A700028460BF0A8FEADF80A0010488089052111
:102A800090FBF1F005B24FF4FA62002128460BF0FA
:102A90009AFEADF80C000948C089052190FBF1F0C1
:102AA00005B24FF4FA62002128460BF08CFEADF817
:102AB0000E006846FFF730FA7FBD0000F67F002465
:102AC00072B600BFFEE700000748006840F0020051
:102AD0000549086000BF04480838006800F4005049
:102AE0000028F8D0704700000C48025810B5DFED00
:102AF0000E2AB3EE092AF3EE091A9FED0B1ADFED49
:102B00000B0A9FED0A0A0A4812F06EF901200949E2
:102B1000087004F0CFF908490860002007490870E0
:102B20000749487010BD00000000C84200000000C6
:102B3000208C00240202002404020024010200244C
:102B4000E701002410B52DED028BB0EE408AB0EE07
:102B5000480A00F037FA00F0D1F9BDEC028B10BD45
:102B60000EB510208DF80000002005E000220DF1C8
:102B700001010A54411CC8B20A28F7DB00208DF875
:102B8000010001218DF802106946FF20FEF786F84A
:102B90000EBD2DE9F04104460D4616464FF00008E3
:102BA0002F460AE03946204600F00FF820B1206990
:102BB000074408F1010800E003E0301EA6F1010619
:102BC000F0D100BF4046BDE8F08170B504460E4626
:102BD000204600F04FF808B1002070BD6569A1687B
:102BE000236901FB03501A463146FDF7C1FCA0687A
:102BF000401CA060A0682168884201D30020A0602A
:102C0000E068401CE0600120E7E70021C16041600E
:102C10008160704770B504460D46204600F023F8E9
:102C200008B1002070BD66696068236900FB03611C
:102C30001A462846FDF79CFC6068401C606060688E
:102C40002168884201D300206060E068401EE06097
:102C50000120E7E710B54161026103600024446090
:102C60008460C46010BD0146C86808B9012070477F
:102C70000020FCE70146C8680A68904201D10120A3
:102C800070470020FCE70146481CC0B27047016055
:102C900000238380C280704770B50B468188114441
:102CA000C488A1420BDC002107E05D5C8688741CAF
:102CB00084800468A5554C1CA1B29142F5DB70BD1F
:102CC0008288C3889A4204DA83885A1C8280026808
:102CD000D154704730B505460C46E1B22846FFF79F
:102CE000EFFF21122846FFF7EBFF30BD70B5064617
:102CF0000D46002408E0E00025FA00F0C1B230469D
:102D0000FFF7DEFF601CC4B2042CF4DB70BD90ED55
:102D1000020B70470168491C0160704701B9704798
:102D2000064A0B8893818B789373A2F5C06210706A
:102D30000122034B5A7000BFF1E7000068930024A2
:102D4000688D002410B5044604EB4400224901EBD1
:102D50004000407880B104EB44000A4602EB400199
:102D6000204601F0E1F840B3002004EB44011A4A88
:102D700002EB410148702EE004EB4400164901EBE0
:102D800040004088C8B104EB440001EB400080885B
:102D900004EB4401104A02EB4101498888420DDBF3
:102DA000012004EB440102EB4101888004EB440064
:102DB00002EB4001204601F0B7F80CE004EB4400C0
:102DC000054901EB40008088401C04EB4401024AA5
:102DD00002EB4101888010BD688D0024FF2033493B
:102DE0000870002048808880FF2081F8400500217D
:102DF0002E48A0F84215A0F84415FF202B4981F871
:102E00004C0500212948A0F84E15A0F85015FF20C8
:102E10002649887164212548018100214181FF20D4
:102E20002249087364212148C18103210182FF20C6
:102E30001E49887464211D4881820621C182FF20B9
:102E40001A49087664211948418309218183FF20AA
:102E5000164981F860004FF496711448A0F862108A
:102E60000C21A0F86410FF20104981F866004FF48F
:102E700096710E48A0F868101021A0F86A10FF2083
:102E80000A4981F86C001E210848A0F86E10132131
:102E9000A0F87010FF20054981F872001E21034838
:102EA000A0F874101521A0F876107047688D0024E2
:102EB0002DE9F04107460D461646002405E0295D40
:102EC0003846FFF7FDFE601C84B2B442F7DBBDE874
:102ED000F081000010B501B910BD074AD1E90034F6
:102EE000C2E90534A2F5C06282F84C05012382F8DC
:102EF0004D3500BFF0E700006893002410B5264B65
:102F00005B791BB90123254C237002E00023234C7D
:102F10002370224B1878012803D1214B59781A6A63
:102F20000CE0204B1978204BB3F90430002B03DD63
:102F30001D4BB3F9043000E000231A461B4B1B78ED
:102F400083420BD1012803D1194B1B788B4204D04B
:102F500020B9184B1B788B4200D110BD134B187051
:102F6000012802D1124B197001E0124B1970002395
:102F7000114C23704FF48773A4F801302346C3F833
:102F8000032001240D4B83F839410D4B1B685B1C5A
:102F90000B4C236000BFE0E72C0200240002002459
:102FA000F48C0024D4010024BE0100240902002472
:102FB0000A0200240B020024FC8B0024D079002498
:102FC000FC0100242DE9F04F2DED028B85B0B0EE11
:102FD000408A4FF000090025AA4600260027002459
:102FE0005648007820B905B0BDEC028BBDE8F08FE3
:102FF0005348407808B9012000E00020514908708A
:103000005148007851490978884201D0012000E0F8
:10301000002080464C48C07848B14B48807A30B197
:103020004FF0010A48488079FA2800D3D146B8F118
:10303000000F07D04448007844490870B9F1000FE8
:1030400000D001254248407808B1012000E000206E
:103050008346BBF1000F14D000203D4948703D4825
:10306000B0F90070B0F90240384611F061FFB0F5D8
:10307000967F06DA204611F05BFFB0F5967F00DA06
:1030800001263148B0F90E0000EE100AB8EEC00A71
:10309000F0EE401A2C48B0F90C0000EE100AB8EE21
:1030A000C00AB0EE401AB0EE482A2A46314600EE79
:1030B000104AF8EEC00A00EE107AB8EEC00A2648B0
:1030C00011F0DCFE2048B0F90E008DE82102CDF8A9
:1030D0000C801D48B0F90C3032462146384611F0BC
:1030E0005DFF1848007801280ED1BAF1000F02D117
:1030F00011F07EFF77E7144AB2F90E10B2F90C0016
:10310000164A11F04FFF16E00EB905B96BE71248E9
:10311000D0ED020AB0EE600A11F012FF04900E48E2
:10312000D0ED000AB0EE600A11F00AFF0B4A0390DE
:10313000049911F037FF00BF55E700000202002498
:103140002C02002401020024F48C00240802002434
:10315000E7010024C4010024208C00240080FFFF2C
:10316000F8B50020009003F0A5FE0646002491E08B
:1031700004EB84024A4B03EB8202918804EB840245
:1031800053F8220003F082FE04EB8401444A02EB70
:103190008101897909B1012100E00021884201D132
:1031A000012000E00020054604EB84003C4901EBCF
:1031B0008000007BA8420AD004EB840001EB800071
:1031C000057304EB840001EB800086600DE004EBE6
:1031D0008400334901EB80008068301A142804D33E
:1031E00004EB840001EB8000457304EB84002C4960
:1031F00001EB8000407B90B104EB840001EB800088
:10320000807B60B904EB840001EB8000006930B181
:1032100004EB8401224A02EB81010869804704EB38
:1032200084001F4901EB8000407B04EB84011C4AB1
:1032300002EB8101887334B1012C0DD0022C14D023
:10324000032C24D11AE004EB8400154901EB800023
:10325000407B8DF800001AE004EB8400104901EB7C
:103260008000407B8DF8010011E004EB84000C49E4
:1032700001EB8000407B8DF8020008E004EB840045
:10328000074901EB8000407B8DF8030000BF00BFC1
:10329000601CC4B2042CFFF46BAF0098F8BD0000B2
:1032A0001401002410B504464248007860B9AA2CE5
:1032B0000AD101203F49087000203F4908703F496A
:1032C00008703F48047073E03A480078012809D13B
:1032D000FF2C01D0612C05D10220364908703848F6
:1032E000447065E033480078022805D10320314955
:1032F0000870334884705BE02E480078032809D1B9
:10330000FA2C07DA04202B4908702D48C4702A488B
:1033100004704DE027480078042819D12648007829
:10332000002815DD24480078401E234908702348F2
:10333000007822490978491C204A1170001D204953
:103340000C541D48007858BB05201A4908702FE01E
:103350001848007805280DD106201649087017482E
:10336000007816490978491C144A1170001D144947
:103370000C541DE00F480078062812D100200D499A
:1033800008700E480078001D0D490C540B48007859
:10339000401D0C49087008460178094800F0E4F81F
:1033A00006E00020034908700349087003490870CB
:1033B00010BD0000B7010024B5010024B6010024AF
:1033C0001C800024B401002410B504464248007853
:1033D00060B9AA2C0AD101203F49087000203F495A
:1033E00008703F4908703F48047073E03A4800781D
:1033F000012809D1FF2C01D0612C05D102203649CA
:1034000008703848447065E033480078022805D1D8
:10341000032031490870334884705BE02E480078FF
:10342000032809D1FA2C07DA04202B4908702D480B
:10343000C4702A4804704DE027480078042819D148
:1034400026480078002815DD24480078401E2349CE
:1034500008702348007822490978491C204A1170D5
:10346000001D20490C541D48007858BB05201A49FE
:1034700008702FE01848007805280DD1062016495D
:1034800008701748007816490978491C144A1170C9
:10349000001D14490C541DE00F480078062812D175
:1034A00000200D4908700E480078001D0D490C548D
:1034B0000B480078401D0C490870084601780948FF
:1034C00000F096F906E000200349087003490870EF
:1034D0000349087010BD0000C9020024C70200247F
:1034E000C80200249D930024C602002410B50020C9
:1034F0000BF012F90D200BF00FF933200BF00CF943
:1035000034200BF009F940200BF006F941200BF0B4
:1035100003F9E0200BF000F9E2200BF0FDF810BDFC
:1035200010B50020FFF70EFC0120FFF70BFC022076
:10353000FFF708FC0320FFF705FC0420FFF702FC5F
:103540001020FFF7FFFB1120FFF7FCFBE220FFF745
:10355000F9FBE020FFF7F6FB1220FFF7F3FB132047
:10356000FFF7F0FB10BD00002DE9F04104460D46C9
:1035700000260027E178A81F814201D0BDE8F08134
:10358000002006E0215C3144CEB2B919CFB2411C13
:10359000C8B2A91E8142F5DC601910F8020CB042D5
:1035A00004D1601910F8010CB84200D0E6E7207889
:1035B000AA2805D16078FF2803D06078612800D060
:1035C000DCE7A078202831D1201D12F0B0FC7D4925
:1035D0000880A01D12F0ABFC7A49488004F1080075
:1035E00012F0A5FC7749888004F10A0012F09FFCD4
:1035F0007449C88004F10C0012F099FC71490881EB
:1036000004F10E0012F093FC6E49488104F11000A1
:1036100012F08DFC6B49888104F1120012F087FCD6
:103620006849C881012068490870C9E0A0780F285E
:1036300009D120796549087060794870A07988704F
:10364000E079C870BCE0A07806280CD120796049E8
:10365000087060794870A0798870E1795C48C17021
:10366000217A0171ACE0A07807280AD1002005E09A
:10367000211D095C574A1154411CC8B20628F7DBCA
:103680009EE0A07805280AD1002005E0211D095CF4
:10369000514A1154411CC8B20928F7DB90E0A078C8
:1036A000012824D1201D12F03BFC4C490880A01DAC
:1036B00012F036FC4949488004F1080012F030FC51
:1036C0004649888004F10A0012F02AFC4349C88068
:1036D00004F10C0012F024FC4049088104F10E00B2
:1036E00012F01EFC3D494881207C087368E0A078F8
:1036F000042818D1201D12F013FC39490880A01DA0
:1037000012F00EFC3649488004F1080012F008FC63
:103710003349888004F10A0012F002FC3049C88065
:10372000207B08724CE0A078E02813D12079012892
:1037300002D0102802D100E001E000E000BF00BF8D
:10374000207928490870084646708770AF20FDF739
:10375000C9FA35E0A078B0B9234890F80406217979
:1037600088422DD1204890F805066179884227D1FA
:103770001D4890F80606A179884221D100201A49F7
:1037800081F800061CE0A078E1280DD1201D12F080
:10379000CEFB80461548A0F8008000201349486001
:1037A000FF2012F021FD0BE0A078E22808D120795B
:1037B0000C490870084646708770FF20FDF792FAA2
:1037C00000BFDBE6F67F002478010024BC00002463
:1037D000B801002494010024068000240F800024F6
:1037E000EC7F00249A010024D0790024A001002459
:1037F000F8B504460D4600260027E178A81F81424F
:1038000000D0F8BD002006E0215C3144CEB2B919E9
:10381000CFB2411CC8B2A91E8142F5DC601910F874
:10382000020CB04204D1601910F8010CB84200D06B
:10383000E7E72078AA2805D16078FF2803D06078D0
:10384000612800D0DDE7A078E0282FD12079012879
:1038500006D0022805D0102804D0112818D116E06F
:1038600017E016E000200FE0052101EB4001615C4C
:10387000334A22F82010062101EB4001615C02EB83
:1038800080025180411CC8B20328EDDB01E000E05A
:1038900000BF00BF20798DF800008DF801608DF821
:1038A00002706946FF20FFF739FA46E0A078D0B9E8
:1038B000E078032800D0A4E7224890F80F06217989
:1038C00088423AD11F4890F810066179884234D175
:1038D0001C4890F81106A17988422ED10020194980
:1038E00081F8000629E0A078E12815D1E0780228C7
:1038F00000D086E700BF2079617940EA01201149B4
:10390000A1F8140600210F48C0F8181600F214613F
:10391000FF20FFF7DFFA10E0A078E2280DD1207930
:10392000084981F80C06084680F80D6680F80E7686
:1039300000F20C61FF20FFF7F1F900BF61E7000022
:10394000D0940024688D0024F0B587B004460D465D
:1039500000260027E178A81F814201D007B0F0BD02
:10396000002006E0215C3144CEB2B919CFB2411C2F
:10397000C8B2A91E8142F5DC601910F8020CB042F1
:1039800004D1601910F8010CB84200D0E6E72078A5
:10399000AA2805D16078FF2803D06078612800D07C
:1039A000DCE7A078012842D1E078062800D0D5E7EE
:1039B000002005E0011D615C05AA1154411CC8B23C
:1039C0000628F7D3B148807918B9DDE905010DF073
:1039D00055FC01A8DDE905120DF060FCDDE90101EF
:1039E000CDE90301AA480078012807D1A948C07889
:1039F00020B1A848008C00B2ADF81000A648039989
:103A00000160BDF810108180BDF90C00A349086069
:103A1000BDF90E004860BDF910008860A04800782C
:103A2000401C9F49087001209E4908702CE1A07835
:103A3000022814D1E078062800D08FE7002005E0A6
:103A4000011D615C984A1154411CC8B20628F7D385
:103A50000120944948709548FFF75CF914E1A0787B
:103A600003281AD1002005E0011D615C904A115421
:103A7000411CC8B20828F7D38D48016805914068F9
:103A800001460690059810F0FFFC88486030FFF76B
:103A900041F9012083498870F6E0A07804281AD102
:103AA000E078022800D059E7002005E0011D615CA4
:103AB000804A1154411CC8B20228F7D37E480078CE
:103AC000401C7D49087001207649C871774848300C
:103AD000FFF720F9D8E0A078052815D1E07808286C
:103AE00000D03BE7002005E0011D615C734A1154E2
:103AF000411CC8B20828F7D301206A49C8706B4836
:103B00001830FFF707F9BFE0A078062852D1E07817
:103B1000082800D022E7002005E0011D615C684A0A
:103B20001154411CC8B20828F7D301205D4988719F
:103B30006348B0F9000000EE100AB8EEC00ADFEDED
:103B4000610A80EE201A604880ED001A5C48B0F9E6
:103B5000020000EE100AB8EEC00ADFED5A0A80EE4D
:103B6000201A594880ED011A5548B0F9040000EEBA
:103B7000100AB8EEC00ADFED530A80EE201A524850
:103B800080ED021A4E48B0F9060000EE100AB8EEB9
:103B9000C00ADFED4C0A80EE201A4B4880ED031A74
:103BA0004A480078401C4949087040483030FFF7C7
:103BB000B1F869E0A078D0B9E078032800D0CDE66C
:103BC000434890F80406217988425DD1404890F836
:103BD00005066179884257D13D4890F80606A179DB
:103BE000884251D100203A4981F800064CE0A07883
:103BF000E0281BD12079012806D0022805D0102802
:103C000004D0112804D102E003E002E001E000E06A
:103C100000BF00BF20798DF818008DF819608DF86D
:103C20001A7006A9FF200AF095FB2DE0A078E12884
:103C300015D1E078022800D090E600BF20796179A4
:103C400040EA01202249A1F8080600212048C0F8D6
:103C50000C1600F5C161FF200AF0F0FB14E0A0781B
:103C6000E22811D1E078012800DA77E6A078184937
:103C700081F80106084680F8026680F8037600F2B3
:103C80000161FF200AF066FB00BF67E656020024D0
:103C900000020024F48C0024BE010024AC8A00241D
:103CA000D4010024E7010024C4010024F894002476
:103CB000D7010024D2010024D6010024CA01002427
:103CC000DF01002400401C46B88A0024D5010024EE
:103CD000908400242DE9F04104460D46102C77D045
:103CE00006DC052C71D2DFE804F0CF10273F570027
:103CF000132C6BD004DC112C76D0122C65D187E00C
:103D0000E02C70D0E22CF9D1DDE00622784928467B
:103D1000FFF7CEF87748FEF7FAFFB2EE041B20EE6D
:103D2000010BBCEEC00B10EE100A1FFA80F84146E2
:103D30002846FEF7CFFFD7E006226F492846FFF757
:103D4000B7F86C481830FEF7E2FFB2EE041B20EE25
:103D5000010BBCEEC00B10EE100A1FFA80F84146B2
:103D60002846FEF7B7FFBFE0082264492846FEF761
:103D700093FF60487830FEF7CAFFB2EE041B20EED6
:103D8000010BBCEEC00B10EE100A1FFA80F8414682
:103D90002846FEF79FFFA7E0022259492846FFF771
:103DA00087F854486030FEF7B2FFB2EE041B20EEF5
:103DB000010BBCEEC00B10EE100A1FFA80F8414652
:103DC0002846FEF787FF8FE002E08CE038E00BE04A
:103DD00010224C494C48FCF7CBFB10224A4928469C
:103DE000FEF75AFF80E062E0FEF776FD4749088063
:103DF000FEF746FD454948804548D0F80300486035
:103E000044480078087209222846FEF745FF6BE017
:103E10000E2241492846FEF73FFF36483030FEF774
:103E200076FFB2EE041B20EE010BBCEEC00B10EED1
:103E3000100A1FFA80F841462846FEF74BFF53E070
:103E40003348B0F80700354908803148B0F8090018
:103E500048802F48B0F80B00888006222846FEF7DD
:103E60001BFF2448A830FEF752FFB2EE041B20EEE1
:103E7000010BBCEEC00B10EE100A1FFA80F8414691
:103E80002846FEF727FF2FE0254890F80C16284615
:103E9000FEF716FF224890F80D162846FEF710FF91
:103EA0001F4890F80E162846FEF70AFF1CE01C4833
:103EB00090F801162846FEF703FF0A221949284602
:103EC000FEF7EAFE10E01648B0F8140606B2B1B2EA
:103ED0002846FEF7FFFE1248D0F8187639462846E5
:103EE000FEF704FF00E000BF00BFBDE8F081000066
:103EF000BE010024E0940024C4010024D701002462
:103F0000D2010024F67F002484930024949300249B
:103F1000FC8B0024B8010024508C0024C002002433
:103F2000688D00246A9300242DE9FC4104460E4666
:103F30000025002716B90020BDE8FC813222234964
:103F40006846FEF7A4FEAA216846FEF7B9FE31785E
:103F50006846FEF7B5FE21466846FEF7B1FE002131
:103F60006846FEF7ADFE69462046FFF7B3FEBDF892
:103F70000400001F1549C870002007E01349095CC0
:103F80002944CDB27919CFB2411C88B2BDF80410D2
:103F90008142F3DC29466846FEF792FE39466846C0
:103FA000FEF78EFE0A4890F8000640B1E02C06D1DC
:103FB000074880F80F4680F8105680F81176BDF853
:103FC0000400C1B2014800F005F8B5E79D94002453
:103FD000688D002470B504460D4629462046FEF73C
:103FE00065FB70BD2DE9FC4104460E460025002707
:103FF00016B90020BDE8FC81322223496846FEF74D
:1040000046FEAA216846FEF75BFE31786846FEF759
:1040100057FE21466846FEF753FE00216846FEF72C
:104020004FFE694620460AF01DFABDF80400001F45
:104030001549C870002007E01349095C2944CDB236
:104040007919CFB2411C88B2BDF804108142F3DC6B
:1040500029466846FEF734FE39466846FEF730FECC
:104060000A4890F8000640B1E02C06D1074880F8D5
:10407000044680F8055680F80676BDF80400C1B203
:10408000014800F005F8B5E7C88B002490840024AF
:1040900070B504460D4629462046FEF709F970BD65
:1040A0002DE9FC4104460F4600250026A846322291
:1040B0003E496846FEF7EBFDAA216846FEF700FE82
:1040C00039786846FEF7FCFD21466846FEF7F8FDA4
:1040D00000216846FEF7F4FD694620460DF02AFEF1
:1040E000BDF80400001F1FFA80F8304981F80380F2
:1040F000002007E02D49095C2944CDB27119CEB2E8
:10410000411C88B2BDF804108142F3DC29466846A0
:10411000FEF7D6FD31466846FEF7D2FD244890F8FA
:10412000000640B1E02C06D1214880F8044680F812
:10413000055680F80666BDF80400C1B21B4800F0C1
:1041400045F8C8B1332C05D11A480068401C1949FC
:1041500008600EE0342C05D117480068401C164951
:10416000086006E0402C04D114480068401C134944
:1041700008600120BDE8FC81332C05D1104800689F
:10418000401C0F4908600EE0342C05D10D48006832
:10419000401C0C49086006E0402C04D10A48006825
:1041A000401C094908600020E4E700001C8200244C
:1041B000D07900247C010024840100248C01002497
:1041C00080010024880100249001002470B5044679
:1041D0000D4629462046FEF777F970BDF8B504462E
:1041E0000D4616460020009000BF94F850000128AC
:1041F00001D10220F8BD012084F8500000BF204604
:10420000FCF764FC0746A7BB606D20F4885040F0C3
:1042100002006065206805F4803141F0004106F03D
:10422000804211438268194B1A401143816000BFDC
:1042300013E00098401C00901549009888420CD368
:10424000606D20F0020040F01000606500BF0020AB
:1042500084F8500000BF0120CCE720688168C90FB6
:104260000029E6D1606D20F0020040F00100606599
:1042700004E0FFE7606D40F01000606500BF0020C3
:1042800084F8500000BF3846B4E70000C0FFFE3F8E
:1042900000F8C3252DE9F04399B004460E464FF0CF
:1042A0000008306800B100BF00BF94F8500001283A
:1042B00003D1022019B0BDE8F083012084F850003A
:1042C00000BF00201590169046492068884202D110
:1042D0004548009001E000200090009850B9606DC2
:1042E00040F02000606500BF002084F8500000BF4F
:1042F0000120DFE700980AF0AEF9074620680AF0CF
:10430000AAF9002861D1002F5FD136492068884280
:1043100003D035492068884201D1344800E0344850
:104320000546306858B3A86820F4404071680843D7
:10433000A8602C492068884203D02B492068884215
:1043400001D12A4800E02A482849884209D1254855
:104350000AF072F9814624480AF06EF949EA000031
:1043600002E024480AF068F970BBB168306808437D
:10437000A96840F61F7291430843A8602BE0A86823
:1043800020F44040A86017492068884203D01649AD
:104390002068884201D1154800E015481349884239
:1043A00009D110480AF048F981460F480AF044F94B
:1043B00049EA000002E00F480AF03EF920B9A86877
:1043C00040F61F718843A86005E0606D40F0200052
:1043D00060654FF0010800BF002084F8500000BF66
:1043E000404667E7002002400021024000230240CF
:1043F00000630258006002582DE9F84F04460D464C
:104400004FF0000A0020009094F83800012800D1F5
:1044100000E000BFF8492068884200D100BFF7499A
:10442000E868884200D00EE0F5492068884200D153
:1044300000BFF4492068884200D100BFEE492068DF
:10444000884200D100BF00BF94F85000012802D17B
:104450000220BDE8F88F012084F8500000BF2068DA
:104460000AF0F4F8002870D1286800F00040A8B9DC
:104470002068C1692868C0F3130018B92868C0F320
:10448000846004E0286890FAA0F0B0FA80F000F0B0
:104490001F020120904001432068C1612168D5E9D5
:1044A000002001F1300CC0F3012B0CEB8B03D3F88F
:1044B00000C000F01F0E4FF01F0B0BFA0EFB2CEA92
:1044C0000B0C00F01F0BC2F3846E0EFA0BFE4CEACD
:1044D0000E0CC3F800C000BF20680AF0B7F8814690
:1044E00020680AF09AF88046B9F1000F78D1B8F147
:1044F000000FFBD12268AB68286802F1140CC0F3EE
:10450000406B0CEB8B01D1F800C0C0F3045E4FF0A0
:10451000070B0BFA0EFB2CEA0B0CC0F3045B03FA3F
:104520000BFB4CEA0B0CC1F800C000BFB64800689A
:1045300000F07040B0F1805F08D168692168C968F7
:10454000C1F382014900884015E014E22068C06888
:1045500000F0100038B968692168C968C1F38201A8
:104560004900884007E068692168C96801F01001C6
:104570008908490088400746286904283FD02068F8
:104580002A68296900F1600C0CEB8103D3F800C0A4
:104590000CF0004C02F0F84B4BEA070B4CEA0B0C0A
:1045A000C3F800C000BF20686A7E2969012A01D1D2
:1045B000D20700E00022134600F1600C0CEB8102F0
:1045C000D2F800C02CF0004C4CEA030CC2F800C03A
:1045D00000BF20682B7E2969012B02D1DB0201E09C
:1045E00045E000231A46036923F4F04301F01F0C51
:1045F00002FA0CFC43EA0C03036100BF37E02068B9
:10460000006E00F0F8402978B0EB816F05D120688A
:10461000006E20F00040216808662068406E00F0BF
:10462000F8402978B0EB816F05D12068406E20F00A
:104630000040216848662068806E00F0F8402978C4
:10464000B0EB816F05D12068806E20F000402168BA
:1046500088662068C06E00F0F8402978B0EB816F62
:1046600005D12068C06E20F000402168C86620682F
:1046700009F0DDFF002871D12068EA682968D0F8C8
:10468000C030C1F3130C23EA0C0302F0180BDFF85F
:104690007CC12CFA0BFC0CEA010C43EA0C03C0F8B9
:1046A000C03000BF5549E868884270D1544B20683B
:1046B00098423DD1564B2A689A4201D1012276E0B8
:1046C000544B2A689A4201D1534A70E0534B2A68EE
:1046D0009A4201D1524A6AE0524B2A689A4201D169
:1046E000514A64E0514B2A689A4201D1504A5EE037
:1046F000504B2A689A4201D14F4A58E04E4B2A68E3
:104700009A4201D14D4A52E04C4B2A689A4201D15B
:104710004B4A4CE04B4B2A689A4201D14A4A46E048
:104720004A4B2A689A4201D1494A40E000223EE0C1
:10473000344B22689A4239D1354B2A689A4201D1CA
:10474000012234E0334B2A689A4201D1324A2EE0EA
:10475000324B2A689A4202D1314A28E0B3E0314B09
:104760002A689A4201D1304A21E0304B2A689A42A5
:1047700001D12F4A1BE02F4B2A689A4201D12E4AC1
:1047800015E02D4B2A689A4202D12C4A0FE023E013
:104790002A4B2A689A4201D1294A08E02B4B2A6801
:1047A0009A4201D12A4A02E0002200E0002211468A
:1047B000C369C1F3130212B9C1F3846203E091FA31
:1047C000A1F2B2FA82F202F01F0C012202FA0CF2FC
:1047D0001343C36100BF00BF286800F000400028F9
:1047E00071D0074A2168914203D0064A216891425C
:1047F00032D1184931E00000006002580000FF4744
:1048000000200240002102400010005CFFFF0F006A
:104810000200300404006008400020190800900CD9
:104820008000501D1000C010000180212000F014F5
:104830000002B0250004002A0008302E001060326B
:104840000020903600002143000052470000844BB6
:104850000000B84F002302404D490846816801F02E
:10486000E07600BF4B492068884203D04A4920685F
:10487000884201D1494800E045484849884209D169
:10488000444809F0D4FE8346434809F0D0FE4BEA81
:10489000000002E0424809F0CAFEE8BB414928682E
:1048A000884227D106F4000020BB3D492068884299
:1048B00067D1384B22689A4203D0374B22689A421C
:1048C00002D1364A01E032E0314A104646F4000196
:1048D00009F0D8FE344800683449B0FBF1F0401CC0
:1048E0004000009002E00098401E009000980028D0
:1048F000F9D146E02E492868884219D106F0807027
:10490000B0B92749206888423BD1224B22689A429D
:1049100005D0214B226800E026E09A4201D11F4ACF
:1049200000E01B4A104646F0807109F0ABFE28E01B
:1049300020492868884224D106F4800008BB184921
:10494000206888421DD1134B22689A4203D0124B33
:1049500022689A4201D1114A00E00D4A104646F4FD
:10496000800109F08FFE0CE0606D40F02000606572
:104970004FF0010A05E0606D40F0200060654FF0E7
:10498000010A00BF002084F8500000BF504660E5D7
:104990000063025800200240002102400023024030
:1049A00000600258000084CB34000024400D030056
:1049B000000052C70000B8CF704770477047000032
:1049C0002DE9F84F04464FF000090020009014B97B
:1049D0000120BDE8F88FE06818B1207F012800D1E0
:1049E00000BF606D30B9204600F030F90020A065AE
:1049F00084F8500020688168C1F3407131B12068AB
:104A00008168874A1140816000BF00BF206809F0BB
:104A100018FEA8B920688168824A114041F080518F
:104A2000816000BF804800688049B0FBF1F0401C05
:104A3000009002E00098401E009000980028F9D1F4
:104A4000206809F0FEFD48B9606D40F01000606517
:104A5000A06D40F00100A0654FF00109206809F049
:104A6000F5FD0646606D00F0100000287ED1002E96
:104A7000FCD1606D20F4807040F002006065206819
:104A800009F0D5FD78BB6A492068884203D069499E
:104A90002068884201D1684800E068486649884239
:104AA00009D1634809F0C3FD8246624809F0BFFDA1
:104AB0004AEA000002E0624809F0B9FD98B95C4B8F
:104AC00022689A4203D05B4B22689A4201D15A4A2B
:104AD00000E05A4A10466168826822F47C120A4358
:104AE000826000BF00BF02F0DFF941F2030188429B
:104AF0000ED9A06810280BD1607D216B41EA4030AF
:104B0000A168084340F00C01207F41EA004508E01D
:104B1000607D216B41EA4030A1680843217F40EA73
:104B20000145207F012803D1208C401E45EA4045E5
:104B3000606A28B1A08C00F47870A16A084305432C
:104B40002068C0683F49084028432168C860206841
:104B500009F07CFD8046206809F05FFD0746B8F14A
:104B6000000F3BD1D7BB207DE16A00E050E041EA75
:104B700080352068C06844F20301884328432168D7
:104B8000C86094F83800012817D1606A08B1A06A9B
:104B900000B900BFA08F401E012141EA0041206CF6
:104BA0000843616C0843A16C084321680969264ADF
:104BB000114008432168086105E02068006920F081
:104BC0000100216808612068006920F07040616B75
:104BD0000843216808612046FBF7D8FDE0680128FA
:104BE00009D12068006B20F00F00A169491E08431D
:104BF0002168086305E02068006B20F00F00216841
:104C00000863606D20F0020040F00100606505E07F
:104C1000606D40F0100060654FF001094846D8E62D
:104C2000C0FFFF5FC0FFFF7F34000024400D030082
:104C3000002002400021024000230240006302588D
:104C40000060025803C0F0FF1EF800FC10B586B0EB
:104C50000446142101A8FBF72CFD55492068884221
:104C60004FD154480068401C52490860084600680B
:104C700001280DD100BF5048006840F020004E4987
:104C800008600846006800F02000009000BF00BFE8
:104C900000BF49480830006840F00200464908312A
:104CA00008600846006800F00200009000BF00BFE6
:104CB00001200190032002900020039001A93F48A9
:104CC00001F0DEFF3E483F490860092048600021AE
:104CD0003C488160C1604FF48061016149004161DD
:104CE000890081614911C16100210162416201F0C5
:104CF00033FB08B1FDF7E4FE00BF3248E064846393
:104D000054E031492068884250D12A480068401C4C
:104D1000284908600846006801280DD100BF2648D0
:104D2000006840F02000244908600846006800F050
:104D30002000009000BF00BF00BF1F48083000687F
:104D400040F004001C49083108600846006800F083
:104D50000400009000BF00BF2020019003200290BB
:104D60000020039001A9194801F08AFF144818385F
:104D7000174908600A204860002115488160C16019
:104D80004FF48061016149004161890081614911ED
:104D9000C16100210162416201F0DEFA08B1FDF754
:104DA0008FFE00BF0A48E064846300BF06B010BDF8
:104DB0000020024020000024D84402580004025879
:104DC00040040240E0030024002102400008025891
:104DD000580400242DE9F04104460F469046434A0A
:104DE0002168914203D0424A2168914201D1414950
:104DF00000E04149084609F00BFC0646206809F02E
:104E000025FC00286ED100BF94F85000012802D183
:104E10000220BDE8F081012084F8500000BF1EB1DF
:104E2000052E01D0092E57D12046FBF799FE0546E5
:104E3000002D4CD1606D40F60161884340F48070D4
:104E400060652B492068884201D1284800E020682D
:104E50002168884200D01EB9606D20F48010606522
:104E6000606D00F4805020B1A06D20F00600A065B8
:104E700001E00020A0652148E16CC8632048E16C96
:104E800008642048E16CC8641C202168086000BFE9
:104E9000002084F8500000BF2068406840F01000F7
:104EA00021684860E16A2068C26822F003020A4370
:104EB000C26000BF226802F1400143463A46E06CFE
:104EC00001F0DAFC0546206809F0D4FB0BE000BFD6
:104ED000002084F8500006E0012500BF002084F87F
:104EE000500000E00225284693E700000020024021
:104EF0000021024000230240006302580D0A00080E
:104F0000BD0A00089F0A000870B5044600BF94F867
:104F10005000012801D1022070BD012084F850000A
:104F200000BF03212046FBF7E3FC054655B92046A8
:104F3000FBF7CCFD05462DB9606D20F4885040F09C
:104F40000100606500BF002084F8500000BF2846C3
:104F5000E2E770B5044600BF94F85000012801D183
:104F6000022070BD012084F8500000BF03212046BC
:104F7000FBF7BEFC05464DBB2068C06820F003006F
:104F80002168C860E06C90F83500022808D1E06C18
:104F900000F024F805461DB1606D40F040006065EA
:104FA0002068406820F010002168486025B920463C
:104FB000FBF78CFD054602E02046FBF787FD2DB987
:104FC000606D20F4885040F00100606500BF002053
:104FD00084F8500000BF2846C3E700002DE9F041E7
:104FE000044601F067FF804614B90120BDE8F08156
:104FF00094F83500022808D08020606500BF0020AA
:1050000084F8340000BF0120F0E7FE4920688842A0
:1050100049D0FC4918312068884244D0F9493031E0
:10502000206888423FD0F7494831206888423AD00A
:10503000F44960312068884235D0F24978312068DF
:10504000884230D0EF499031206888422BD0ED491A
:10505000A8312068884226D0EB492068884222D0B7
:10506000E9491831206888421DD0E749303120686D
:10507000884218D0E44948312068884213D0E24978
:105080006031206888420ED0DF497831206888423C
:1050900009D0DD4990312068884204D0DA49A8312E
:1050A0002068884206D12068006820F0010021684D
:1050B000086005E02068006820F0010021680860B1
:1050C000D0492068884249D0CE49183120688842AA
:1050D00044D0CC493031206888423FD0C94948315A
:1050E000206888423AD0C74960312068884235D06C
:1050F000C44978312068884230D0C2499031206854
:1051000088422BD0BF49A8312068884226D0BE49AA
:105110002068884222D0BC491831206888421DD0BE
:10512000B94930312068884218D0B74948312068E1
:10513000884213D0B4496031206888420ED0B24909
:1051400078312068884209D0AF4990312068884280
:1051500004D0AD49A8312068884201D1012000E087
:10516000002068B12068006820F01E0021680860F7
:105170002068406920F0800021684861256806E0C9
:105180002068006820F00E002168086025689D49AD
:105190002068884270D09B491831206888426BD0C3
:1051A000984930312068884266D096494831206855
:1051B000884261D093496031206888425CD091492F
:1051C00078312068884257D08E49903120688842D3
:1051D00052D08C49A831206888424DD08A49206835
:1051E000884249D0884918312068884244D086498D
:1051F0003031206888423FD0834948312068884256
:105200003AD0814960312068884235D07E49783172
:105210002068884230D07C499031206888422BD069
:105220007949A8312068884226D078492068884288
:1052300022D076491431206888421DD07349283124
:105240002068884218D071493C312068884213D0C8
:105250006E495031206888420ED06C496431206814
:10526000884209D0694978312068884204D067496A
:105270008C312068884201D1012000E0002028B153
:10528000206E006820F48070216E086011E001F04B
:1052900011FEA0EB080005280BD920206065032033
:1052A00084F8350000BF002084F8340000BF0120DE
:1052B0009CE6286800F001000028E8D151492068E8
:1052C000884249D04F4918312068884244D04D491E
:1052D0003031206888423FD04A49483120688842AE
:1052E0003AD0484960312068884235D04549783104
:1052F0002068884230D043499031206888422BD0C2
:105300004049A8312068884226D03F492068884219
:1053100022D03D491831206888421DD03A493031A9
:105320002068884218D0384948312068884213D014
:1053300035496031206888420ED033497831206881
:10534000884209D0304990312068884204D02E49E3
:10535000A8312068884201D1012000E0002040B13E
:10536000A66D94F85C0000F01F013F208840B060FB
:1053700007E0A76D94F85C0000F01F010120884051
:10538000786020492068884276D01E49183120680C
:10539000884271D01B493031206888426CD019494D
:1053A00048312068884267D01649603120688842B9
:1053B00062D014497831206888425DD0114990311B
:1053C0002068884258D00F49A8312068884253D0BD
:1053D0000D49206888424FD00B4918312068884217
:1053E0004AD0094930312068884245D006494831C1
:1053F0002068884240D004496031206888423BD010
:10540000014905E01000024010040240085402580F
:105410007831206888422FD02549206888422BD0D7
:10542000234918312068884226D0224920688842C2
:1054300022D020491431206888421DD01D492831CE
:105440002068884218D01B493C312068884213D01C
:1054500018495031206888420ED0164964312068BE
:10546000884209D0134978312068884204D0114914
:105470008C312068884201D1012000E0002068B111
:10548000D4E919104860E06E40B1E06E006820F485
:105490008070E16E0860D4E91C104860012084F837
:1054A000350000BF002084F8340000BF00BF9DE538
:1054B000A00402400854025870B504460CB90120FB
:1054C00070BD94F83500022803D08020606501206B
:1054D000F6E7DC492068884249D0DA49183120686B
:1054E000884244D0D7493031206888423FD0D549DE
:1054F0004831206888423AD0D249603120688842D9
:1055000035D0D04978312068884230D0CD499031AB
:10551000206888422BD0CB49A8312068884226D009
:10552000C9492068884222D0C7491831206888427A
:105530001DD0C54930312068884218D0C249483151
:105540002068884213D0C0496031206888420ED05C
:10555000BD4978312068884209D0BB499031206824
:10556000884204D0B849A8312068884201D101207E
:1055700000E00020F0B3042084F83500B149206831
:1055800088424BD0AF4918312068884246D0AD4997
:1055900030312068884241D0AA4948312068884289
:1055A0003CD0A84960312068884237D0A54978317D
:1055B0002068884232D0A3499031206888422DD09B
:1055C000A049A8312068884228D09F492068884295
:1055D00024D09D491831206888421FD09A49303123
:1055E000206888421AD0984948312068884215D0EE
:1055F000954900E020E06031206888420ED0924951
:1056000078312068884209D08F49903120688842DB
:1056100004D08D49A8312068884206D120680068EE
:1056200020F001002168086009E12068006820F08E
:1056300001002168086002E182492068884249D05F
:10564000804918312068884244D07E493031206832
:1056500088423FD07B494831206888423AD0794916
:1056600060312068884235D0764978312068884298
:1056700030D074499031206888422BD07149A831CC
:105680002068884226D070492068884222D06E491E
:105690001831206888421DD06B493031206888421B
:1056A00018D0694948312068884213D06649603172
:1056B000206888420ED0644978312068884209D039
:1056C000614990312068884204D05F49A831206840
:1056D000884206D12068006820F001002168086037
:1056E00005E02068006820F001002168086020685B
:1056F000006820F00E002168086052492068884246
:1057000070D050491831206888426BD04D493031F3
:105710002068884266D04B4948312068884261D071
:1057200048496031206888425CD046497831206819
:10573000884257D0434990312068884252D041492D
:10574000A831206888424DD03F492068884249D01E
:105750003D4918312068884244D03B4930312068A7
:1057600088423FD038494831206888423AD036498B
:1057700060312068884235D03349783120688842CA
:1057800030D031499031206888422BD02E49A83141
:105790002068884226D02D492068884222D02B4993
:1057A0001431206888421DD0284928312068884259
:1057B00018D026493C312068884213D02349503103
:1057C000206888420ED0214964312068884209D07F
:1057D0001E4978312068884204D01C498C312068E9
:1057E000884201D1012000E00020D8B1206E00687D
:1057F00020F48070216E0860A56D94F85C0000F0C4
:105800001F01012088406860D4E919104860E06EEB
:1058100040B1E06E006820F48070E16E0860D4E969
:105820001C104860012084F8350000BF002084F877
:10583000340000BF206D10B12046216D8847002044
:105840003EE60000100002401004024008540258D6
:105850000146486D7047014691F8350070470000D9
:105860002DE9F84F044600200090FE4800684FF4F0
:105870001651B0FBF1FAA66DD4F858803768D8F805
:105880000090F9492068884249D0F74918312068CA
:10589000884244D0F4493031206888423FD0F249F0
:1058A0004831206888423AD0EF4960312068884208
:1058B00035D0ED4978312068884230D0EA499031BE
:1058C000206888422BD0E849A8312068884226D039
:1058D000E6492068884222D0E4491831206888428D
:1058E0001DD0E24930312068884218D0DF49483164
:1058F0002068884213D0DD496031206888420ED08C
:10590000DA4978312068884209D0D8499031206836
:10591000884204D0D549A8312068884201D10120AD
:1059200000E0002000287DD094F85C0000F01F010A
:10593000082088403840002868D0CB492068884239
:1059400049D0C94918312068884244D0C64930310D
:10595000206888423FD0C4494831206888423AD004
:10596000C14960312068884235D0BF49783120680C
:10597000884230D0BC499031206888422BD0BA4947
:10598000A8312068884226D0B8492068884222D0B1
:10599000B6491831206888421DD0B449303120689A
:1059A000884218D0B14948312068884213D0AF49A5
:1059B0006031206888420ED0AC4978312068884236
:1059C00009D0AA4990312068884204D0A749A8315B
:1059D0002068884204D12068006800F0040003E0D9
:1059E0002068006800F0080080B12068006820F09E
:1059F00004002168086094F85C0000F01F01082092
:105A00008840B060606D40F00100606594F85C0013
:105A100000F01F01012088403840E8B39249206817
:105A2000884200E0B7E24BD08F49183120688842A5
:105A300046D08D4930312068884241D08A4948316A
:105A4000206888423CD0884960312068884237D03D
:105A5000854978312068884232D083499031206866
:105A600088422DD08049A8312068884228D07F49BB
:105A70002068884224D07D491831206888421FD090
:105A80007A493031206888421AD0784948312068F4
:105A9000884215D0754900E026E0603120688842D0
:105AA0000ED0724978312068884209D06F49903110
:105AB0002068884204D06D49A8312068884204D10A
:105AC0002068406900F0800002E020680068002043
:105AD00050B194F85C0000F01F0101208840B060D4
